:020000040801F1
:1000000000500020E51A0108891301088F13010828
:10001000951301089B130108A113010800000000BB
:10002000000000000000000000000000A71301080D
:10003000B313010800000000BF130108CD1301082D
:100040002D1B01082D1B01082D1B01082D1B01086C
:100050002D1B01082D1B01082D1B01082D1B01085C
:100060002D1B01082D1B01082D1B01082D1B01084C
:100070002D1B01082D1B01082D1B01082D1B01083C
:100080002D1B01082D1B01082D1B01082D1B01082C
:100090002D1B01082D1B01082D1B01082D1B01081C
:1000A0002D1B01082D1B01082D1B01082D1B01080C
:1000B0002D1B01082D1B01082D1B01082D1B0108FC
:1000C0002D1B01082D1B01082D1B01082D1B0108EC
:1000D0002D1B01082D1B01082D1B01082D1B0108DC
:1000E0002D1B01082D1B01082D1B0108000000001D
:1000F0000000000000000000000000000000000000
:0C01000000000000000000005FF808F1A3
:10010C0010B5054C237833B9044B13B10448AFF345
:10011C0000800123237010BD280200200000000085
:10012C001072010808B5034B1BB103490348AFF328
:10013C00008008BD000000002C0200201072010895
:10014C0010F8012B11F8013B012A28BF9A42F7D075
:10015C00D01A7047034613F8012B002AFBD1181A4A
:10016C000138704780B584B000AF0346FB7107F1CE
:10017C000C031A460B490C4805F0DCFAFB680B4AD9
:10018C0013600A4B1B68012B02D1094B11221A6018
:10019C00FB790021184600F06BF900231846103744
:1001AC00BD4680BD2872010869030020B4020020FE
:1001BC008802002080B5C6B000AF0246FB1D1A7045
:1001CC000023C7F8103107F10C0318464FF4807365
:1001DC001A46002105F009FA002387F80F3107F1C0
:1001EC000C034FF480720021184605F0FEF9012330
:1001FC0087F80F3197F80F3107F10C0000222349D3
:10020C0005F078FA07F10C031846FFF7A3FF034635
:10021C00C7F810310023C7F814311BE007F10C02AA
:10022C00D7F81031D0181A4AD7F814319B00134460
:10023C005B681A46174905F05DFA07F10C0318467E
:10024C00FFF788FF0346C7F81031D7F81431013394
:10025C00C7F81431D7F81431092BDFDD07F10C0284
:10026C00FB1D1B781146184600F01AF8C7F8100150
:10027C00094800F0D1F828220021084805F0B5F90A
:10028C000023184607F58C77BD4680BD30720108F7
:10029C008802002028720108C41300208C02002060
:1002AC0080B58AB006AF03463960FB713868FFF73A
:1002BC0051FF0346FB60FB793A680492FA6803929B
:1002CC00029300230193A1230093A223022211493C
:1002DC00114805F00FFA1048FFF73CFF0346FB608E
:1002EC00FB68013B19460D4800F01EF803461A4600
:1002FC000B4B1A70FB68084A9818094B1B781A4666
:10030C000323084905F0F6F9002318461037BD46BB
:10031C0080BD00BF3C720108C4130020C51300202F
:10032C005F1C00205872010880B485B000AF786063
:10033C0039600F4B00221A600023FB600CE0FB6855
:10034C007A6813441B781A46094B1B681344084AF5
:10035C001360FB680133FB60FA683B689A42EEDB82
:10036C00034B1B68DBB218461437BD4680BC704784
:10037C00CC02002080B584B000AF78603960234B8C
:10038C0000221A603B680C333B600023FB600EE0DC
:10039C00FB6801337A6813441B787B727A7A1B4BA7
:1003AC001B681344194A1360FB680133FB603B68FC
:1003BC00FA689A42ECD3164B00221A60FB685A1C5E
:1003CC00FA6001337A681344114A1249184605F051
:1003DC00B1F9FB6802337A6813441B78FB720B4B40
:1003EC001B68BB72BA7A0A4B1B689A4207D1FB7A1C
:1003FC00032B01D1002304E04FF0FF3301E04FF059
:10040C00FF3318461037BD4680BD00BFCC0200201C
:10041C00540300206072010880B586B002AF78608A
:10042C000023FB607868FFF795FE0346BB60BB6852
:10043C000133DA0F13445B10FB600A4B1878FB682E
:10044C009BB25B009AB2084B1B880093074B7968F0
:10045C0003F0F6FF012001F0C7FB00BF1037BD46CB
:10046C0080BD00BF580200200800002004000020BE
:10047C0080B582B000AF03460A46FB711346BB71D0
:10048C00BB791A460849094805F034F9FB79074944
:10049C001846FFF705FF0648FFF7BEFF0023184676
:1004AC000837BD4680BD00BF68720108601C002083
:1004BC00C413002080B584B000AF0346FB71FB79F8
:1004CC00F32B05D0FB79F42B02D03C4B00221A7095
:1004DC00FB79A92B1CDCA72B66DA1F2B0CDC1E2B43
:1004EC0064DA122B62D0122B02DC102B5ED055E09A
:1004FC001A3B012B52D859E0A02B57D0A02B04DC6F
:10050C00202B30D0212B33D048E0A42B46DB4DE000
:10051C00C02B23D0C02B0BDCAC2B47D0AC2B02DC7C
:10052C00AB2B11D03AE0AF2B13D0BD2B3ED035E026
:10053C00F42B04DCF32B20DAC12B39D02EE0FD2B6D
:10054C0021D0FE2B25D029E0FB791846FFF732FE8F
:10055C002FE0FB791846FFF705FE2AE0FB791846D9
:10056C0000F0ECF825E0FB79184600F087F920E064
:10057C00FB79184600F0ACF91BE0FB79184600F04B
:10058C0067FAF86015E0FB79184600F095FAF86008
:10059C000FE0FB79184600F005FB0AE0FB7904211B
:1005AC001846FFF765FF04E000BF02E000BF00E063
:1005BC0000BFFB6818461037BD4680BD58030020AD
:1005CC0080B58CB002AF786000237B6200233B6265
:1005DC007B68002B01D1FF2395E04D4B1B78FB77FB
:1005EC00FB7F022B01D0FF238DE007F1100107F1F7
:1005FC00140207F10C0300930B464649464805F0DC
:10060C0099F87B69DAB2454B1A703B69DAB2444B04
:10061C001A70FB68DAB2434B1A7007F114031A46CE
:10062C004149424805F086F87B69BB773B4B1B7808
:10063C00A12B07D13A4B1B78A22B0AD0384B1B7835
:10064C00A32B06D0BB7F03211846FFF711FF002315
:10065C0059E007F108031A463549364805F06AF89F
:10066C00BB6819462A48FFF785FEB861BB69002BA9
:10067C0006D0BB7F05211846FFF7FAFEFF2342E0A8
:10068C00274B1B78A22B04D1BB7F1846FFF712FF18
:10069C0004E0BB7F03211846FFF7EAFE3B6A5A1CB5
:1006AC003A62022B2BD8BB681A467B6A1344103370
:1006BC007B627A6A7B689A4223D241F268020021FB
:1006CC001D4804F092FF7B6A114A99187A687B6A7C
:1006DC00D31A1A46184804F07DFF41F26802002133
:1006EC000B4804F082FF7A687B6AD31A1A461249C7
:1006FC00074804F06FFF642001F076FA6DE700BF45
:10070C0000E000BFFF2318462837BD4680BD00BF60
:10071C005C030020787201085D030020D0020020E9
:10072C005D1C00205C1C002060720108630300202B
:10073C008872010865030020601C002080B582B01F
:10074C0000AF0346FB71FB7900211846FFF790FEC2
:10075C0000BF0837BD4680BD80B500AF434B1B784A
:10076C0003F00103002B1BD0414B1B7803F001035A
:10077C00002B0FD03F4B1B78002B05D00022012102
:10078C003D4801F026FE10E0012201213A4801F01B
:10079C0020FE0AE001220121374801F01AFE04E094
:1007AC0000220121344801F014FE304B1B7803F079
:1007BC000203002B1BD02E4B1B7803F00203002BE3
:1007CC000FD02C4B1B78002B05D0002202212A487D
:1007DC0001F0FFFD10E001220221274801F0F9FD94
:1007EC000AE001220221244801F0F3FD04E000227A
:1007FC000221214801F0EDFD1C4B1B7803F008038E
:10080C00002B05D0012208211B4801F0E2FD04E079
:10081C0000220821184801F0DCFD144B1B7803F072
:10082C000403002B1BD0124B1B7803F00403002B8A
:10083C000FD0104B1B78002B05D0002204210E4842
:10084C0001F0C7FD10E0012204210B4801F0C1FDAD
:10085C000AE001220421084801F0BBFD04E000225B
:10086C000421054801F0B5FD00BF80BDC802002081
:10087C005E1C0020CC2C00200010014080B584B000
:10088C0000AF0346FB710023FB600023BB6007F144
:10089C00080307F10C020A490A4804F04BFFFB68F5
:1008AC00DAB2094B1A70BB68DAB2084B1A70FB79D2
:1008BC0000211846FFF7DCFD00BF1037BD4680BD98
:1008CC009072010869030020C80200205E1C002001
:1008DC0080B582B000AF0346FB7128220021064888
:1008EC0004F083FEFB7900211846FFF7C1FD00BF21
:1008FC000837BD4680BD00BF8C02002080B582B099
:10090C0000AF0346FB80FB88DBB203F00103DBB2D4
:10091C001A460121354801F05CFDFB885B10DBB207
:10092C0003F00103DBB21A460221304801F051FDFD
:10093C00FB889B10DBB203F00103DBB21A460421E7
:10094C002A4801F046FDFB88DB10DBB203F0010303
:10095C00DBB21A460821254801F03BFDFB881B1130
:10096C00DBB203F00103DBB21A4610211F4801F081
:10097C0030FDFB885B11DBB203F00103DBB21A46DE
:10098C0020211A4801F025FDFB889B11DBB203F0F6
:10099C000103DBB21A464021144801F01AFDFB8812
:1009AC00DB11DBB203F00103DBB21A4680210F48E6
:1009BC0001F00FFDFB881B12DBB203F00103DBB26D
:1009CC001A464FF48071094801F003FDFB885B1255
:1009DC00DBB203F00103DBB21A464FF4007103489B
:1009EC0001F0F7FC00BF0837BD4680BD0010014088
:1009FC0080B400AF034B044ADA6000BFBD4680BC34
:100A0C00704700BF00ED00E00400FA0580B582B02D
:100A1C0000AF0123FB7101210C4800F0D3F9034610
:100A2C00FB71FB79002B0BD00121084800F0CAF9AF
:100A3C000346FB71FB79002B02D04FF0FF3300E033
:100A4C00002318460837BD4680BD00BF00A0010832
:100A5C0080B582B000AF0346FB71164B1B78013397
:100A6C00DAB2144B1A70134B1B78022B07D8FB7994
:100A7C0000211846FFF7FCFC4FF0FF3316E001F0A5
:100A8C00B9F90C4B00221A70FFF7C0FF0346002B7C
:100A9C0007DAFB790A211846FFF7EAFC4FF0FF331F
:100AAC0004E001F0CDF9FFF7A3FFFEE71846083785
:100ABC00BD4680BD5803002080B582B000AF034610
:100ACC00FB71FB7900211846FFF7D2FC012000F0E6
:100ADC008FF8FFF78DFFFEE7B0B594B002AF7860EA
:100AEC002D4B07F114041D460FCD0FC40FCD0FC4B1
:100AFC0095E80F0084E80F00284A07F1080307CA9D
:100B0C0083E8070007F108030933184604F033FDA6
:100B1C00034687F846300023BB7307F10803043300
:100B2C00184604F028FD034687F845300023FB7275
:100B3C00002387F8473027E097F847309B0007F1F0
:100B4C004802134453F8342C07F108031146184695
:100B5C00FFF7F6FA0346002B11D197F84730013313
:100B6C0087F8443097F8462097F8441097F84530AA
:100B7C0000930B460A49786804F0BCFD08E097F82E
:100B8C004730013387F8473097F847300B2BD3D9D0
:100B9C004837BD46B0BD00BFE072010810730108B4
:100BAC009C72010880B586B000AF0346FB7107F15B
:100BBC000C031846FFF790FF07F10C02084B09498C
:100BCC00094804F097FDFB7907491846FFF768FBC5
:100BDC000648FFF721FC00BF1837BD4680BD00BF9B
:100BEC001C73010828730108601C0020C41300202A
:100BFC0080B582B000AF7860074A7B681360074805
:100C0C0001F05AFC044B1B68002B00D0F7E700BF27
:100C1C0000BF0837BD4680BDD82C0020E42C002036
:100C2C0080B588B000AF07F1100300221A605A603B
:100C3C009A60DA604B4B9B694A4A43F0100393610C
:100C4C00484B9B6903F01003FB60FB68454B9B69A9
:100C5C00444A43F020039361424B9B6903F0200309
:100C6C00BB60BB683F4B9B693E4A43F004039361F6
:100C7C003C4B9B6903F004037B607B68394B9B699D
:100C8C00384A43F008039361364B9B6903F0080321
:100C9C003B603B68002240F2FF31334801F099FB86
:100CAC0001220C21314801F094FB00224FF48251B7
:100CBC002F4801F08EFB4FF470433B6100237B61A6
:100CCC000023BB6107F110031946274801F010FA05
:100CDC0040F2FF333B6101237B610223BB610223A2
:100CEC00FB6107F1100319461F4801F001FA41F6A8
:100CFC00F3133B6100237B610023BB6107F11003FD
:100D0C0019461A4801F0F4F90C233B6101237B616D
:100D1C000123BB610223FB6107F110031946134841
:100D2C0001F0E6F940F223333B6100237B610023A1
:100D3C00BB6107F1100319460D4801F0D9F94FF4C6
:100D4C0082533B6101237B610023BB610223FB6166
:100D5C0007F110031946064801F0CAF900BF203705
:100D6C00BD4680BD0010024000100140000801404B
:100D7C00000C014080B485B000AF78600023FB60AC
:100D8C0016E0FB6803F5003301339B027A689A4244
:100D9C000BD2FB6803F500339B027A689A4204D3AA
:100DAC00FB6803F500339B0206E0FB680133FB6034
:100DBC00FB687F2BE5DD002318461437BD4680BC4D
:100DCC007047000080B586B000AF78600B46FB70B2
:100DDC0001F010F87868FFF7CDFF78617B683B6114
:100DEC003869FFF7C7FFF860104B00221A600F4AF2
:100DFC007B699360FA687B69D31A9A0AFB7813446F
:100E0C000A4AD36007F108031946084801F0C8F8EC
:100E1C000346002B03D001F023F8034602E001F057
:100E2C000FF8002318461837BD4680BD4402002039
:100E3C0080B500AF094B0A4A1A60084B05225A606C
:100E4C00064B40F6FF729A60044801F0F3FA034631
:100E5C00002B01D000F0D9F900BF80BDE42C00209C
:100E6C000030004080B500AF0A4801F025FB0A4B6A
:100E7C001B6803F40073002B05D0002204210748E3
:100E8C0001F0A7FA04E001220421044801F0A1FAC0
:100E9C0000BF80BDE42C0020C82C002000080140BD
:100EAC0080B500AF0020FFF729FD0D4B00221A7012
:100EBC000C4B00221A700C4B00221A7028220021B5
:100ECC000A4804F092FB28220021094804F08DFB0B
:100EDC0028220021074804F088FB00BF80BD00BF1A
:100EEC00C80200205E1C0020CC2C0020F02C00201E
:100EFC00182D00208C02002080B584B000AF034672
:100F0C00FB80FB88092B62D801A252F823F000BFAA
:100F1C00450F0108530F0108610F0108710F0108FB
:100F2C00810F0108910F01089F0F0108AD0F0108F7
:100F3C00BB0F0108CB0F01080121284801F032FA40
:100F4C000346FB6045E00221244801F02BFA0346DE
:100F5C00FB603EE04FF48071204801F023FA034619
:100F6C00FB6036E04FF400611C4801F01BFA0346AD
:100F7C00FB602EE04FF48051184801F013FA034641
:100F8C00FB6026E00121164801F00CFA0346FB60D9
:100F9C001FE00221124801F005FA0346FB6018E03D
:100FAC0020210F4801F0FEF90346FB6011E04FF4DD
:100FBC0080710B4801F0F6F90346FB6009E04FF431
:100FCC000071074801F0EEF90346FB6001E00123D4
:100FDC00FB60FB6818461037BD4680BD0008014019
:100FEC00000C014080B584B000AF0023FB600A23E5
:100FFC00BB6000237B600023FB6057E0FB689BB267
:10100C001846FFF779FF78607B68002B0ED12B4ACE
:10101C00FB6852F823305A1C2849FB6841F82320FE
:10102C00274AFB68002142F823100DE0244AFB6894
:10103C0052F823305A1C2249FB6841F823201F4ADE
:10104C00FB68002142F823101C4AFB6852F823303D
:10105C00BA689A4210DA194AFB68002142F8231048
:10106C00174AFB68002142F82310164AFB689B00C4
:10107C00134400225A6016E0114AFB6852F82330E0
:10108C00BA689A420FDA0D4AFB68002142F8231025
:10109C000B4AFB68002142F823100A4AFB689B00AC
:1010AC00134401225A60FB680133FB60FB68092B77
:1010BC00A4DD00BF1037BD4680BD00BFF02C002062
:1010CC00182D00208802002080B582B000AF00F0FF
:1010DC0029FD00F053F8FFF7A3FD00F09BF800F09A
:1010EC007FFAFFF7A5FEFFF7DBFE00F061FB0023A4
:1010FC003B6001237B601B4B00221A60FFF7B2FEA2
:10110C00FFF72AFBFFF76EFF7B68002B06D0154B11
:10111C001B68B3F57A7F01DB00237B6041F2680228
:10112C000021114804F061FA104B1878104B1B8801
:10113C00104A0D4900F05EFC03463B603B68002BF7
:10114C00DCD008210C4801F05CF97B68002B03D142
:10115C003868FFF735FAD1E70421FF20FFF788F94B
:10116C00CCE700BFC82C00205C03002058020020F4
:10117C0008000020040000200008014080B590B059
:10118C0000AF07F1180328220021184604F02DFAAD
:10119C003B1D00221A605A609A60DA601A610923BA
:1011AC00BB614FF48033FB6100233B620123BB62C4
:1011BC0001233B6302237B634FF48033BB634FF407
:1011CC00E013FB6307F11803184601F085F9034699
:1011DC00002B01D000F019F80F237B600223BB60B9
:1011EC000023FB604FF480633B6100237B613B1D5C
:1011FC000221184601F0F0FB0346002B01D000F051
:10120C0004F800BF4037BD4680BD80B400AF72B655
:10121C00FEE7000080B500AF174B184A1A60164B5A
:10122C004FF482725A60144B00229A60124B0022C7
:10123C00DA60114B00221A610F4B00225A610E4BDF
:10124C004FF400729A610C4B0022DA610A4B0022B7
:10125C001A62094B00225A62074B00229A62064B13
:10126C000A22DA62044801F053FD0346002B01D038
:10127C00FFF7CBFF00BF80BD402D002000380040A1
:10128C0080B588B000AF786007F1100300221A60B7
:10129C005A609A60DA607B681B681C4A934231D1B1
:1012AC001B4BDB691A4A43F48043D361184BDB694F
:1012BC0003F48043FB60FB68154B9B69144A43F0B5
:1012CC0008039361124B9B6903F00803BB60BB6876
:1012DC004FF420433B6102237B610323FB6107F145
:1012EC00100319460B4800F003FF4FF480433B6199
:1012FC0000237B610023BB6107F1100319460548ED
:10130C0000F0F6FE00BF2037BD4680BD003800401F
:10131C0000100240000C014080B485B000AF154BAA
:10132C009B69144A43F001039361124B9B6903F0D0
:10133C000103BB60BB680F4BDB690E4A43F0805363
:10134C00D3610C4BDB6903F080537B607B680A4BE9
:10135C005B68FB60FB6823F0E063FB60FB6843F0B9
:10136C000073FB60044AFB68536000BF1437BD4632
:10137C0080BC7047001002400000014080B400AFF8
:10138C00FEE780B400AFFEE780B400AFFEE780B4A8
:10139C0000AFFEE780B400AFFEE780B400AF00BF43
:1013AC00BD4680BC704780B400AF00BFBD4680BC5A
:1013BC00704780B400AF00BFBD4680BC70470000D2
:1013CC0080B500AF1F4B1B6801331E4A13601E4BC8
:1013DC001B685A1C1C490A60B3F57A7F08DD1A4B4E
:1013EC0000221A60194B1B78DB43DAB2174B1A70C8
:1013FC00154B1A68164B83FB02135911D317CB1AD2
:10140C00642101FB03F3D31A002B05D1114B1B797B
:10141C000133DAB20F4B1A710F4B1B68002B04D03F
:10142C000D4B1B68013B0C4A13600C4B1B68002BCB
:10143C0004D00A4B1B68013B084A136000F0B8FB50
:10144C0000BF80BDC82C0020E02C0020CC2C00203C
:10145C001F85EB51C0020020D82C0020DC2C002072
:10146C0080B586B000AFF860B9607A6000237B610C
:10147C000AE0AFF300800146BB685A1CBA60CAB2DE
:10148C001A707B6901337B617A697B689A42F0DB65
:10149C007B6818461837BD4680BD80B586B000AF56
:1014AC00F860B9607A6000237B6109E0BB685A1C64
:1014BC00BA601B78184600F081F87B6901337B61B8
:1014CC007A697B689A42F1DB7B6818461837BD460F
:1014DC0080BD80B483B000AF78604FF0FF33184606
:1014EC000C37BD4680BC704780B483B000AF7860C9
:1014FC0039603B684FF400525A60002318460C3791
:10150C00BD4680BC704780B483B000AF78600123C7
:10151C0018460C37BD4680BC704780B485B000AF10
:10152C00F860B9607A60002318461437BD4680BC59
:10153C007047000080B586B000AF7860144A154B38
:10154C00D31A7B617B693B61134B1B68002B02D167
:10155C00114B124A1A60104B1A687B6813443A6993
:10156C009A4207D204F00CF802460C2313604FF099
:10157C00FF3309E0084B1B68FB60074B1A687B685C
:10158C001344054A1360FB6818461837BD4680BDE6
:10159C00005000200004000054020020302F0020D6
:1015AC0080B400AF034B044A9A6000BFBD4680BCB8
:1015BC00704700BF00ED00E00000010880B582B06C
:1015CC0000AF7860391D64230122044802F059F9F8
:1015DC007B6818460837BD4680BD00BF982D00209B
:1015EC0080B500AF114B124A1A60104B4FF4E13228
:1015FC005A600E4B00229A600C4B0022DA600B4BA7
:10160C0000221A61094B0C225A61084B00229A6184
:10161C00064B0022DA61054802F0E6F80346002B7F
:10162C0001D0FFF7F2FD00BF80BD00BF982D002058
:10163C000038014080B588B000AF786007F1100326
:10164C0000221A605A609A60DA607B681B681C4A38
:10165C00934231D11B4B9B691A4A43F480439361EB
:10166C00184B9B6903F48043FB60FB68154B9B692B
:10167C00144A43F004039361124B9B6903F0040377
:10168C00BB60BB684FF400733B6102237B61032397
:10169C00FB6107F1100319460B4800F029FD4FF4CC
:1016AC0080633B6100237B610023BB6107F1100366
:1016BC001946054800F01CFD00BF2037BD4680BD13
:1016CC0000380140001002400008014080B500AF16
:1016DC0000224FF48051024800F07BFE00BF80BD19
:1016EC00000C014080B500AF01224FF4805102483C
:1016FC0000F06FFE00BF80BD000C014080B500AF54
:10170C0000224021074800F064FE022000F06CFA31
:10171C0001224021034800F05CFE0A2000F064FA2C
:10172C0000BF80BD000C014080B582B000AF786076
:10173C000B467B807A884FF0FF337968034801F0C1
:10174C00A7FC00BF0837BD4680BD00BF402D002060
:10175C0080B582B000AF78600B467B807A884FF002
:10176C00FF337968034801F057FB00BF0837BD46CB
:10177C0080BD00BF402D002080B582B000AFFB1DA6
:10178C0001211846FFF7D0FFFB7918460837BD46F4
:10179C0080BD80B582B000AF0346FB71FB1D0121FB
:1017AC001846FFF7D5FF00BF0837BD4680BD0000C7
:1017BC0090B587B000AF1749174803F0BDF917492A
:1017CC00174803F0DDF91749174803F003FAFFF740
:1017DC0095FF00F02FF80346FB75144AFB7D5372FE
:1017EC00124AFB7D5371124B3C1D0FCB84E80F004A
:1017FC003B1D1946012003F017FA0346002B02D0BB
:10180C004FF0FF3302E000F06DF8002318461C3750
:10181C00BD4690BDF1160108D91601089F170108A5
:10182C00851701085D170108351701080C00002009
:10183C005073010890B583B000AF0023FB714FF4D7
:10184C000041264800F0AEFD0346DB015CB24FF4CC
:10185C008041224800F0A6FD03469B015BB2234366
:10186C005CB24FF400511D4800F09CFD03465B0137
:10187C005BB223435CB24FF48051184800F092FDE8
:10188C0003461B015BB223435CB28021144800F079
:10189C0089FD0346DB005BB223435CB24021104858
:1018AC0000F080FD03469B005BB223435CB2202119
:1018BC000B4800F077FD03465B005BB223435CB240
:1018CC001021074800F06EFD03465BB223435BB268
:1018DC00FB71FB7918460C37BD4690BD00100140DA
:1018EC0000080140B0B586B004AF3949002003F0C0
:1018FC007DFA3849012003F079FA3B461946082055
:10190C0003F092F93B461946334803F077FE314B0E
:10191C001B7818462F4B5B781C462E4B9B781D462C
:10192C002C4BDB781A462B4B1B791946294B5B79D0
:10193C000293019100922B4622460146274803F060
:10194C005DFE244B9B791946224BDB791A46214BC1
:10195C001B7A18461F4B5B7A00930346204803F012
:10196C004DFE1C4B9B7B19461A4BDB7B1A46194BC5
:10197C001B7C1846174B5B7C00930346194803F0FD
:10198C003DFE144B9B7A1946124BDB7A1A46114BCF
:10199C001B7B18460F4B5B7B00930346124803F0EE
:1019AC002DFE0C4B9B7C19460A4BDB7C1A46094BD3
:1019BC001B7D1846074B5B7D009303460B4803F0D9
:1019CC001DFE0B4803F08EFE00BF0837BD46B0BDB0
:1019DC000C000020E82E00206073010878730108C9
:1019EC0094730108A8730108BC730108D073010833
:1019FC00E473010880B588B002AFB9607A601A460A
:101A0C000346FB731346BB8100237B6100237B825F
:101A1C0001237B7400233B74FB7B9B000133DB00B5
:101A2C0003F54073184602F097F80346002B3ED09E
:101A3C00222B00D04AE000233B7434E0FB7B184699
:101A4C0002F02FFA03467B827B8A002B23D07A8A02
:101A5C007B691344B3F5806F04D37B699BB2C3F5E8
:101A6C0080637B82BA687B69D1187A8AF87B07F12C
:101A7C000C0300937B6802F019FE03461A467B693F
:101A8C0013447B6101233B747B69B3F5806F0AD3EC
:101A9C0000237B7407E000237B743B7C002B02D17A
:101AAC00012000F0A1F87B7C002BC7D10EE0BA8995
:101ABC00F87B0023022102F03FFB03467B61FB7B9A
:101ACC007A699A4201D07B6901E000BF7B691846B4
:101ADC001837BD4680BD00000C480D490D4A002347
:101AEC0002E0D458C4500433C4188C42F9D30A4AC7
:101AFC000A4C002301E013600432A242FBD3FFF72F
:101B0C004FFD03F043FDFFF7DFFA704700000020A4
:101B1C0028020020FC750108280200202C2F002030
:101B2C00FEE7000080B500AF084B1B68074A43F086
:101B3C0010031360032000F029F9002000F008F8CE
:101B4C00FFF7EAFB0023184680BD00BF00200240CF
:101B5C0080B582B000AF7860124B1A68124B1B78BC
:101B6C0019464FF47A73B3FBF1F3B2FBF3F3184657
:101B7C0000F033F90346002B01D001230EE07B6803
:101B8C000F2B0AD8002279684FF0FF3000F009F9CA
:101B9C00064A7B681360002300E0012318460837CF
:101BAC00BD4680BD0000002028000020240000203D
:101BBC0080B400AF054B1B781A46054B1B681344C9
:101BCC00034A136000BFBD4680BC7047280000204C
:101BDC00002F002080B400AF024B1B681846BD4696
:101BEC0080BC7047002F002080B584B000AF7860B7
:101BFC00FFF7F0FFB8607B68FB60FB68B3F1FF3F59
:101C0C0005D0094B1B781A46FB681344FB6000BFD8
:101C1C00FFF7E0FF0246BB68D31AFA689A42F7D87E
:101C2C0000BF1037BD4680BD2800002080B485B0B1
:101C3C0000AF78607B6803F00703FB600C4BDB683C
:101C4C00BB60BA684FF6FF031340BB60FB681A0217
:101C5C00BB68134343F0BF6343F40033BB60044AD7
:101C6C00BB68D36000BF1437BD4680BC704700BF53
:101C7C0000ED00E080B400AF044BDB681B0A03F0FE
:101C8C0007031846BD4680BC704700BF00ED00E05E
:101C9C0080B483B000AF03463960FB7197F907300D
:101CAC00002B0ADB3B68DAB20C4997F907301201BA
:101CBC00D2B20B4483F800230AE03B68DAB208493D
:101CCC00FB7903F00F03043B1201D2B20B441A76DA
:101CDC0000BF0C37BD4680BC704700BF00E100E080
:101CEC0000ED00E080B489B000AFF860B9607A60B4
:101CFC00FB6803F00703FB61FB69C3F10703042BCB
:101D0C0028BF0423BB61FB690433062B02D9FB6992
:101D1C00033B00E000237B614FF0FF32BB6902FA0A
:101D2C0003F3DA43BB681A407B699A404FF0FF31EA
:101D3C007B6901FA03F3D9437B680B4013431846C4
:101D4C002437BD4680BC704780B582B000AF786048
:101D5C007B68013BB3F1807F01D301230FE00A4A7A
:101D6C007B68013B53600F214FF0FF30FFF790FF72
:101D7C00054B00229A60044B07221A600023184678
:101D8C000837BD4680BD00BF10E000E080B582B0D2
:101D9C0000AF78607868FFF749FF00BF0837BD4691
:101DAC0080BD80B586B000AF0346B9607A60FB7326
:101DBC0000237B61FFF75EFF78617A68B968786908
:101DCC00FFF790FF024697F90F3011461846FFF7C0
:101DDC005FFF00BF1837BD4680BD80B582B000AF35
:101DEC0078607868FFF7B0FF034618460837BD46A1
:101DFC0080BD000080B483B000AF0023FB710D4B9D
:101E0C001B6903F08003002B0DD00A4B0A4A5A6061
:101E1C00084B0A4A5A60074B1B6903F08003002BDE
:101E2C0001D00123FB71FB7918460C37BD4680BCF1
:101E3C00704700BF0020024023016745AB89EFCDFE
:101E4C0080B400AF054B1B69044A43F08003136157
:101E5C0000231846BD4680BC704700BF00200240DE
:101E6C0080B400AF024BDB691846BD4680BC70479E
:101E7C00082F002080B584B000AF7860FFF7AAFE71
:101E8C00F86010E07B68B3F1FF3F0CD07B68002B4F
:101E9C0007D0FFF79FFE0246FB68D31A7A689A4276
:101EAC0001D2032325E0154BDB6803F00103002B63
:101EBC00E8D1124BDB6803F02003002B02D00F4B50
:101ECC002022DA600D4BDB6803F01003002B0BD1E2
:101EDC000A4BDB6903F00103002B05D1074BDB68D0
:101EEC0003F00403002B03D000F00AF8012300E0F8
:101EFC00002318461037BD4680BD00BF00200240AD
:101F0C0080B483B000AF00237B60234BDB6803F00D
:101F1C001003002B09D0214BDB6943F002031F4A4D
:101F2C00D3617B6843F010037B601B4BDB6803F0D1
:101F3C000403002B09D0194BDB6943F00103174A4A
:101F4C00D3617B6843F004037B60134BDB6903F0C4
:101F5C000103002B0BD0114BDB6943F004030F4A38
:101F6C00D3610D4BDB690C4A23F00103D3617B6811
:101F7C0040F20112934206D1074BDB69064A23F06B
:101F8C000103D36102E0044A7B68D36000BF0C37C5
:101F9C00BD4680BC704700BF00200240082F0020C7
:101FAC0080B584B000AF786039600123FB730023E7
:101FBC00BB602F4B1B7E012B01D1022353E02C4B1A
:101FCC0001221A767B681B68022B16D14CF250301A
:101FDC00FFF750FF0346002B41D1012000F04CF8D5
:101FEC004CF25030FFF746FF0346FB73214B1B6945
:101FFC00204A23F00403136131E04CF25030FFF718
:10200C0039FF0346002B2AD13B684FF0FF321A6090
:10201C007B689B68BB6019E0B86800F049F84CF22B
:10202C005030FFF727FF0346FB73124B1B69114A15
:10203C0023F002031361FB7B002B03D03B68BA68CF
:10204C001A600CE0BB6803F58063BB607B68DB68DF
:10205C009A027B689B681344BA689A42DCD3044B9F
:10206C0000221A76FB7B18461037BD4680BD00BF98
:10207C00082F00200020024080B483B000AF7860AD
:10208C00094B0022DA61094B1B69084A43F004032F
:10209C001361064B1B69054A43F04003136100BFF3
:1020AC000C37BD4680BC7047082F00200020024032
:1020BC0080B483B000AF78600B4B0022DA610B4B1D
:1020CC001B690A4A43F002031361084A7B68536197
:1020DC00064B1B69054A43F04003136100BF0C37E4
:1020EC00BD4680BC704700BF082F00200020024076
:1020FC0080B48BB000AF7860396000237B62002322
:10210C003B6227E101227B6A02FA03F3FB613B6825
:10211C001B68FA691340BB61BA69FB699A4240F0CB
:10212C0016813B685B68122B34D0122B0DD8022B16
:10213C002BD0022B04D8002B31D0012B1CD048E023
:10214C00032B43D0112B1BD043E0894A934226D05A
:10215C00874A934206D8874A934220D0864A9342B4
:10216C001DD036E0854A934219D0854A934216D049
:10217C00844A934213D02CE03B68DB683B6228E036
:10218C003B68DB6804333B6223E03B68DB68083365
:10219C003B621EE03B68DB680C333B6219E03B683A
:1021AC009B68002B02D104233B6212E03B689B68C6
:1021BC00012B05D108233B627B68FA691A6108E0A0
:1021CC0008233B627B68FA695A6102E000233B6298
:1021DC0000BFBB69FF2B01D87B6801E07B6804332F
:1021EC007B61BB69FF2B02D87B6A9B0002E07B6A98
:1021FC00083B9B003B617B691A680F213B6901FA24
:10220C0003F3DB431A40396A3B6901FA03F31A43BF
:10221C007B691A603B685B6803F08053002B00F00D
:10222C009680594B9B69584A43F001039361564B76
:10223C009B6903F00103BB60BB68544A7B6A9B0833
:10224C00023352F82330FB607B6A03F003039B00DC
:10225C000F2202FA03F3DB43FA681340FB607B683E
:10226C004B4A934213D07B684A4A93420DD07B6809
:10227C00494A934207D07B68484A934201D10323D1
:10228C0006E0042304E0022302E0012300E0002323
:10229C007A6A02F0030292009340FA681343FB60DF
:1022AC003A497B6A9B080233FA6841F823203B6861
:1022BC005B6803F48033002B06D0394B1A6838491D
:1022CC00BB6913430B6006E0354B1A68BB69DB43F3
:1022DC00334913400B603B685B6803F40033002BFD
:1022EC0006D02F4B5A682E49BB6913434B6006E04E
:1022FC002B4B5A68BB69DB43294913404B603B6845
:10230C005B6803F48013002B06D0254B9A68244994
:10231C00BB6913438B6006E0214B9A68BB69DB43B6
:10232C001F4913408B603B685B6803F40013002B60
:10233C0006D01B4BDA681A49BB691343CB6006E025
:10234C00174BDA68BB69DB4315491340CB607B6ADA
:10235C0001337B623B681A687B6A22FA03F3002B19
:10236C007FF4D0AE00BF2C37BD4680BC704700BF99
:10237C00000021100000111000001210000031109C
:10238C00000032100000221000100240000001403A
:10239C0000080140000C01400010014000140140F5
:1023AC000004014080B485B000AF78600B467B80A0
:1023BC007B689A687B881340002B02D00123FB7347
:1023CC0001E00023FB73FB7B18461437BD4680BC31
:1023DC00704780B483B000AF78600B467B801346A7
:1023EC007B707B78002B03D07A887B681A6103E0C2
:1023FC007B881A047B681A6100BF0C37BD4680BC11
:10240C00704780B485B000AF78600B467B807B68EA
:10241C00DB68FB607A88FB6813401A04FB68D943BD
:10242C007B880B401A437B681A6100BF1437BD468A
:10243C0080BC704780B584B000AF78607B68002B9F
:10244C0001D1012334E07B681B684CF6CC421A6046
:10245C007B681B6845F255521A607B681B687A686A
:10246C0052685A607B681B687A6892689A60FFF7BA
:10247C00B1FBF8600FE0FFF7ADFB0246FB68D31A27
:10248C00272B08D97B681B68DB6803F00303002B40
:10249C0001D003230CE07B681B68DB6803F00303AB
:1024AC00002BE8D17B681B684AF6AA221A6000232D
:1024BC0018461037BD4680BD80B483B000AF78603D
:1024CC007B681B684AF6AA221A60002318460C3750
:1024DC00BD4680BC7047000080B586B000AF786008
:1024EC007B68002B01D101236CE27B681B6803F035
:1024FC000103002B00F08780924B5B6803F00C0308
:10250C00042B0CD08F4B5B6803F00C03082B12D1FF
:10251C008C4B5B6803F48033B3F5803F0BD1894B54
:10252C001B6803F40033002B6CD07B685B68002BBA
:10253C0068D1012346E27B685B68B3F5803F06D126
:10254C00804B1B687F4A43F4803313602EE07B681A
:10255C005B68002B0CD17B4B1B687A4A23F48033CD
:10256C001360784B1B68774A23F4802313601DE0BB
:10257C007B685B68B3F5A02F0CD1724B1B68714A5A
:10258C0043F4802313606F4B1B686E4A43F4803313
:10259C0013600BE06B4B1B686A4A23F480331360A7
:1025AC00684B1B68674A23F4802313607B685B6865
:1025BC00002B13D0FFF70EFB386108E0FFF70AFB86
:1025CC0002463B69D31A642B01D90323FAE15D4B14
:1025DC001B6803F40033002BF0D014E0FFF7FAFA79
:1025EC00386108E0FFF7F6FA02463B69D31A642B10
:1025FC0001D90323E6E1534B1B6803F40033002B92
:10260C00F0D100E000BF7B681B6803F00203002BD5
:10261C0063D04C4B5B6803F00C03002B0BD0494B85
:10262C005B6803F00C03082B1CD1464B5B6803F46E
:10263C008033002B16D1434B1B6803F00203002B95
:10264C0005D07B681B69012B01D00123BAE13D4BFE
:10265C001B6823F0F8027B685B69DB003949134384
:10266C000B603AE07B681B69002B20D0364B0122B3
:10267C001A60FFF7AFFA386108E0FFF7ABFA0246D1
:10268C003B69D31A022B01D903239BE12D4B1B6809
:10269C0003F00203002BF0D02A4B1B6823F0F80246
:1026AC007B685B69DB00274913430B6015E0264B05
:1026BC0000221A60FFF78EFA386108E0FFF78AFAF9
:1026CC0002463B69D31A022B01D903237AE11D4B35
:1026DC001B6803F00203002BF0D17B681B6803F02E
:1026EC000803002B3AD07B689B69002B19D0174B41
:1026FC0001221A60FFF76EFA386108E0FFF76AFAF8
:10270C0002463B69D31A022B01D903235AE10D4B24
:10271C005B6A03F00203002BF0D0012000F0DAFA20
:10272C001CE00A4B00221A60FFF754FA38610FE0E4
:10273C00FFF750FA02463B69D31A022B08D9032340
:10274C0040E100BF001002400000424280044242BF
:10275C009E4B5B6A03F00203002BE9D17B681B687C
:10276C0003F00403002B00F0A6800023FB75974BAD
:10277C00DB6903F08053002B0DD1944BDB69934A3A
:10278C0043F08053D361914BDB6903F08053BB6002
:10279C00BB680123FB758E4B1B6803F48073002B05
:1027AC0018D18B4B1B688A4A43F480731360FFF774
:1027BC0011FA386108E0FFF70DFA02463B69D31AAB
:1027CC00642B01D90323FDE0814B1B6803F4807358
:1027DC00002BF0D07B68DB68012B06D17B4B1B6A8E
:1027EC007A4A43F0010313622DE07B68DB68002B0F
:1027FC000CD1764B1B6A754A23F001031362734BA1
:10280C001B6A724A23F0040313621CE07B68DB68CA
:10281C00052B0CD16D4B1B6A6C4A43F004031362FD
:10282C006A4B1B6A694A43F0010313620BE0674B66
:10283C001B6A664A23F001031362644B1B6A634AEA
:10284C0023F0040313627B68DB68002B15D0FFF7C1
:10285C00C1F938610AE0FFF7BDF902463B69D31AAA
:10286C0041F28832934201D90323ABE0574B1B6AE8
:10287C0003F00203002BEED014E0FFF7ABF9386144
:10288C000AE0FFF7A7F902463B69D31A41F28832F6
:10289C00934201D9032395E04C4B1B6A03F00203CE
:1028AC00002BEED1FB7D012B05D1484BDB69474A50
:1028BC0023F08053D3617B68DB69002B00F08180AF
:1028CC00424B5B6803F00C03082B61D07B68DB691F
:1028DC00022B46D13F4B00221A60FFF77BF938617F
:1028EC0008E0FFF777F902463B69D31A022B01D9AE
:1028FC00032367E0354B1B6803F00073002BF0D10A
:10290C007B681B6AB3F5803F08D1304B5B6823F4BE
:10291C0000327B689B682D4913434B602B4B5B68E3
:10292C0023F474127B68196A7B685B6A0B43274932
:10293C0013434B60274B01221A60FFF74BF93861A8
:10294C0008E0FFF747F902463B69D31A022B01D97D
:10295C00032337E01D4B1B6803F00073002BF0D0F2
:10296C002FE01C4B00221A60FFF734F9386108E0A5
:10297C00FFF730F902463B69D31A022B01D9032326
:10298C0020E0124B1B6803F00073002BF0D118E011
:10299C007B68DB69012B01D1012313E00B4B5B68D6
:1029AC00FB60FB6803F480327B681B6A9A4206D199
:1029BC00FB6803F470127B685B6A9A4201D00123B6
:1029CC0000E0002318461837BD4680BD00100240B9
:1029DC00007000406000424280B584B000AF786067
:1029EC0039607B68002B01D10123D0E06A4B1B6856
:1029FC0003F007033A689A4210D9674B1B6823F01F
:102A0C00070265493B6813430B60634B1B6803F07B
:102A1C0007033A689A4201D00123B8E07B681B682F
:102A2C0003F00203002B20D07B681B6803F0040327
:102A3C00002B05D0594B5B68584A43F4E063536054
:102A4C007B681B6803F00803002B05D0534B5B68B5
:102A5C00524A43F460535360504B5B6823F0F002CE
:102A6C007B689B684D4913434B607B681B6803F084
:102A7C000103002B40D07B685B68012B07D1474BCF
:102A8C001B6803F40033002B15D101237FE07B6816
:102A9C005B68022B07D1414B1B6803F00073002BC2
:102AAC0009D1012373E03D4B1B6803F00203002B9B
:102ABC0001D101236BE0394B5B6823F003027B6887
:102ACC005B68364913434B60FFF784F8F8600AE003
:102ADC00FFF780F80246FB68D31A41F28832934222
:102AEC0001D9032353E02D4B5B6803F00C027B6888
:102AFC005B689B009A42EBD1274B1B6803F00703E2
:102B0C003A689A4210D2244B1B6823F007022249E0
:102B1C003B6813430B60204B1B6803F007033A68B8
:102B2C009A4201D0012332E07B681B6803F0040356
:102B3C00002B08D0194B5B6823F4E0627B68DB68E0
:102B4C00164913434B607B681B6803F00803002B8A
:102B5C0009D0124B5B6823F460527B681B69DB0065
:102B6C000E4913434B6000F021F801460B4B5B6898
:102B7C001B0903F00F030A4AD35C21FA03F3094A39
:102B8C001360094B1B681846FEF7E2FF002318463A
:102B9C001037BD4680BD00BF00200240001002402F
:102BAC001C740108000000202400002090B48AB09E
:102BBC0000AF2A4B3C1D0FCB84E80F00284B1B8821
:102BCC003B800023FB610023BB6100237B6200235D
:102BDC007B6100233B62234B5B68FB61FB6903F069
:102BEC000C03042B02D0082B03D02DE01E4B3B62B0
:102BFC002DE0FB699B0C03F00F0307F12802134433
:102C0C0013F8243C7B61FB6903F48033002B13D055
:102C1C00144B5B685B0C03F0010307F128021344AF
:102C2C0013F8283CBB617B690F4A02FB03F2BB69BA
:102C3C00B2FBF3F37B6204E07B690C4A02FB03F307
:102C4C007B627B6A3B6202E0074B3B6200BF3B6AE4
:102C5C0018462837BD4690BC704700BFFC7301086E
:102C6C000C7401080010024000127A0000093D00AB
:102C7C0080B400AF024B1B681846BD4680BC704741
:102C8C000000002080B500AFFFF7F2FF0146054BB6
:102C9C005B681B0A03F00703034AD35C21FA03F3B6
:102CAC00184680BD001002402C74010880B500AF9E
:102CBC00FFF7DEFF0146054B5B68DB0A03F00703F9
:102CCC00034AD35C21FA03F3184680BD001002407E
:102CDC002C74010880B485B000AF78600A4B1B6877
:102CEC000A4AA2FB03235B0A7A6802FB03F3FB602C
:102CFC0000BFFB685A1EFA60002BF9D100BF1437D5
:102D0C00BD4680BC704700BF00000020D34D621050
:102D1C0080B582B000AF78607B68002B01D10123B5
:102D2C0076E07B685B6A002B08D17B685B68B3F547
:102D3C00827F09D07B680022DA6105E07B68002283
:102D4C001A617B6800225A617B6800229A627B6858
:102D5C0093F85130DBB2002B06D17B68002283F84C
:102D6C0050207868FEF78CFA7B68022283F8512099
:102D7C007B681B681A687B681B6822F040021A602B
:102D8C007B685B6803F482727B689B6803F4044382
:102D9C001A437B68DB6803F400631A437B681B6986
:102DAC0003F002031A437B685B6903F001031A43C7
:102DBC007B689B6903F400731A437B68DB6903F03F
:102DCC0038031A437B681B6A03F0800342EA030151
:102DDC007B689B6A03F400527B681B680A431A6089
:102DEC007B689B691A0C7B681B6802F004025A60B2
:102DFC007B681B68DA697B681B6822F40062DA6105
:102E0C007B6800225A657B68012283F851200023DD
:102E1C0018460837BD4680BD80B588B000AFF86055
:102E2C00B9603B601346FB800023FB77FB6893F88B
:102E3C005030012B01D1022326E1FB68012283F8DB
:102E4C005020FEF7C7FEB861FB88FB82FB6893F845
:102E5C005130DBB2012B02D00223FB770BE1BB68B4
:102E6C00002B02D0FB88002B02D10123FB7702E15F
:102E7C00FB68032283F85120FB6800225A65FB682B
:102E8C00BA681A63FB68FA889A86FB68FA88DA864D
:102E9C00FB6800229A63FB6800229A87FB68002279
:102EAC00DA87FB6800225A64FB6800221A64FB680C
:102EBC009B68B3F5004F0FD1FB681B681A68FB6861
:102ECC001B6822F040021A60FB681B681A68FB68DA
:102EDC001B6842F480421A60FB681B681B6803F095
:102EEC004003402B07D0FB681B681A68FB681B6803
:102EFC0042F040021A60FB68DB68B3F5006F4BD1FF
:102F0C00FB685B68002B02D0FB8A012B3ED1FB686F
:102F1C001B6B1A88FB681B68DA60FB681B6B9A1CBE
:102F2C00FB681A63FB68DB8E9BB2013B9AB2FB68B1
:102F3C00DA862BE0FB681B689B6803F00203022B0C
:102F4C0012D1FB681B6B1A88FB681B68DA60FB6884
:102F5C001B6B9A1CFB681A63FB68DB8E9BB2013BF4
:102F6C009AB2FB68DA8611E0FEF734FE0246BB69C2
:102F7C00D31A3A689A4203D83B68B3F1FF3F02D1A7
:102F8C003B68002B02D10323FB7774E0FB68DB8EDC
:102F9C009BB2002BCED14CE0FB685B68002B02D0BF
:102FAC00FB8A012B40D1FB681A6BFB681B680C3346
:102FBC0012781A70FB681B6B5A1CFB681A63FB684F
:102FCC00DB8E9BB2013B9AB2FB68DA862CE0FB6885
:102FDC001B689B6803F00203022B13D1FB681A6B6E
:102FEC00FB681B680C3312781A70FB681B6B5A1C3D
:102FFC00FB681A63FB68DB8E9BB2013B9AB2FB68E1
:10300C00DA8611E0FEF7E6FD0246BB69D31A3A6890
:10301C009A4203D83B68B3F1FF3F02D13B68002BC7
:10302C0002D10323FB7726E0FB68DB8E9BB2002BDF
:10303C00CDD1BA693968F86800F0B8FB0346002BAB
:10304C0002D0FB6820225A65FB689B68002B0AD1D2
:10305C0000233B61FB681B68DB683B61FB681B68FA
:10306C009B683B613B69FB685B6D002B02D00123C5
:10307C00FB7700E000BFFB68012283F85120FB685E
:10308C00002283F85020FB7F18462037BD4680BDB8
:10309C0080B588B002AFF860B9603B601346FB8026
:1030AC000023FB75FB685B68B3F5827F12D1FB686C
:1030BC009B68002B0ED1FB68042283F85120FA8800
:1030CC003B6800931346BA68B968F86800F0F1F8E9
:1030DC000346EAE0FB6893F85030012B01D1022340
:1030EC00E3E0FB68012283F85020FEF773FD3861A2
:1030FC00FB6893F85130DBB2012B02D00223FB7535
:10310C00CAE0BB68002B02D0FB88002B02D1012344
:10311C00FB75C1E0FB68042283F85120FB68002298
:10312C005A65FB68BA689A63FB68FA889A87FB68E9
:10313C00FA88DA87FB6800221A63FB6800229A86F9
:10314C00FB680022DA86FB6800221A64FB68002206
:10315C005A64FB689B68B3F5004F0FD1FB681B6882
:10316C001A68FB681B6822F040021A60FB681B6837
:10317C001A68FB681B6822F480421A60FB681B68A3
:10318C001B6803F04003402B07D0FB681B681A68D0
:10319C00FB681B6842F040021A60FB68DB68002B7E
:1031AC0062D12EE0FB681B689B6803F00103012BC6
:1031BC0015D1FB681B6803F10C02FB689B6B127842
:1031CC00D2B21A70FB689B6B5A1CFB689A63FB6843
:1031DC00DB8F9BB2013B9AB2FB68DA8711E0FEF7FA
:1031EC00F9FC02463B69D31A3A689A4203D83B6809
:1031FC00B3F1FF3F02D13B68002B02D10323FB75D7
:10320C004AE0FB68DB8F9BB2002BCBD131E0FB6833
:10321C001B689B6803F00103012B13D1FB681B682F
:10322C00DA68FB689B6B92B21A80FB689B6B9A1CEA
:10323C00FB689A63FB68DB8F9BB2013B9AB2FB681D
:10324C00DA8711E0FEF7C6FC02463B69D31A3A68EE
:10325C009A4203D83B68B3F1FF3F02D13B68002B85
:10326C0002D10323FB7517E0FB68DB8F9BB2002BAD
:10327C00CDD13A693968F86800F046FA0346002B5C
:10328C0002D0FB6820225A65FB685B6D002B02D0D4
:10329C000123FB7500E000BFFB68012283F851207D
:1032AC00FB68002283F85020FB7D18461837BD467A
:1032BC0080BD80B58CB000AFF860B9607A607B805F
:1032CC000123FB62002387F82B30FB6893F8503006
:1032DC00012B01D102238AE1FB68012283F85020E3
:1032EC00FEF778FC7862FB6893F8513087F823304E
:1032FC00FB685B68FB617B887B8397F82330012B31
:10330C000FD0FB69B3F5827F07D1FB689B68002B5C
:10331C0003D197F82330042B03D0022387F82B30EA
:10332C005BE1BB68002B05D07B68002B02D07B884F
:10333C00002B03D1012387F82B304EE1FB6893F867
:10334C005130DBB2042B03D0FB68052283F85120EB
:10335C00FB6800225A65FB687A689A63FB687A8876
:10336C00DA87FB687A889A87FB68BA681A63FB6805
:10337C007A88DA86FB687A889A86FB6800221A6457
:10338C00FB6800225A64FB681B681B6803F040034F
:10339C00402B07D0FB681B681A68FB681B6842F05F
:1033AC0040021A60FB68DB68B3F5006F78D1FB68EC
:1033BC005B68002B02D07B8B012B66D1FB681B6BEF
:1033CC001A88FB681B68DA60FB681B6B9A1CFB682D
:1033DC001A63FB68DB8E9BB2013B9AB2FB68DA8600
:1033EC0053E0FB681B689B6803F00203022B1BD1A4
:1033FC00FB68DB8E9BB2002B16D0FB6A012B13D122
:10340C00FB681B6B1A88FB681B68DA60FB681B6B1C
:10341C009A1CFB681A63FB68DB8E9BB2013B9AB269
:10342C00FB68DA860023FB62FB681B689B6803F071
:10343C000103012B19D1FB68DB8F9BB2002B14D03D
:10344C00FB681B68DA68FB689B6B92B21A80FB689E
:10345C009B6B9A1CFB689A63FB68DB8F9BB2013BEE
:10346C009AB2FB68DA870123FB62FEF7B3FB0246D4
:10347C007B6AD31ABA6B9A4207D8BB6BB3F1FF3F86
:10348C0003D0032387F82B30A7E0FB68DB8E9BB2BD
:10349C00002BA6D1FB68DB8F9BB2002BA1D17CE06B
:1034AC00FB685B68002B02D07B8B012B6BD1FB681C
:1034BC001A6BFB681B680C3312781A70FB681B6B59
:1034CC005A1CFB681A63FB68DB8E9BB2013B9AB2F9
:1034DC00FB68DA8657E0FB681B689B6803F0020305
:1034EC00022B1CD1FB68DB8E9BB2002B17D0FB6A26
:1034FC00012B14D1FB681A6BFB681B680C33127818
:10350C001A70FB681B6B5A1CFB681A63FB68DB8E1A
:10351C009BB2013B9AB2FB68DA860023FB62FB6824
:10352C001B689B6803F00103012B19D1FB68DB8F2F
:10353C009BB2002B14D0FB681B68DA68FB689B6B92
:10354C00D2B21A70FB689B6B5A1CFB689A63FB68BF
:10355C00DB8F9BB2013B9AB2FB68DA870123FB62DB
:10356C00FEF738FB02467B6AD31ABA6B9A4203D831
:10357C00BB6BB3F1FF3F02D1BB6B002B03D1032319
:10358C0087F82B3029E0FB68DB8E9BB2002BA2D195
:10359C00FB68DB8F9BB2002B9DD17A6AB96BF86804
:1035AC0000F004F90346002B06D0012387F82B30DA
:1035BC00FB6820225A6510E0FB689B68002B0BD13E
:1035CC0000237B61FB681B68DB687B61FB681B6805
:1035DC009B687B617B6900E000BFFB68012283F87C
:1035EC005120FB68002283F8502097F82B301846A6
:1035FC003037BD4680BD000080B588B000AFF860A4
:10360C00B9603B601346FB71FEF7E4FA0246BB6AF5
:10361C009B1A3A681344FB61FEF7DCFAB861394B2C
:10362C001B685B011B0DFA6902FB03F37B6154E021
:10363C003B68B3F1FF3F50D0FEF7CCFA0246BB69B2
:10364C00D31AFA699A4202D9FB69002B3DD1FB6867
:10365C001B685A68FB681B6822F0E0025A60FB6822
:10366C005B68B3F5827F11D1FB689B68B3F5004FA3
:10367C0004D0FB689B68B3F5806F07D1FB681B68AF
:10368C001A68FB681B6822F040021A60FB689B6A90
:10369C00B3F5005F0FD1FB681B681A68FB681B68E9
:1036AC0022F400521A60FB681B681A68FB681B68DE
:1036BC0042F400521A60FB68012283F85120FB6827
:1036CC00002283F85020032317E07B69002B01D1E3
:1036DC000023FB617B69013B7B61FB681B689A687B
:1036EC00BB681340BA689A420CBF01230023DBB2BB
:1036FC001A46FB799A429BD1002318462037BD46C7
:10370C0080BD00BF0000002080B586B002AFF8601D
:10371C00B9607A60FB685B68B3F5827F11D1FB6896
:10372C009B68B3F5004F04D0FB689B68B3F5806FC2
:10373C0007D1FB681B681A68FB681B6822F0400203
:10374C001A60FB685B68B3F5827F17D1FB689B68D6
:10375C00B3F5806F12D17B680093BB680022012106
:10376C00F868FFF749FF0346002B1AD0FB685B6D26
:10377C0043F02002FB685A65032313E07B68009337
:10378C00BB6800228021F868FFF736FF0346002B48
:10379C0007D0FB685B6D43F02002FB685A6503237E
:1037AC0000E0002318461037BD4680BD80B586B0BA
:1037BC0002AFF860B9607A607B680093BB68002246
:1037CC008021F868FFF718FF0346002B07D0FB6831
:1037DC005B6D43F02002FB685A65032300E0002375
:1037EC0018461037BD4680BD80B582B000AF7860FA
:1037FC007B68002B01D101233FE07B6893F83D30BF
:10380C00DBB2002B06D17B68002283F83C20786861
:10381C00FDF710FF7B68242283F83D207B681B6832
:10382C00DA687B681B6822F40052DA60786800F072
:10383C0005F97B681B681A697B681B6822F4904247
:10384C001A617B681B685A697B681B6822F02A0224
:10385C005A617B681B68DA687B681B6842F400520B
:10386C00DA607B6800221A647B68202283F83D2092
:10387C007B68202283F83E20002318460837BD467B
:10388C0080BD80B58AB002AFF860B9603B6013466A
:10389C00FB8000237B61FB6893F83D30DBB2202B6F
:1038AC007CD1BB68002B02D0FB88002B01D10123FB
:1038BC0075E0FB6893F83C30012B01D102236EE0DC
:1038CC00FB68012283F83C20FB6800221A64FB6829
:1038DC00212283F83D20FEF77DF97861FB68FA8898
:1038EC009A84FB68FA88DA84FB689B68B3F5805F7E
:1038FC0008D1FB681B69002B04D10023FB61BB685A
:10390C00BB6103E0BB68FB610023BB61FB68002269
:10391C0083F83C202AE03B6800937B6900228021DD
:10392C00F86800F040F80346002B01D0032336E082
:10393C00FB69002B0BD1BB691B881A46FB681B6803
:10394C00C2F308025A60BB690233BB6107E0FB6932
:10395C001A78FB681B685A60FB690133FB61FB68D2
:10396C00DB8C9BB2013B9AB2FB68DA84FB68DB8C84
:10397C009BB2002BCFD13B6800937B690022402186
:10398C00F86800F010F80346002B01D0032306E082
:10399C00FB68202283F83D20002300E00223184618
:1039AC002037BD4680BD80B584B000AFF860B960EB
:1039BC003B601346FB712CE0BB69B3F1FF3F28D091
:1039CC00BB69002B07D0FEF705F902463B68D31AFA
:1039DC00BA699A421DD2FB681B68DA68FB681B68DF
:1039EC0022F4D072DA60FB681B685A69FB681B68AA
:1039FC0022F001025A61FB68202283F83D20FB680B
:103A0C00202283F83E20FB68002283F83C2003230D
:103A1C000FE0FB681B681A68BB681340BA689A42CF
:103A2C000CBF01230023DBB21A46FB799A42C3D0A8
:103A3C00002318461037BD4680BD000080B584B009
:103A4C0000AF78607B681B681B6923F440517B686E
:103A5C00DA687B681B680A431A617B689A687B6822
:103A6C001B691A437B685B691343BB607B681B68EB
:103A7C00DB6823F4B05323F00C037A681268B9683E
:103A8C000B43D3607B681B685B6923F440717B68D4
:103A9C009A697B681B680A435A617B681B682C4ACD
:103AAC00934203D1FFF702F9F86002E0FFF7EAF85E
:103ABC00F860FA6813469B0013449A001A447B681A
:103ACC005B689B00B2FBF3F3224AA2FB03235B0966
:103ADC001901FA6813469B0013449A001A447B6838
:103AEC005B689B00B2FBF3F21A4BA3FB02035B096E
:103AFC00642000FB03F3D31A1B013233154AA2FBDB
:103B0C0003235B0903F0F0031944FA6813469B0086
:103B1C0013449A001A447B685B689B00B2FBF3F277
:103B2C000C4BA3FB02035B09642000FB03F3D31AC9
:103B3C001B013233074AA2FB03235B0903F00F027C
:103B4C007B681B680A449A6000BF1037BD4680BD75
:103B5C00003801401F85EB5180B584B000AF786010
:103B6C00224BDB689847214B5B6998471F4B5B6A7C
:103B7C00002B03D01D4B9B6A002B14D11B4B1B6AD3
:103B8C007A68120CD2B210469847184B1B6A7A68A6
:103B9C00120AD2B210469847144B1B6A7A68D2B2FA
:103BAC001046984711E07B681B0CDBB23B737B68BB
:103BBC001B0ADBB27B737B68DBB2BB730B4B9B6A60
:103BCC0007F10C02032110469847084BDB69984714
:103BDC000346FB73054B9B699847044B1B6998473D
:103BEC00FB7B18461037BD4680BD00BF2C00002063
:103BFC0080B584B000AF78600B46FB70224BDB685D
:103C0C009847214B5B6998477B6843F004037B60C2
:103C1C001D4B9B6A002B19D11B4B1B6A7A68120C2B
:103C2C00D2B210469847184B1B6A7A68120AD2B265
:103C3C0010469847144B1B6A7A68D2B210469847C4
:103C4C00114B1B6AFA781046984713E07B681B0CE3
:103C5C00DBB23B737B681B0ADBB27B737B68DBB22A
:103C6C00BB73FB78FB73084B9B6A07F10C020421B6
:103C7C0010469847044B9B699847034B1B69984720
:103C8C0000BF1037BD4680BD2C00002090B587B01A
:103C9C0000AFF860B9601346FB802B4BDB6898478C
:103CAC00294B5B699847284B5B6A002B03D0264B4A
:103CBC009B6A002B26D1244B1B6AFA68120CD2B2D9
:103CCC0010469847204B1B6AFA68120AD2B210466B
:103CDC0098471D4B1B6AFA68D2B2104698470023CE
:103CEC00FB820AE0184BDB69FA8AB9688C18984792
:103CFC0003462370FB8A0133FB82FA8AFB889A42C3
:103D0C00F0D317E0FB681B0CDBB23B74FB681B0A9F
:103D1C00DBB27B74FB68DBB2BB740B4B9B6A07F1A9
:103D2C001002032110469847074B5B6AFA8811462C
:103D3C00B8689847044B9B699847034B1B69984795
:103D4C0000BF1C37BD4690BD2C00002080B586B04E
:103D5C0000AFF860B9601346FB802B4BDB689847CB
:103D6C00294B5B699847FB6843F00403FB60264BC7
:103D7C009B6A002B26D1244B1B6AFA68120CD2B218
:103D8C0010469847204B1B6AFA68120AD2B21046AA
:103D9C0098471D4B1B6AFA68D2B21046984700230D
:103DAC00FB820AE0184B1B6AFA8AB9680A4412783B
:103DBC0010469847FB8A0133FB82FA8AFB889A42A9
:103DCC00F0D317E0FB681B0CDBB23B74FB681B0ADF
:103DDC00DBB27B74FB68DBB2BB740B4B9B6A07F1E9
:103DEC001002032110469847074B9B6AFA8811462C
:103DFC00B8689847044B9B699847034B1B699847D5
:103E0C0000BF1837BD4680BD2C00002090B585B092
:103E1C0000AF0346FB710023FB810023BB81FB79C0
:103E2C009B000133DB0003F500531846FFF794FEAB
:103E3C000346BB81BB891B029CB2FB799B000133FF
:103E4C00DB0003F504531846FFF786FE03469BB2CE
:103E5C002344BB81BB89002B1AD0FB799B00013317
:103E6C00DB0003F500531846FFF776FE0346FB8193
:103E7C00FB891B029CB2FB799B000133DB0003F531
:103E8C0004531846FFF768FE03469BB22344FB819C
:103E9C00FA89BB899A42C2D1FB8918461437BD46B0
:103EAC0090BD90B585B000AF0346FB710023FB813C
:103EBC000023BB81FB799B000133DB0003F5185316
:103ECC001846FFF749FE0346BB81BB891B029CB217
:103EDC00FB799B000133DB0003F51C531846FFF7FD
:103EEC003BFE03469BB22344BB81BB89002B1AD0FB
:103EFC00FB799B000133DB0003F518531846FFF7E1
:103F0C002BFE0346FB81FB891B029CB2FB799B00B9
:103F1C000133DB0003F51C531846FFF71DFE034667
:103F2C009BB22344FB81FA89BB899A42C2D1FB899B
:103F3C0018461437BD4690BD90B585B000AF03460A
:103F4C003960FB711346BB800023FB810023BB60EF
:103F5C00BB88002B48D0FB799B000133DB0003F5B9
:103F6C0010531846FFF7F8FD03469BB21B029CB298
:103F7C00FB799B000133DB0003F514531846FFF764
:103F8C00EBFD03469BB22344FB81FB891B02FA79B0
:103F9C0092000232D2001344BB60BB881A463968C7
:103FAC00B868FFF7D3FEFA89BB881344FB81FB7911
:103FBC009B000133DB0003F510531A46FB891B0AE7
:103FCC009BB2DBB219461046FFF712FEFB799B0041
:103FDC000133DB0003F514531A46FB89DBB2194697
:103FEC001046FFF705FE00E000BF1437BD4690BD3C
:103FFC0090B585B000AF03463960FB711346BB80AA
:10400C000023FB810023BB60BB88002B48D0FB79CD
:10401C009B000133DB0003F520531846FFF79CFD92
:10402C0003469BB21B029CB2FB799B000133DB0065
:10403C0003F524531846FFF78FFD03469BB2234428
:10404C00FB81FB891B02FA7992000332D2001344E4
:10405C00BB60BB881A463968B868FFF717FEFA8947
:10406C00BB881344FB81FB799B000133DB0003F518
:10407C0020531A46FB891B0A9BB2DBB21946104629
:10408C00FFF7B6FDFB799B000133DB0003F52453EE
:10409C001A46FB89DBB219461046FFF7A9FD00E072
:1040AC0000BF1437BD4690BD90B585B000AF034638
:1040BC000A46FB711346BB800023FB81FB799B00F6
:1040CC000133DB0003F520531846FFF745FD03468B
:1040DC009BB21B029CB2FB799B000133DB0003F506
:1040EC0024531846FFF738FD03469BB22344FB814B
:1040FC00FA89BB881344FB81FB799B000133DB00FD
:10410C0003F520531A46FB891B0A9BB2DBB21946F6
:10411C001046FFF76DFDFB799B000133DB0003F5C7
:10412C0024531A46FB89DBB219461046FFF760FD93
:10413C0000BF1437BD4690BD90B585B000AF0446A6
:10414C00084611461A462346FB710346BB710B46C3
:10415C00BB801346FB70FB79082B02D94FF0FF3361
:10416C00F1E0BB79012B04D0012B10DB042B0EDC0E
:10417C0011E007F10C03042219464FF47060FFF7AD
:10418C0085FDFB68002B05D16FF00203DBE06FF0BF
:10419C000403D8E000BFFB7803F00403002B02D02B
:1041AC006FF00503CFE0FB78002B25D0BB79012BFA
:1041BC0002D0022B08D024E0FB7803F02103002B63
:1041CC001CD16FF00503BEE0FB7803F02003002B3D
:1041DC0006D097F90330002B02DB6FF00503B2E039
:1041EC00FB7803F01003002B0AD097F90330002B57
:1041FC0006DB6FF00503A6E000BF02E000BF00E0A5
:10420C0000BFFB79184600F0ADF8FB799B00013339
:10421C00DB00184697F9033023F00F035AB297F9D5
:10422C00063013435BB2DBB21946FFF7E1FCBB88E7
:10423C00002B10D1464B1B885A1C91B2444A11805A
:10424C00BB80434B1B884FF6F072934203D1404B1B
:10425C004FF440421A80FB799B000133DB0003F5DD
:10426C0080631A46BB881B0A9BB2DBB21946104608
:10427C00FFF7BEFCFB799B000133DB0003F5A06369
:10428C001A46BB88DBB219461046FFF7B1FCFB7926
:10429C009B000133DB0003F5807301211846FFF707
:1042AC00A7FC00BFFB799B000133DB0003F5807397
:1042BC001846FFF751FC0346002BF3D1FB79012282
:1042CC0002FA03F31BB2DB431AB2224B1B881BB25C
:1042DC0013401BB29AB21F4B1A80FB7803F00102F9
:1042EC00FB7902FA03F31AB21A4B1B881BB2134365
:1042FC001BB29AB2174B1A80FB79012202FA03F314
:10430C001BB2DB431AB2144B1B881BB213401BB2FB
:10431C009AB2114B1A80FB79104A002122F8131023
:10432C00FB790F4A0021D15400BFFB799B0001336C
:10433C00DB0003F540731846FFF70EFC0346002B19
:10434C00F3D097F9073018461437BD4690BD00BF1F
:10435C002A0000205A0200205C020020600200208B
:10436C007002002080B582B000AF0346FB71FB7970
:10437C00082B02D94FF0FF3355E0FB799B0001333A
:10438C00DB0003F5807310211846FFF731FC00BFEA
:10439C00FB799B000133DB0003F580731846FFF7B4
:1043AC00DBFB0346002BF3D1FB799B000133DB00D5
:1043BC0003F500731F211846FFF71AFCFB79012245
:1043CC0002FA03F31BB2DB431AB2194B1B881BB264
:1043DC0013401BB29AB2164B1A80FB79012202FAD7
:1043EC0003F31BB2DB431AB2124B1B881BB21340F4
:1043FC001BB29AB20F4B1A80FB790F4A002122F89C
:10440C001310FB790D4A0021D15400BFFB799B009E
:10441C000133DB0003F540731846FFF79DFB0346A1
:10442C00002BF3D1012318460837BD4680BD00BFD1
:10443C005A0200205C020020600200207002002062
:10444C0080B586B000AFB9607B600346FB73134642
:10445C00BB810023FB750023BB82FB7B082B02D99D
:10446C004FF0FF331BE1FB7B9B000133DB00184655
:10447C00FFF772FB034603F00F03023B022B02D93A
:10448C006FF004030BE100BFBB89002B02D16FF06E
:10449C000D0304E17B681B783B613B691B027A6866
:1044AC000132127813443B613B691B027A68023279
:1044BC00127813443B613B691B027A680332127811
:1044CC0013443B613B69002B0ED1FB7B9B000133FA
:1044DC00DB001846FFF740FB034603F00403042BF4
:1044EC0002D06FF00B03DAE03B8C002B0ED1FB7B80
:1044FC009B000133DB001846FFF72EFB034603F04D
:10450C000403042B02D06FF00A03C8E0FB7B9B0072
:10451C000133DB0003F540731846FFF71DFB034620
:10452C00FB75FB7D422B08D0FB7D222B05D0FB7D40
:10453C00322B02D06FF00603B1E0FB7B9B00013302
:10454C00DB0003F54063042279681846FFF7FEFB95
:10455C00FB7B9B000133DB0003F580531A463B8C3D
:10456C001B0A9BB2DBB219461046FFF741FBFB7BE3
:10457C009B000133DB0003F588531A463B8CDBB2FE
:10458C0019461046FFF734FBFB7B9B000133DB0025
:10459C0003F5F8531846FFF7DFFA03469BB29B026C
:1045AC00BB82BA89BB8A9A4201D9BB8ABB81FB7B8D
:1045BC001846FFF72BFC0346BB82FB7B9B000133A9
:1045CC00DB0003F540731846FFF7C6FA0346002BD1
:1045DC0002D16FF0030362E0334B1B881A46FB7B5E
:1045EC0042FA03F303F00103002B05D0BA89BB8A0E
:1045FC009A4201D9002352E0BA89BB8A9A4200D967
:10460C00D5E700BFBA89FB7BB9681846FFF794FC65
:10461C00FB7B9B000133DB0003F5807320211846E4
:10462C00FFF7E6FA00BFFB7B9B000133DB0003F5D1
:10463C0080731846FFF790FA0346002BF3D1FB7BEF
:10464C009B000133DB0003F500731846FFF784FA77
:10465C00034603F01F03FB75FB7D03F01003002BD7
:10466C000CD0FB7B9B000133DB0003F500731021A6
:10467C001846FFF7BDFA00BFBB8910E0FB7D03F0C5
:10468C000803002BDBD0FB7B9B000133DB0003F525
:10469C00007308211846FFF7ABFA6FF00C031846AD
:1046AC001837BD4680BD00BF5A02002080B588B0C7
:1046BC0000AFB9607B600346FB731346BB810023DC
:1046CC00FB83FB7B082B02D94FF0FF33D1E1FB7B43
:1046DC009B000133DB001846FFF73EFA03467B775D
:1046EC007B7F03F00F03023B022B02D96FF0040314
:1046FC00BFE100BFBB89002B02D16FF00D03B8E105
:10470C00FB7BB14A32F81330002B28D1FB7B1846C7
:10471C00FFF7C7FB0346FB83FB7B9B000133DB00EE
:10472C0003F540731846FFF717FA0346002B02D126
:10473C006FF003039DE1A54B1B881A46FB7B42FAE5
:10474C0003F303F00103002B04D0FB8B002B01D1EE
:10475C0000238EE1FB8B002B00D1D7E700BF7B7FC2
:10476C0003F00703032B00F0D980042B73D0022B2A
:10477C0040F03C81FB7B944A32F81330002B52D131
:10478C0007F11401FB7B08221846FFF731FCFB7B79
:10479C009B000133DB0003F5807340211846FFF7C3
:1047AC0027FA00BFFB7B9B000133DB0003F5807312
:1047BC001846FFF7D1F90346002BF3D13A7D7B68FD
:1047CC001A707B6801337A7D1A707B680233BA7D6C
:1047DC001A707B680333FA7D1A703B7E9AB2BB6AFF
:1047EC001A80BB6A1B881B029AB27B7E9BB2134455
:1047FC009AB2BB6A1A80BA7EFB7B91B2724A22F8DB
:10480C001310FB7B704A32F813301B0299B2FB7EFB
:10481C009AB2FB7B0A4491B26B4A22F81310FB7BD1
:10482C006B4A8021D154FB7B674A32F81330BA892A
:10483C009A4202D2BB89FB8304E0FB7B624A32F8CA
:10484C001330FB83FB8BBB81FA8BFB7BB96818465F
:10485C00FFF7CEFBD6E0FB7B5B4A32F81330002B24
:10486C0046D107F11401FB7B02221846FFF7C0FB6F
:10487C00FB7B9B000133DB0003F580734021184662
:10488C00FFF7B6F900BFFB7B9B000133DB0003F5A0
:10489C0080731846FFF760F90346002BF3D13A7D7D
:1048AC00FB7B91B2484A22F81310FB7B464A32F844
:1048BC0013301B029AB27B7D9BB213449AB2FB7BE2
:1048CC00023A91B2404A22F81310FB7B3E4A32F86E
:1048DC00133040F2EA52934206D9FB7B1846FFF79D
:1048EC0041FD6FF47A73C4E0FB7B394A8021D154CB
:1048FC00FB7B354A32F81330BA899A4202D2BB8913
:10490C00FB8304E0FB7B304A32F81330FB83FA8BD9
:10491C00FB7BB9681846FFF76BFB73E0FB7B2A4AFD
:10492C0032F81330002B44D107F11401FB7B062223
:10493C001846FFF75DFBFB7B9B000133DB0003F5A7
:10494C00807340211846FFF753F900BFFB7B9B0097
:10495C000133DB0003F580731846FFF7FDF80346BF
:10496C00002BF3D13A7D7B681A707B6801337A7D1A
:10497C001A707B680233BA7D1A707B680333FA7D38
:10498C001A703A7EFB7B91B20F4A22F81310FB7B14
:10499C000D4A32F813301B0299B27B7E9AB2FB7B24
:1049AC000A4491B2084A22F81310FB7B084A802172
:1049BC00D154FB7B044A32F81330BA899A4209D29B
:1049CC00BB89FB830BE000BF600200205A02002071
:1049DC0070020020FB7B294A32F81330FB83FA8BE0
:1049EC00FB7BB9681846FFF703FB0BE0FA8BFB7BEC
:1049FC0011461846FFF758FBFB7B2049FA8B21F830
:104A0C00132000BFFB7B9B000133DB0003F580739D
:104A1C0040211846FFF7ECF800BFFB7B9B000133ED
:104A2C00DB0003F580731846FFF796F80346002B5E
:104A3C00F3D1FB7B114A32F81310FB7BFA8B8A1AE9
:104A4C0091B20E4A22F81310FB7B0C4A32F8133049
:104A5C00002B09D0FB7B0A4AD25CFB7B42F00102A3
:104A6C00D1B2074AD15403E0FB7B054A0021D15453
:104A7C00FB8B18462037BD4680BD00BF600200206E
:104A8C007002002080B400AF00BFBD4680BC7047F0
:104A9C0080B400AF00BFBD4680BC704780B400AF8F
:104AAC0000BFBD4680BC704780B400AF00BFBD46A0
:104ABC0080BC704780B483B000AF78607B681B7893
:104ACC00DBB218460C37BD4680BC704780B483B04F
:104ADC0000AF78600B46FB707B68FA781A7000BFE9
:104AEC000C37BD4680BC704780B400AF002318461D
:104AFC00BD4680BC704780B483B000AF0346FB71E9
:104B0C0000BF0C37BD4680BC704780B483B000AF8B
:104B1C0078600B467B8000BF0C37BD4680BC70476D
:104B2C0080B483B000AF78600B467B8000BF0C373D
:104B3C00BD4680BC7047000080B483B000AF786085
:104B4C0039607B68002B02D03B68002B06D1094BE7
:104B5C00094A5A61074B094A9A6105E0054A7B6884
:104B6C005361044A3B68936100BF0C37BD4680BC5F
:104B7C00704700BF2C000020A94A0108B54A010863
:104B8C0080B483B000AF7860396000BF0E4B1B88D7
:104B9C0003F40073002BF9D07B68002B02D03B6828
:104BAC00002B06D1084B094ADA61074B084A1A62F6
:104BBC0005E0054A7B68D361034A3B68136200BF7A
:104BCC000C37BD4680BC70472C000020F54A01080C
:104BDC00034B010880B483B000AF7860396000BF2C
:104BEC000E4B1B8803F40073002BF9D07B68002B51
:104BFC0002D03B68002B06D1084B094A5A62074B7E
:104C0C00084A9A6205E0054A7B685362034A3B688E
:104C1C00936200BF0C37BD4680BC70472C0000204F
:104C2C00174B01082D4B010890B587B000AF034618
:104C3C003960FB710023FB750023FB6000233B6193
:104C4C00FB790F2B00F2C78001A252F823F000BFB2
:104C5C009D4C0108A34C0108CF4C0108C34C010822
:104C6C00DD4C0108E94C0108F74C01081D4D010809
:104C7C00434D0108874D01088D4D0108954D0108E4
:104C8C00E94D01089D4D0108AB4D0108C74D0108C8
:104C9C0000F0EAF8A3E03B68002B04D03B68FB6013
:104CAC00FB6808333B61FB683A691146184600F013
:104CBC0027F9034694E03B681B88184600F0ACF9D2
:104CCC008DE000F0DCF903461A463B681A8086E05A
:104CDC003B681B88184600F0F7F980E000F00FFAEB
:104CEC0003461A463B681A8079E03B681B881B0A0E
:104CFC009BB2DBB219464FF49850FEF779FF3B6834
:104D0C001B88DBB219464FF4A050FEF771FF66E02A
:104D1C004FF49850FEF720FF03469BB21B029CB247
:104D2C004FF4A050FEF718FF03469BB223449AB2EF
:104D3C003B681A8053E02C4B9A783B681A703B689E
:104D4C000133294AD2781A703B680233264A127909
:104D5C001A703B680333244A52791A703B68043347
:104D6C00214A92791A703B6805331F4AD2791A701E
:104D7C003B68063300221A7031E000F012FA2EE084
:104D8C00386800F035FA2AE0386800F073FA26E04B
:104D9C003B681B78184600F0B6FA034620E000F09A
:104DAC00E7F90346FB75FB7DFF2B02D14FF0FF3378
:104DBC0016E03B68FA7D1A7011E000F0C3F9034667
:104DCC00FB75FB7DFF2B02D14FF0FF3308E03B68F6
:104DDC00FA7D1A7003E04FF0FF3301E000BF0023AF
:104DEC0018461C37BD4690BD2C00002080B582B003
:104DFC0000AF03463960FB71FB79052B2CD801A25F
:104E0C0052F823F0294E0108314E0108394E0108A1
:104E1C00474E0108554E01085D4E0108386800F0F8
:104E2C00BDFA1CE0386800F0F9FA18E03B681B7812
:104E3C00184600F033FB034612E000F051FB03462A
:104E4C001A463B681A700AE0386800F051FB06E01D
:104E5C00386800F06EFB02E04FF0FF3300E00023F7
:104E6C0018460837BD4680BD80B586B000AF3B1DE7
:104E7C00062219464FF41060FEF708FF07F11403E1
:104E8C00042219464FF48070FEF700FF07F110035F
:104E9C00042219464FF4A060FEF7F8FE07F10C034C
:104EAC00042219464FF47060FEF7F0FE80210020BA
:104EBC00FEF79EFE0020FEF74FFE3B1D0622194614
:104ECC004FF41060FEF742FF07F114030422194659
:104EDC004FF48070FEF73AFF07F1100304221946D5
:104EEC004FF4A060FEF732FF07F10C0304221946C1
:104EFC004FF47060FEF72AFF00BF1837BD4680BD27
:104F0C0080B584B000AF786039600023BB73FFF7C5
:104F1C00ABFF7B68002B3BD00023BB730023FB73E0
:104F2C0015E097F90F307A6813441A78BB7B134459
:104F3C00DBB2BB7397F90E30102B02DD4FF0FF3351
:104F4C0066E097F90F30DBB20133DBB2FB7397F9F4
:104F5C000F30072BE5DD0023FB7315E097F90F30BD
:104F6C009B000133DB0003F5F853184697F90F301B
:104F7C007A6813441B781946FEF73AFE97F90F30FE
:104F8C00DBB20133DBB2FB7397F90F30072BE5DD96
:104F9C003B68002B3BD00023BB730023FB7315E055
:104FAC0097F90F303A6813441A78BB7B1344DBB281
:104FBC00BB7397F90E30102B02DD4FF0FF3327E057
:104FCC0097F90F30DBB20133DBB2FB7397F90F307B
:104FDC00072BE5DD0023FB7315E097F90F309B00E1
:104FEC000133DB0003F5F053184697F90F303A689C
:104FFC0013441B781946FEF7FBFD97F90F30DBB213
:10500C000133DBB2FB7397F90F30072BE5DD00237F
:10501C0018461037BD4680BD80B584B000AF03463E
:10502C00FB80FB88FB73FB881B0A9BB2BB73FB7B6F
:10503C0023F00F03DBB219464FF4A850FEF7D8FD4E
:10504C000023FB7314E0BA7BFB7B42FA03F303F0FF
:10505C000103002B09D0FB7B9B000133DB0003F524
:10506C0000731F211846FEF7C3FDFB7B0133FB7356
:10507C00FB7B072BE7D900BF1037BD4680BD80B541
:10508C0082B000AF0023FB710023BB710023BB80F7
:10509C004FF4A850FEF760FD034623F00F03FB719D
:1050AC004FF4B850FEF758FD0346BB71BB79BB807B
:1050BC00BB881B029AB2FB799BB21344BB80BB88A2
:1050CC0018460837BD4680BD80B584B000AF034696
:1050DC00FB80FB88FB73FB881B0A9BB2BB73FB7BBF
:1050EC0019464FF4B050FEF783FDBB7B19464FF4C5
:1050FC00C050FEF77DFD00BF1037BD4680BD80B5AA
:10510C0082B000AF0023FB710023BB710023BB8076
:10511C004FF4B050FEF720FD0346FB714FF4C05026
:10512C00FEF71AFD0346BB71BB79BB80BB881B0223
:10513C009AB2FB799BB21344BB80BB8818460837E4
:10514C00BD4680BD80B582B000AF0023FB714FF42B
:10515C003850FEF701FD034603F00103002B01D08C
:10516C000123FB7197F9073018460837BD4680BDFF
:10517C0080B582B000AF0023FB714FF43850FEF7BE
:10518C00EBFC034603F03803302B02D10123FB71F7
:10519C0001E00023FB7197F9073018460837BD462C
:1051AC0080BD80B582B000AF4FF43850FEF7D4FC10
:1051BC000346FB71FB7903F07F03FB71FB79194606
:1051CC004FF43850FEF714FD4FF43850FEF7C4FC82
:1051DC000346FB71FB7963F07F03FB71FB79194686
:1051EC004FF43850FEF704FD00BF0837BD4680BDB4
:1051FC0080B584B000AF78600023FB737B681B78AC
:10520C00012B04D1FB7B43F04003FB7303E0FB7BDE
:10521C0023F04003FB737B685B78012B04D1FB7B91
:10522C0043F03803FB7319E07B68DB78012B0DD15D
:10523C007B689B78012B04D1FB7B43F01803FB7339
:10524C000CE0FB7B43F00803FB7307E07B689B7867
:10525C00012B03D1FB7B43F01003FB73FB7B194643
:10526C004FF43850FEF7C4FCFFF79BFF00BF10371C
:10527C00BD4680BD80B584B000AF78600023FB7361
:10528C004FF43850FEF768FC0346FB73FB7B9B1115
:10529C00DBB203F00103DAB27B681A70FB7B03F01C
:1052AC003803202B01D0382B03D17B6801225A7094
:1052BC0003E07B6800225A7000BFFB7B03F03803CD
:1052CC00182B03D0202B01D0102B03D17B6801228B
:1052DC009A7003E07B6800229A7000BFFB7B03F09E
:1052EC003803182B03D0202B01D0082B03D17B685B
:1052FC000122DA7003E07B680022DA7000BF00BF85
:10530C001037BD4680BD80B584B000AF0346FB713D
:10531C000023FB734FF43850FEF71EFC0346FB735F
:10532C00FB7B03F04003002B02D14FF0FF3330E046
:10533C00FB7B23F03803FB73FB79012B04D1FB7B44
:10534C0043F03003FB7303E0FB7B43F03803FB7348
:10535C00FB7B19464FF43850FEF74AFCFFF721FF50
:10536C004FF43850FEF7F8FB0346FB73FB79012B27
:10537C0006D1FB7B03F03003002B08D0002308E0A0
:10538C00FB7B03F03803002B01D0002301E04FF02E
:10539C00FF3318461037BD4680BD000080B582B083
:1053AC0000AF78607B68062219464FF41060FEF758
:1053BC00CDFC7B680E33042219464FF48070FEF747
:1053CC00C5FC7B680A33042219464FF4A060FEF733
:1053DC00BDFC7B680633042219464FF47060FEF75F
:1053EC00B5FC7B689A7C0B4B1A707B68DA7C094B9A
:1053FC005A707B681A7D074B9A707B685A7D054BF7
:10540C00DA707B689A7D044B1A7000BF0837BD4672
:10541C0080BD00BF780200207C02002080B582B0E5
:10542C0000AF78607B68062219464FF41060FEF7D7
:10543C002DFC7B680E33042219464FF48070FEF766
:10544C0025FC7B680A33042219464FF4A060FEF752
:10545C001DFC7B680633042219464FF47060FEF77E
:10546C0015FC0C4B1A787B689A740A4B5A787B683B
:10547C00DA74084B9A787B681A75064BDA787B6875
:10548C005A75054B1A787B689A7500BF0837BD466C
:10549C0080BD00BF780200207C02002080B584B063
:1054AC0000AF0346FB710023FB73FB7923F03A0337
:1054BC00002B02D04FF0FF330EE00020FEF74CFB28
:1054CC000346FB73FA7BFB791343FB73FB7B194697
:1054DC000020FEF78DFB002318461037BD4680BD1B
:1054EC0080B500AF0020FEF737FB0346184680BDA1
:1054FC0080B582B000AF78607B681B7819464FF49A
:10550C00D850FEF775FB7B685B881B0A9BB2DBB23D
:10551C0019464FF4C850FEF76BFB7B685B88DBB217
:10552C0019464FF4D050FEF763FB00BF0837BD4659
:10553C0080BD90B583B000AF78604FF4D850FEF7C3
:10554C000BFB03461A467B681A704FF4C850FEF7E3
:10555C0003FB03469BB21B029CB24FF4D050FEF7E8
:10556C00FBFA03469BB223449AB27B685A8000BF75
:10557C000C37BD4690BD0A22002100F0D7B90000BF
:10558C00014B1868704700BF5800002070B500250B
:10559C000C4E0D4CA41BA410A54209D101F032FEF7
:1055AC0000250A4E0A4CA41BA410A54205D170BDBF
:1055BC0056F8253098470135EEE756F825309847D0
:1055CC000135F2E7F4750108F4750108F47501086A
:1055DC00F875010810B5431E0A44914200D110BD64
:1055EC0011F8014B03F8014FF7E7034602449342CD
:1055FC0000D1704703F8011BF9E700000FB40A4B08
:10560C0013B51C6824B1A36913B9204600F076FBCE
:10561C0005AB049AA1682046019301F05DF802B035
:10562C00BDE8104004B070475800002070B50E461D
:10563C00054618B183690BB900F060FBAB69AC6827
:10564C0013B9284600F05AFB234B9C4217D16C68C7
:10565C00A3891B071DD52369DBB1013EA36816F88E
:10566C00011F013BA360E9B9002B2EDA22460A2167
:10567C00284600F071F9013011D00A2011E0174BC7
:10568C009C4201D1AC68E3E7154B9C4208BFEC6827
:10569C00DEE72146284600F0C3F90028DDD04FF0A4
:1056AC00FF3070BD002B04DAA2699A4206DC0A298D
:1056BC0004D023685A1C22601970CFE72246284672
:1056CC0000F04AF90130C9D1E9E70A2023685A1CD5
:1056DC0022601870E5E700BF58740108787401085F
:1056EC0038740108024B01461868FFF79FBF00BFD2
:1056FC00580000200EB46FF0004100B59CB01DABFB
:10570C0002900690079104910848094953F8042B1C
:10571C000591006802A9019300F014FD0022029B80
:10572C001A701CB05DF804EB03B0704758000020F1
:10573C000802FFFF0EB44FF4017230B59CB01FACE1
:10574C0054F8045BADF8142002900690FAF702FDB1
:10575C000B4B03900B9300230F9314934FF6FF7393
:10576C0007900848ADF816302A46234602A900686F
:10577C00019400F039FE1CB0BDE8304003B0704716
:10578C00B75701085800002010B50C46B1F90E109F
:10579C0001F098FB0028ABBF636DA3891B1823F4A1
:1057AC008053ACBF6365A38110BD002070472DE909
:1057BC00F0411F468B890546DB050C46164605D580
:1057CC0002230022B1F90E1000F034FBA3893246FB
:1057DC0023F48053A381B4F90E103B462846BDE850
:1057EC00F04100F00BB910B50C46B1F90E1000F0F9
:1057FC0021FB431CA38915BF606523F4805343F43C
:10580C008053A38118BFA38110BDB1F90E1000F015
:10581C0075B92DE9F0478046894692461E460F46DB
:10582C003D46089815F8014B00F0F2FA20444378F5
:10583C0013F0080332D12D2C32D101227C78BD1CFF
:10584C00002E5DD0102E09D1302C07D12B7803F00F
:10585C00DF03582B4FD110266C780235002A14BF69
:10586C004FF000416FF000410027B1FBF6FC3846C9
:10587C0006FB1C1EA4F13003092B17D81C46A642AC
:10588C0023DD7B1C07D084451CD301D1A64519DB35
:10589C00012700FB064015F8014BEBE72F46BFE74D
:1058AC002B2C04BFBD1C7C781A46C9E7A4F141031C
:1058BC00192B01D8373CE2E7A4F16103192B04D86A
:1058CC00573CDCE74FF0FF37E5E77B1C08D1222380
:1058DC000846C8F80030BAF1000F07D1BDE8F087D0
:1058EC0002B14042BAF1000FF8D00FB105F1FF3907
:1058FC00CAF80090F2E73024002EAFD10826ADE7AD
:10590C00302CA3D00A26A9E737B5064C064D2468DF
:10591C00246A002C08BF2C460094FFF77AFF03B0D2
:10592C0030BD00BF58000020BC000020084B37B52C
:10593C001C68084D236A002B08BF2B4600931346A6
:10594C000A4601462046FFF764FF03B030BD00BF96
:10595C0058000020BC000020F8B50E461446054641
:10596C0018B183690BB900F0C9F9214B9C422AD1BB
:10597C006C68A369A360A3891A072ED5236963B346
:10598C0023692068F6B2C01A63693746834204DC87
:10599C002146284600F048F928BBA3680130013B9A
:1059AC00A36023685A1C22601E706369834204D072
:1059BC00A389DB0719D50A2E17D12146284600F0FA
:1059CC0033F990B10FE00B4B9C4201D1AC68D0E79E
:1059DC00094B9C4208BFEC68CBE72146284600F0F7
:1059EC001FF80028CCD04FF0FF373846F8BD00BF69
:1059FC0058740108787401083874010838B50546E4
:105A0C00084611460022054C22601A46FBF745FD5C
:105A1C00431C02D1236803B12B6038BD282F002012
:105A2C00324B70B51D6806460C4625B1AB6913B9EF
:105A3C00284600F063F92E4B9C420FD16C68B4F9E8
:105A4C000C309AB215072CD4D00611D4092232602E
:105A5C0043F04003A3814FF0FF303EE0254B9C42C6
:105A6C0001D1AC68EBE7244B9C4208BFEC68E6E73D
:105A7C00510712D5616B41B104F14403994202D034
:105A8C00304600F05FFA00236363A38923F02403FC
:105A9C00A3810023636023692360A38943F0080377
:105AAC00A38123694BB9A38903F42073B3F5007F59
:105ABC0003D02146304600F0F3F9A28912F001031D
:105ACC000CD00023A36063695B42A361236953B9C3
