:020000040800F2
:1000000000000220152F00084D2600085326000886
:10001000592600085F260008652600080000000039
:100020000000000000000000000000006B26000837
:1000300079260008000000008726000895260008A1
:10004000652F0008652F0008652F0008652F000840
:10005000652F0008652F0008652F0008652F000830
:10006000652F0008652F0008652F0008652F000820
:10007000652F0008652F0008652F0008652F000810
:10008000652F0008652F0008652F0008652F000800
:10009000652F0008652F0008652F0008652F0008F0
:1000A000652F0008652F0008652F0008652F0008E0
:1000B000652F0008652F0008652F0008652F0008D0
:1000C000652F0008652F0008652F0008652F0008C0
:1000D000652F0008F5260008652F0008652F000829
:1000E000652F0008652F0008652F0008652F0008A0
:1000F000652F0008652F0008652F0008652F000890
:10010000652F0008652F0008652F0008652F00087F
:10011000652F0008652F0008652F0008652F00086F
:10012000652F0008652F0008652F0008652F00085F
:10013000652F0008652F0008652F0008652F00084F
:10014000652F0008652F0008652F0008652F00083F
:10015000652F0008652F0008652F0008652F00082F
:10016000652F0008652F0008652F0008652F00081F
:10017000652F0008652F0008652F000800000000AB
:08018000652F0008652F00083F
:1001900010B5054C237833B9044B13B10448AFF3C1
:1001A00000800123237010BD2C02002000000000FD
:1001B0005CB4000808B5034B1BB103490348AFF317
:1001C000008008BD00000000300200205CB4000880
:1001D00010F8012B11F8013B012A28BF9A42F7D0F1
:1001E000D01A7047034613F8012B002AFBD1181AC6
:1001F000013870470000000000000000000000000F
:1002000001F0FF01102A2BDB10F0070F08D010F8C7
:10021000013B013A8B422DD010F0070F42B3F6D1CB
:10022000F0B441EA012141EA014122F007047FF0E4
:1002300000070023F0E80256083C85EA010586EA3B
:10024000010685FA47F5A3FA87F586FA47F6A5FA77
:1002500087F68EB9EED1F0BC01F0FF0102F0070283
:1002600032B110F8013B013A83EA010313B1F8D12E
:100270000020704701387047002D06BF354603380F
:10028000073815F0010F07D1013015F4807F02BF48
:10029000013015F4C03F0130F0BC0138704700BF99
:1002A00081F0004102E000BF83F0004330B54FEA27
:1002B00041044FEA430594EA050F08BF90EA020F94
:1002C0001FBF54EA000C55EA020C7FEA645C7FEA27
:1002D000655C00F0E2804FEA5454D4EB5555B8BF4A
:1002E0006D420CDD2C4480EA020281EA030382EABB
:1002F000000083EA010180EA020281EA0303362D4D
:1003000088BF30BD11F0004F4FEA01314FF4801C1F
:100310004CEA113102D0404261EB410113F0004F31
:100320004FEA03334CEA133302D0524263EB4303E8
:1003300094EA050F00F0A780A4F10104D5F1200E86
:100340000DDB02FA0EFC22FA05F2801841F10001E1
:1003500003FA0EF2801843FA05F359410EE0A5F1B5
:1003600020050EF1200E012A03FA0EFC28BF4CF0E6
:10037000020C43FA05F3C01851EBE37101F000459C
:1003800007D54FF0000EDCF1000C7EEB00006EEBA9
:100390000101B1F5801F1BD3B1F5001F0CD3490833
:1003A0005FEA30004FEA3C0C04F101044FEA44528A
:1003B00012F5800F80F09A80BCF1004F08BF5FEA11
:1003C000500C50F1000041EB045141EA050130BDF1
:1003D0005FEA4C0C404141EB010111F4801FA4F194
:1003E0000104E9D191F0000F04BF01460020B1FAE9
:1003F00081F308BF2033A3F10B03B3F120020CDA21
:100400000C3208DD02F1140CC2F10C0201FA0CF0FE
:1004100021FA02F10CE002F11402D8BFC2F1200C63
:1004200001FA02F120FA0CFCDCBF41EA0C01904019
:10043000E41AA2BF01EB0451294330BD6FEA040462
:100440001F3C1CDA0C340EDC04F11404C4F120024D
:1004500020FA04F001FA02F340EA030021FA04F35F
:1004600045EA030130BDC4F10C04C4F1200220FAB6
:1004700002F001FA04F340EA0300294630BD21FAF4
:1004800004F0294630BD94F0000F83F4801306BFBA
:1004900081F480110134013D4EE77FEA645C18BFAE
:1004A0007FEA655C29D094EA050F08BF90EA020F45
:1004B00005D054EA000C04BF1946104630BD91EA3D
:1004C000030F1EBF0021002030BD5FEA545C05D140
:1004D0004000494128BF41F0004130BD14F580047F
:1004E0003CBF01F5801130BD01F0004545F0FE41F3
:1004F00041F470014FF0000030BD7FEA645C1ABF28
:10050000194610467FEA655C1CBF0B46024650EA5E
:10051000013406BF52EA033591EA030F41F400218A
:1005200030BD00BF90F0000F04BF0021704730B510
:100530004FF4806404F132044FF000054FF00001E5
:1005400050E700BF90F0000F04BF0021704730B5A6
:100550004FF4806404F1320410F0004548BF40427B
:100560004FF000013EE700BF42004FEAE2014FEAD0
:1005700031014FEA02701FBF12F07F4393F07F4FAB
:1005800081F06051704732F07F4208BF704793F0AE
:100590007F4F04BF41F40021704730B54FF46074C1
:1005A00001F0004521F000411CE700BF50EA0102C4
:1005B00008BF704730B54FF000050AE050EA01026D
:1005C00008BF704730B511F0004502D5404261EBDD
:1005D00041014FF4806404F132045FEA915C3FF41E
:1005E000D8AE4FF003025FEADC0C18BF03325FEABB
:1005F000DC0C18BF033202EBDC02C2F1200300FA6C
:1006000003FC20FA02F001FA03FE40EA0E0021FA90
:1006100002F11444BDE600BF70B54FF0FF0C4CF47E
:10062000E06C1CEA11541DBF1CEA135594EA0C0F30
:1006300095EA0C0F00F0DEF82C4481EA030621EA6B
:100640004C5123EA4C5350EA013518BF52EA0335A6
:1006500041F4801143F4801338D0A0FB02CE4FF058
:100660000005E1FB02E506F00042E0FB03E54FF088
:100670000006E1FB03569CF0000F18BF4EF0010E80
:10068000A4F1FF04B6F5007F64F5407404D25FEA7C
:100690004E0E6D4146EB060642EAC62141EA55512F
:1006A0004FEAC52040EA5E504FEACE2EB4F1FD0C71
:1006B00088BFBCF5E06F1ED8BEF1004F08BF5FEAEF
:1006C000500E50F1000041EB045170BD06F00046A1
:1006D00046EA010140EA020081EA0301B4EB5C044E
:1006E000C2BFD4EB0C0541EA045170BD41F4801146
:1006F0004FF0000E013C00F3AB8014F1360FDEBF6B
:10070000002001F0004170BDC4F10004203C35DA46
:100710000C341BDC04F11404C4F1200500FA05F3C9
:1007200020FA04F001FA05F240EA020001F000426A
:1007300021F0004110EBD37021FA04F642EB0601E0
:100740005EEA430E08BF20EAD37070BDC4F10C040A
:10075000C4F1200500FA04F320FA05F001FA04F2CE
:1007600040EA020001F0004110EBD37041F10001BA
:100770005EEA430E08BF20EAD37070BDC4F12005C5
:1007800000FA05F24EEA020E20FA04F301FA05F22D
:1007900043EA020321FA04F001F0004121FA04F2D5
:1007A00020EA020000EBD3705EEA430E08BF20EAA5
:1007B000D37070BD94F0000F0FD101F000464000DF
:1007C00041EB010111F4801F08BF013CF7D041EA61
:1007D000060195F0000F18BF704703F00046520065
:1007E00043EB030313F4801F08BF013DF7D043EA36
:1007F0000603704794EA0C0F0CEA135518BF95EAEC
:100800000C0F0CD050EA410618BF52EA4306D1D172
:1008100081EA030101F000414FF0000070BD50EA91
:10082000410606BF1046194652EA430619D094EA1B
:100830000C0F02D150EA013613D195EA0C0F05D105
:1008400052EA03361CBF104619460AD181EA030159
:1008500001F0004141F0FE4141F470014FF0000011
:1008600070BD41F0FE4141F4780170BD70B54FF0AC
:10087000FF0C4CF4E06C1CEA11541DBF1CEA13552C
:1008800094EA0C0F95EA0C0F00F0A7F8A4EB05040E
:1008900081EA030E52EA03354FEA013100F0888005
:1008A0004FEA03334FF0805545EA131343EA1263CE
:1008B0004FEA022245EA111545EA10654FEA002683
:1008C0000EF000419D4208BF964244F1FD0404F53C
:1008D000407402D25B084FEA3202B61A65EB030598
:1008E0005B084FEA32024FF480104FF4002CB6EB55
:1008F000020E75EB030E22BFB61A754640EA0C00D5
:100900005B084FEA3202B6EB020E75EB030E22BF14
:10091000B61A754640EA5C005B084FEA3202B6EB55
:10092000020E75EB030E22BFB61A754640EA9C0014
:100930005B084FEA3202B6EB020E75EB030E22BFE4
:10094000B61A754640EADC0055EA060E18D04FEAA2
:10095000051545EA16754FEA06164FEAC30343EA42
:1009600052734FEAC2025FEA1C1CC0D111F4801F0F
:100970000BD141EA00014FF000004FF0004CB6E708
:1009800011F4801F04BF01430020B4F1FD0C88BFA7
:10099000BCF5E06F3FF6AFAEB5EB030C04BFB6EBB2
:1009A000020C5FEA500C50F1000041EB045170BDA5
:1009B0000EF0004E4EEA113114EB5C04C2BFD4EBD2
:1009C0000C0541EA045170BD41F480114FF0000E56
:1009D000013C90E645EA060E8DE60CEA135594EAD2
:1009E0000C0F08BF95EA0C0F3FF43BAF94EA0C0FD5
:1009F0000AD150EA01347FF434AF95EA0C0F7FF44A
:100A000025AF104619462CE795EA0C0F06D152EA9D
:100A100003353FF4FDAE1046194622E750EA410681
:100A200018BF52EA43067FF4C5AE50EA41047FF492
:100A30000DAF52EA43057FF4EBAE12E74FF0FF3CF7
:100A400006E000BF4FF0010C02E000BF4FF0010CC8
:100A50004DF804CD4FEA410C7FEA6C5C4FEA430C41
:100A600018BF7FEA6C5C1BD001B050EA410C0CBF90
:100A700052EA430C91EA030F02BF90EA020F0020F2
:100A8000704710F1000F91EA030F58BF994208BF59
:100A900090422CBFD8176FEAE37040F00100704716
:100AA0004FEA410C7FEA6C5C02D150EA013C07D16D
:100AB0004FEA430C7FEA6C5CD6D152EA033CD3D0B8
:100AC0005DF8040B704700BF8446104662468C46B2
:100AD0001946634600E000BF01B5FFF7B7FF0028E5
:100AE00048BF10F1000F01BD4DF808EDFFF7F4FF0E
:100AF0000CBF012000205DF808FB00BF4DF808ED99
:100B0000FFF7EAFF34BF012000205DF808FB00BFBB
:100B10004DF808EDFFF7E0FF94BF012000205DF8DD
:100B200008FB00BF4DF808EDFFF7CEFF94BF012092
:100B300000205DF808FB00BF4DF808EDFFF7C4FF8B
:100B400034BF012000205DF808FB00BF4FEA410CD4
:100B50007FEA6C5C02D150EA013C0AD14FEA430CB7
:100B60007FEA6C5C02D152EA033C02D14FF00000F4
:100B700070474FF0010070474FEA410212F5001232
:100B800015D211D56FF47873B3EB625212D94FEAD4
:100B9000C12343F0004343EA505311F0004F23FABE
:100BA00002F018BF404270474FF00000704750EA13
:100BB000013005D111F0004008BF6FF000407047D0
:100BC0004FF00000704700BF53B94AB9002908BF71
:100BD00000281CBF4FF0FF314FF0FF3000F072B91A
:100BE000ADF1080C6DE904CE00F006F8DDF804E084
:100BF000DDE9022304B070472DE9F047089E044662
:100C00008846002B4BD18A42154667D9B2FA82F248
:100C10004AB1C2F1200701FA02F320FA07F7954022
:100C200047EA030894404FEA154E230CB8FBFEF741
:100C30001FFA85FC0EFB178843EA084307FB0CF1FB
:100C4000994209D9EB1807F1FF3080F01B819942D6
:100C500040F21881023F2B445B1AA4B2B3FBFEF0B2
:100C60000EFB103344EA034400FB0CFCA44509D9F5
:100C70002C1900F1FF3380F00781A44540F2048174
:100C800002382C4440EA0740A4EB0C0400271EB1B4
:100C9000D4400023C6E900433946BDE8F0878B42C3
:100CA00009D9002E00F0EB800027C6E90001384684
:100CB0003946BDE8F087B3FA83F7002F47D18B425E
:100CC00002D3824200F2FA80841A61EB030301200E
:100CD0009846002EE0D0C6E90048DDE702B9FFDE05
:100CE000B2FA82F2002A40F08F80491B4FEA154E7B
:100CF0001FFA85F80127B1FBFEFC230C0EFB1C112B
:100D000043EA014308FB0CF1994207D9EB180CF1B7
:100D1000FF3002D2994200F2CD808446591AA3B224
:100D2000B1FBFEF00EFB101443EA044408FB00F88C
:100D3000A04507D92C1900F1FF3302D2A04500F2DB
:100D4000B6801846A4EB080440EA0C409FE7C7F1C0
:100D5000200CBB4022FA0CFE4EEA030E01FA07F407
:100D600020FA0CF521FA0CF34FEA1E482543B3FB99
:100D7000F8F92C0C08FB19331FFA8EFA44EA0343E6
:100D800009FB0AF49C4202FA07F200FA07F10BD9B8
:100D90001EEB030309F1FF3080F087809C4240F294
:100DA0008480A9F1020973441B1BADB2B3FBF8F0B8
:100DB00008FB103345EA034400FB0AFAA24508D9B0
:100DC0001EEB040400F1FF336BD2A24569D902384F
:100DD000744440EA0940A0FB0289A4EB0A044C4594
:100DE000C2464B4654D351D0002E69D0B1EB0A0510
:100DF00064EB030404FA0CFCFD40FC404CEA0505DE
:100E0000C6E90054002747E7C2F1200320FA03F7A0
:100E1000954001FA02F021FA03F34FEA154E3843E8
:100E2000010CB3FBFEF71FFA85F80EFB173341EAFE
:100E3000034107FB08F38B4204FA02F407D969184F
:100E400007F1FF3C2FD28B422DD9023F2944CB1A08
:100E500081B2B3FBFEF00EFB103341EA034100FB0D
:100E600008F38B4207D9691800F1FF3C17D28B4277
:100E700015D902382944C91A40EA07473BE73746E3
:100E8000304609E70746E7E61846FBE64145ABD2A0
:100E9000B8EB020A69EB0E0201381346A4E760467C
:100EA000E9E7184695E76746D1E781467CE70238CF
:100EB0002C4447E7ACF1020C2B442FE7384608E7F7
:100EC0003746E9E6704700BF80B58AB006AF0346F3
:100ED0003960FB713868FFF785F90346FB60FB79E1
:100EE0003A680492FA680392029300230193A123C3
:100EF0000093A22302221149114807F069FD10480E
:100F0000FFF770F90346FB60FB68013B19460D488B
:100F100000F01EF803461A460B4B1A70FB68084A8D
:100F20009818094B1B781A460323084907F050FD0F
:100F3000002318461037BD4680BD00BF78B40008B6
:100F40008813002089130020241C002094B400087A
:100F500080B485B000AF78603960104B00221A6011
:100F60000023FB600CE0FB687A6813441B781A4688
:100F70000A4B1B681344094A1360FB680133FB608A
:100F8000FA683B689A42EEDB044B1B68DBB21846FA
:100F90001437BD465DF8047B704700BF8002002017
:100FA00080B584B000AF78603960234B00221A60AE
:100FB0003B680C333B600023FB600EE0FB680133B1
:100FC0007A6813441B787B727A7A1B4B1B68134434
:100FD000194A1360FB680133FB603B68FA689A4268
:100FE000ECD3164B00221A60FB685A1CFA600133DE
:100FF0007A681344114A1249184607F009FDFB6844
:1010000002337A6813441B78FB720B4B1B68BB726C
:10101000BA7A0A4B1B689A4207D1FB7A032B01D19B
:10102000002304E04FF0FF3301E04FF0FF33184698
:101030001037BD4680BD00BF800200200C03002099
:101040009CB4000880B586B002AF78600023FB60D6
:101050007868FFF7C7F80346BB60BB680133DA0F57
:1010600013445B10FB600A4B1878FB689BB25B0073
:101070009AB2084B1B880093074B796805F0F0FE85
:10108000012001F0E3FF00BF1037BD4680BD00BF67
:101090004C0200200C0000200800002080B582B027
:1010A00000AF03460A46FB711346BB71BB791A4673
:1010B0000849094807F08CFCFB7907491846FFF7F7
:1010C00003FF0648FFF7BEFF002318460837BD465A
:1010D00080BD00BFA4B40008281C00208813002095
:1010E000F0B585B000AF2F4B2F4A14469C4604F153
:1010F000200E654626460FCE28606960AA60EB6028
:1011000010340CF1100C7445F3D16246234603CB26
:10111000106051601B7813722248FFF763F8034692
:10112000BB60204B7B607B68204A1360204B214AC8
:101130001A600023FB6014E01D4B1B681A681B4BF0
:101140001B681B689A4228D1194B1B680433184A44
:101150001360164B1B680433144A1360FB68043396
:10116000FB60FA68BB689A42E6DB02F03BF9124B7F
:101170001B68124A1360114B1B681A46104B1A6009
:10118000104B114A9A60104B1B683B603B6883F31D
:1011900008880B4B1B68984700E000BF1437BD461A
:1011A000F0BD00BF281C0020B4B40008801300204C
:1011B0000000002000000A080400020810030020BC
:1011C0008413002000ED00E000000208F0B58BB0B1
:1011D00000AF7860012387F823307B68002B01D1B2
:1011E000FF2304E2B54B02221A70B44B41225A701D
:1011F000B24B1B7887F8223097F82230022B01D0AF
:10120000FF23F4E107F1100307F11402AC49AD48E4
:1012100007F0FEFB7B69DAB2AB4B1A703B69DAB2BE
:10122000AA4B1A7007F114031A46A949A94807F0F6
:10123000EFFB7B6987F82130A34B1B78A12B01D0F2
:101240000023D4E107F10C031A46A349A34807F091
:10125000DFFBFB6819469948FFF7A2FEF861FB69BE
:10126000002B01D0FF23C2E197F82130F32B02D0ED
:101270009B4B00221A7097F82130F22B00F0BA80B5
:10128000F22B04DCC02B0CD0F02B11D0A7E1FD2BEE
:1012900000F09881FE2B00F09C81F32B00F052812E
:1012A0009DE197F8213000211846FFF7F7FE9DE1F8
:1012B0008C4B1B78022B01D0FF2398E107F1080328
:1012C0001A468949894807F0A3FBBB6803F5A04388
:1012D000B3F5802F0ADB864B00221A7097F8213075
:1012E00009211846FFF7DAFEFF2380E1BB68002BD7
:1012F00013D17F4B01221A707E4800F047FE03464F
:10130000002B0AD07A4B00221A7097F821300A215C
:101310001846FFF7C3FEFF2369E1BB6803F10063D2
:1013200003F500331A46744B1A60BB68C3F310030D
:10133000002B12D1704B1B68184600F027FE0346A5
:10134000002B0AD06A4B00221A7097F821300A212C
:101350001846FFF7A3FEFF2349E102F021F8674B8F
:10136000BB61BB69664A136000237B6234E0624B59
:101370001968634B1B681B684FF000041A4623462C
:10138000022001F0B9FF034687F823305A4B1B684F
:101390001A685B4B1B681B689A4203D197F823308D
:1013A000002B0CD002F01EF8514B00221A7097F857
:1013B000213007211846FFF771FEFF2317E14E4B3E
:1013C0001B6804334C4A13604D4B1B6804334C4A72
:1013D00013607B6A04337B62FB68053B7A6A9A423E
:1013E000C5DB01F0FFFF97F8213000211846FFF719
:1013F00055FEFBE03B4B1B78022B01D0FF23F6E0B0
:101400003B4B1B78012B07D097F82130072118465A
:10141000FFF744FEFF23EAE0354B02221A70394BF6
:10142000394A14469C4604F1200E654626460FCEE6
:1014300028606960AA60EB6010340CF1100C7445F0
:10144000F3D16246234603CB106051601B781372C0
:101450002C48FEF7C7FE0346FB6001F0A1FF294BB5
:10146000BB61BB69264A1360234B224A1A600023E2
:101470007B6258E0204B1968214B1B681B684FF0BA
:1014800000041A462346022001F036FF034687F87F
:101490002330194B1B681A68194B1B681B689A424A
:1014A00034D001F09FFF124B00221A7097F82130C0
:1014B00007211846FFF7F2FDFF2398E018030020EC
:1014C000E0B400081903002084020020221C002040
:1014D0009CB400081F030020ECB400082103002086
:1014E0007C020020211C0020F4B400082503002009
:1014F000231C002000000A08000000202A0300200E
:1015000080130020281C0020B4B400083A4B1B684C
:101510000433394A1360394B1B680433374A13606C
:101520007B6A04337B62FB687A6A9A42A2DB01F031
:1015300059FF97F8213000211846FFF7AFFD00F062
:10154000B3FAFEE72E4B1B780133DAB22C4B1A703C
:101550002B4B1B78022B07D897F821300021184617
:10156000FFF79CFDFF2342E0264B1B78012B1BD18C
:10157000254B1B78012B13D1234B00221A702348D3
:1015800000F004FD0346002B0AD01E4B00221A7007
:1015900097F821300A211846FFF780FDFF2326E047
:1015A000184B02221A7006E0164B1B78002B02D152
:1015B000144B01221A7097F8213000211846FFF7CA
:1015C0006DFD13E097F8213000211846FFF766FD06
:1015D000FEE797F82130184600F0DAFA06E097F8AF
:1015E000213004211846FFF759FD00BF002318469B
:1015F0002C37BD46F0BD00BF000000208013002046
:101600007C020020211C00200803002000000A08A2
:1016100080B582B000AF0346FB80FB88DBB203F0ED
:101620000103DBB21A4601215A4802F0EDFAFB88A9
:101630005B10DBB203F00103DBB21A46022155480E
:1016400002F0E2FAFB889B10DBB203F00103DBB28D
:101650001A4604214F4802F0D7FAFB88DB10DBB2B0
:1016600003F00103DBB21A4608214A4802F0CCFA23
:10167000FB881B11DBB203F00103DBB21A46102119
:10168000444802F0C1FAFB885B11DBB203F00103AE
:10169000DBB21A4620213F4802F0B6FAFB889B11C4
:1016A000DBB203F00103DBB21A464021394802F0F5
:1016B000ABFAFB88DB11DBB203F00103DBB21A46A5
:1016C0008021344802F0A0FAFB881B12DBB203F041
:1016D0000103DBB21A464FF480712E4802F094FAEF
:1016E000FB885B12DBB203F00103DBB21A464FF456
:1016F0000071284802F088FAFB889B12DBB203F0E5
:101700000103DBB21A464FF48061224802F07CFAF2
:10171000FB88DB12DBB203F00103DBB21A464FF4A5
:1017200000611C4802F070FAFB881B13DBB203F067
:101730000103DBB21A464FF48051164802F064FAF6
:10174000FB885B13DBB203F00103DBB21A464FF4F4
:101750000051104802F058FAFB889B13DBB203F0EB
:101760000103DBB21A464FF480410A4802F04CFAFA
:10177000B7F90630DB131BB2DBB203F00103DBB2B7
:101780001A464FF40041034802F03EFA00BF083702
:10179000BD4680BD0008024080B582B000AF034660
:1017A000FB80FB88DBB203F00103DBB21A460121A8
:1017B0005A4802F029FAFB885B10DBB203F0010300
:1017C000DBB21A460221554802F01EFAFB889B1034
:1017D000DBB203F00103DBB21A4604214F4802F0EA
:1017E00013FAFB88DB10DBB203F00103DBB21A460D
:1017F00008214A4802F008FAFB881B11DBB203F00B
:101800000103DBB21A461021444802F0FDF9FB88BF
:101810005B11DBB203F00103DBB21A4620213F4823
:1018200002F0F2F9FB889B11DBB203F00103DBB29B
:101830001A464021394802F0E7F9FB88DB11DBB298
:1018400003F00103DBB21A468021344802F0DCF9D0
:10185000FB881B12DBB203F00103DBB21A464FF424
:1018600080712E4802F0D0F9FB885B12DBB203F0E6
:101870000103DBB21A464FF40071284802F0C4F9A4
:10188000FB889B12DBB203F00103DBB21A464FF474
:101890008061224802F0B8F9FB88DB12DBB203F06A
:1018A0000103DBB21A464FF400611C4802F0ACF9A8
:1018B000FB881B13DBB203F00103DBB21A464FF4C3
:1018C0008051164802F0A0F9FB885B13DBB203F0ED
:1018D0000103DBB21A464FF40051104802F094F9AC
:1018E000FB889B13DBB203F00103DBB21A464FF413
:1018F00080410A4802F088F9B7F90630DB131BB2C1
:10190000DBB203F00103DBB21A464FF40041034897
:1019100002F07AF900BF0837BD4680BD00100240D2
:1019200080B582B000AF0346FB80FB88DBB203F0DA
:101930000103DBB21A4601215A4802F065F9FB881F
:101940005B10DBB203F00103DBB21A4602215548FB
:1019500002F05AF9FB889B10DBB203F00103DBB203
:101960001A4604214F4802F04FF9FB88DB10DBB226
:1019700003F00103DBB21A4608214A4802F044F999
:10198000FB881B11DBB203F00103DBB21A46102106
:10199000444802F039F9FB885B11DBB203F0010324
:1019A000DBB21A4620213F4802F02EF9FB889B113A
:1019B000DBB203F00103DBB21A464021394802F0E2
:1019C00023F9FB88DB11DBB203F00103DBB21A461B
:1019D0008021344802F018F9FB881B12DBB203F0B7
:1019E0000103DBB21A464FF480712E4802F00CF965
:1019F000FB885B12DBB203F00103DBB21A464FF443
:101A00000071284802F000F9FB889B12DBB203F05A
:101A10000103DBB21A464FF48061224802F0F4F869
:101A2000FB88DB12DBB203F00103DBB21A464FF492
:101A300000611C4802F0E8F8FB881B13DBB203F0DE
:101A40000103DBB21A464FF48051164802F0DCF86D
:101A5000FB885B13DBB203F00103DBB21A464FF4E1
:101A60000051104802F0D0F8FB889B13DBB203F062
:101A70000103DBB21A464FF480410A4802F0C4F871
:101A8000B7F90630DB131BB2DBB203F00103DBB2A4
:101A90001A464FF40041034802F0B6F800BF083779
:101AA000BD4680BD0014024080B400AF034B044A21
:101AB000DA6000BFBD465DF8047B704700ED00E0D2
:101AC0000400FA05B0B594B002AF78602D4B07F171
:101AD00014041D460FCD0FC40FCD0FC495E80F00A1
:101AE00084E80F00284A07F1080307CA83E80700C3
:101AF00007F108030933184606F05BFA034687F836
:101B000046300023BB7307F108030433184606F080
:101B100050FA034687F845300023FB72002387F80C
:101B2000473027E097F847309B0007F148021344FD
:101B300053F8342C07F1080311461846FEF748FB0A
:101B40000346002B11D197F84730013387F8443012
:101B500097F8462097F8441097F8453000930B46C5
:101B60000A49786806F034FF08E097F847300133F7
:101B700087F8473097F847300B2BD3D94837BD4605
:101B8000B0BD00BF40B5000870B50008FCB4000847
:101B900080B586B000AF0346FB7107F10C03184611
:101BA000FFF790FF07F10C02084B0949094806F0BE
:101BB0000FFFFB7907491846FFF786F90648FFF73C
:101BC00041FA00BF1837BD4680BD00BF7CB5000894
:101BD00088B50008281C00208813002080B582B03A
:101BE00000AF7860074A7B681360074802F079F815
:101BF000044B1B68002B00D0F7E700BF00BF08377D
:101C0000BD4680BD9C2C0020A82C002080B58EB045
:101C100000AF07F1240300221A605A609A60DA606C
:101C20001A6100233B62B44B1B6BB34A43F01003B1
:101C30001363B14B1B6B03F010033B623B6A002341
:101C4000FB61AD4B1B6BAC4A43F004031363AA4B1F
:101C50001B6B03F00403FB61FB690023BB61A64B14
:101C60001B6BA54A43F020031363A34B1B6B03F0CC
:101C70002003BB61BB6900237B619F4B1B6B9E4AAA
:101C800043F0800313639C4B1B6B03F080037B6169
:101C90007B6900233B61984B1B6B974A43F0010320
:101CA0001363954B1B6B03F001033B613B690023FE
:101CB000FB60914B1B6B904A43F0020313638E4B06
:101CC0001B6B03F00203FB60FB680023BB608A4BC5
:101CD0001B6B894A43F040031363874B1B6B03F074
:101CE0004003BB60BB6800237B60834B1B6B824A55
:101CF00043F008031363804B1B6B03F008037B6006
:101D00007B6800233B607C4B1B6B7B4A43F48073F6
:101D10001363794B1B6B03F480733B603B680022B9
:101D20004FF6FF71754801F06FFF00224FF6FF710B
:101D3000734801F069FF00224FF6FF71714801F00E
:101D400063FF00224FF47F716F4801F05DFF0122B5
:101D500041F610116D4801F057FF01224FF4E05198
:101D60006B4801F051FF01224FF47C41664801F0BD
:101D70004BFF00224FF6FF71664801F045FF00223D
:101D80000721654801F040FF00224FF4FC41634801
:101D900001F03AFF00224FF440715D4801F034FF3A
:101DA0004FF6FF737B620123BB620223FB620023B9
:101DB0003B6307F124031946504801F073FD4FF6C9
:101DC000FF737B620123BB620223FB6200233B6340
:101DD00007F1240319464A4801F064FD4FF6FF73EA
:101DE0007B620123BB620223FB6200233B6307F19A
:101DF00024031946434801F055FD0F237B6200235D
:101E0000BB620023FB6207F1240319463F4801F03F
:101E100049FD4FF47F737B620123BB620023FB62A9
:101E200000233B6307F124031946374801F03AFDCC
:101E300010237B620123BB620023FB6200233B6310
:101E400007F124031946314801F02CFDE2237B629F
:101E50000023BB620023FB6207F1240319462C48D0
:101E600001F020FD4F237B620023BB620023FB6255
:101E700007F124031946294801F014FD4FF4E053FB
:101E80007B620123BB620123FB6200233B6307F1FA
:101E9000240319461E4801F005FD4FF47C437B6284
:101EA0000123BB620123FB6200233B6307F1240390
:101EB0001946154801F0F6FC4FF6FF737B620123CB
:101EC000BB620023FB6200233B6307F12403194636
:101ED000104801F0E7FC4FF4C8537B620123BB625A
:101EE0000123FB6200233B6307F1240319460748E3
:101EF00001F0D8FC072313E0003802400010024034
:101F00000008024000140240001C02400000024091
:101F100000040240000C0240002002400018024071
:101F20007B620123BB620023FB6200233B6307F15A
:101F300024031946124801F0B5FC4FF4FC437B62C0
:101F40000123BB620023FB6200233B6307F12403F0
:101F500019460C4801F0A6FC4FF440737B62012344
:101F6000BB620223FB6200233B6307F12403194693
:101F7000054801F097FC00BF3837BD4680BD00BF63
:101F800000200240001802400004024080B58CB0DE
:101F900000AF78600023FB620023BB627B687B623A
:101FA00000233B6201F0FCF9786A00F05BF8F8620C
:101FB000786A00F057F80246FB6AD31A0133BB6215
:101FC0000023FB600223FB61FB6A7B61BB6ABB6190
:101FD000234BB322DA6007F1200207F10C0311460C
:101FE000184601F03DFB0346002B02D04FF0FF33B3
:101FF00032E01B4B1B681A4A23F480631360184BB2
:102000001B68174A23F400731360154B1B68144AAE
:1020100043F480531360124B1B68114A23F480531E
:1020200013600F4B1B680E4A43F4006313600C4BA4
:102030001B680B4A23F400631360094B1B68084AB2
:1020400043F400731360064B1B68054A43F4806336
:10205000136001F0C7F9002318463037BD4680BD34
:10206000003C024080B485B000AF78600023FB6084
:102070007B68404A934206D87B68B3F1006F02D375
:102080000023FB606FE07B683B4A934206D87B6885
:10209000384A934202D90123FB6064E07B68374AE7
:1020A000934206D87B68344A934202D90223FB60EC
:1020B00059E07B68324A934206D87B682F4A9342A4
:1020C00002D90323FB604EE07B682E4A934206D878
:1020D0007B682B4A934202D90423FB6043E07B6870
:1020E000294A934206D87B68264A934202D905239F
:1020F000FB6038E07B68254A934206D87B68224A19
:10210000934202D90623FB602DE07B68204A93426C
:1021100006D87B681D4A934202D90723FB6022E060
:102120007B681C4A934206D87B68194A934202D9BD
:102130000823FB6017E07B68174A934206D87B6848
:10214000144A934202D90923FB600CE07B68134ACE
:10215000934206D87B68104A934202D90A23FB6057
:1021600001E00B23FB60FB6818461437BD465DF8A1
:10217000047B7047FF3F0008FF7F0008FFBF000897
:10218000FFFF0008FFFF0108FFFF0308FFFF05082E
:10219000FFFF0708FFFF0908FFFF0B08FFFF0D08FF
:1021A00080B500AF094B0A4A1A60084B05225A60F5
:1021B000064B40F6FF729A60044801F059FD034651
:1021C000002B01D000F02AF900BF80BDA82C002010
:1021D0000030004080B500AF114801F082FD114B86
:1021E0001B6803F40073002B0CD000224FF4006135
:1021F0000D4801F009FD01224FF480510A4801F019
:1022000003FD0BE001224FF40061074801F0FCFCE4
:1022100000224FF48051044801F0F6FC00BF80BD5D
:10222000A82C0020902C00200000024080B500AFB8
:1022300000224FF480711F4801F0E6FC00224FF4A9
:1022400000711C4801F0E0FC01224FF48061194844
:1022500001F0DAFC0020FFF7DBF90020FFF79CFA21
:102260000020FFF75DFB01224FF48041124801F08E
:10227000CBFC01224FF400410F4801F0C5FC0122C4
:102280004FF480610C4801F0BFFC01224FF4006163
:10229000094801F0B9FC01224FF48051064801F0D1
:1022A000B3FC01224FF40051034801F0ADFC00BF24
:1022B00080BD00BF00040240001C024080B582B017
:1022C00000AF00F051FEFEF70BFF00F03BF8FFF708
:1022D0009DFCFFF765FF00F0A5F800F099FB00F00A
:1022E000D7F800F0CBFAFFF7A1FF00F07FFC002346
:1022F0007B60FFF76FFF41F2680200210C4805F098
:1023000087FE0C4B18780C4B1B880C4A084900F0D0
:102310008FFD03467B607B68002BEAD04FF4805131
:10232000074801F08AFC7868FEF750FFE1E700BF3C
:10233000180300204C0200200C00002008000020A0
:102340000000024080B594B000AF07F120033022B6
:102350000021184605F05CFE07F10C0300221A600C
:102360005A609A60DA601A610023BB60294B1B6CCB
:10237000284A43F080531364264B1B6C03F08053B0
:10238000BB60BB6800237B60234B1B68224A43F47D
:1023900080431360204B1B6803F480437B607B68A1
:1023A00009233B624FF480337B6201237B6302236A
:1023B000BB634FF48003FB6319233B644FF4A873A2
:1023C0007B640223BB640423FB6407F120031846EB
:1023D00001F098FC0346002B01D000F01FF80F23FA
:1023E000FB6002233B6100237B614FF4A053BB6180
:1023F0004FF48053FB6107F10C030521184601F0EF
:10240000F1FE0346002B01D000F008F800BF503762
:10241000BD4680BD003802400070004080B400AF6F
:1024200072B6FEE780B500AF174B184A1A60164B1C
:102430004FF482725A60144B00229A60124B0022B1
:10244000DA60114B00221A610F4B00225A610E4BC9
:102450004FF400729A610C4B0022DA610A4B0022A1
:102460001A62094B00225A62074B00229A62064BFD
:102470000A22DA62044802F081F80346002B01D0F8
:10248000FFF7CCFF00BF80BD0C2D002000300140C5
:1024900080B500AF184B194A1A60174B4FF482727F
:1024A0005A60154B00229A60134B4FF40062DA60B9
:1024B000114B00221A61104B00225A610E4B4FF44F
:1024C00000729A610C4B0822DA610B4B00221A62EF
:1024D000094B00225A62084B00229A62064B0A22DC
:1024E000DA62054802F04AF80346002B01D0FFF7F4
:1024F00095FF00BF80BD00BFB42C00200038004015
:1025000080B58CB000AF786007F11C0300221A6020
:102510005A609A60DA601A617B681B68324A93429B
:102520002CD10023BB61314B5B6C304A43F48053A8
:1025300053642E4B5B6C03F48053BB61BB69002377
:102540007B612A4B1B6B294A43F001031363274B22
:102550001B6B03F001037B617B69E023FB610223BA
:102560003B6200237B620323BB620523FB6207F10E
:102570001C0319461E4801F095F931E07B681B6881
:102580001C4A93422CD100233B61184B1B6C174A09
:1025900043F480431364154B1B6C03F480433B618D
:1025A0003B690023FB60114B1B6B104A43F0020395
:1025B00013630E4B1B6B03F00203FB60FB684FF4CD
:1025C0006043FB6102233B6200237B620323BB6207
:1025D0000523FB6207F11C031946074801F062F965
:1025E00000BF3037BD4680BD00300140003802409A
:1025F00000000240003800400004024080B483B074
:1026000000AF00237B60104B5B6C0F4A43F48043A8
:1026100053640D4B5B6C03F480437B607B68002349
:102620003B60094B1B6C084A43F080531364064B14
:102630001B6C03F080533B603B6800BF0C37BD460A
:102640005DF8047B704700BF0038024080B400AFE3
:10265000FEE780B400AFFEE780B400AFFEE780B4D1
:1026600000AFFEE780B400AFFEE780B400AF00BF6C
:10267000BD465DF8047B704780B400AF00BFBD4627
:102680005DF8047B704780B400AF00BFBD465DF8C5
:10269000047B704780B500AF124B1B680133114AB1
:1026A0001360114B1B685A1C0F490A60B3F57A7FFF
:1026B00002DD0D4B00221A600C4B1B68002B04D06E
:1026C0000A4B1B68013B094A1360094B1B68002B2E
:1026D00004D0074B1B68013B054A136000F096FCD1
:1026E00000BF80BD902C0020A42C00209C2C00203A
:1026F000A02C002080B500AF024803F037F900BFDE
:1027000080BD00BFA42D002080B586B000AFF8606A
:10271000B9607A6000237B610AE0AFF30080014674
:10272000BB685A1CBA60CAB21A707B6901337B61FC
:102730007A697B689A42F0DB7B6818461837BD4699
:1027400080BD80B586B000AFF860B9607A600023C4
:102750007B6109E0BB685A1CBA601B78184600F020
:1027600045F97B6901337B617A697B689A42F1DBC9
:102770007B6818461837BD4680BD80B483B000AF73
:1027800078604FF0FF3318460C37BD465DF8047B88
:10279000704780B483B000AF786039603B684FF415
:1027A00000525A60002318460C37BD465DF8047B82
:1027B000704780B483B000AF7860012318460C37AF
:1027C000BD465DF8047B704780B485B000AFF8600B
:1027D000B9607A60002318461437BD465DF8047B63
:1027E0007047000080B586B000AF7860144A154B82
:1027F000D31A7B617B693B61134B1B68002B02D1B1
:10280000114B124A1A60104B1A687B6813443A69DC
:102810009A4207D205F0D2FB02460C2313604FF018
:10282000FF3309E0084B1B68FB60074B1A687B68A5
:102830001344054A1360FB6818461837BD4680BD2F
:10284000000002200004000048020020282E002082
:1028500080B400AF084BD3F88830074A43F47003C4
:10286000C2F88830044B4FF000629A6000BFBD464A
:102870005DF8047B704700BF00ED00E080B58AB0D2
:1028800000AF07F1200300221A605A603B1D0022AE
:102890001A605A609A60DA601A615A619A61234B31
:1028A000234A1A60214B4FF4C8625A601F4B002222
:1028B0009A601E4B42F21072DA601C4B00221A61C1
:1028C0001A4B00229A61194802F0ACFB0346002B18
:1028D00001D0FFF7A3FD00233B6200237B6207F1D9
:1028E00020031946114802F0DFFE0346002B01D0F9
:1028F000FFF794FD60237B6041F28833BB600023C7
:10290000FB6000237B613B1D08221946074802F04B
:10291000B5FB0346002B01D0FFF780FD034800F014
:102920002BF800BF2837BD4680BD00BF642D0020B6
:102930000004004080B485B000AF78607B681B68FD
:102940000B4A93420DD10023FB600A4B1B6C094AD2
:1029500043F002031364074B1B6C03F00203FB609C
:10296000FB6800BF1437BD465DF8047B704700BFAD
:10297000000400400038024080B588B000AF7860A5
:1029800007F10C0300221A605A609A60DA601A613B
:102990007B681B68124A93421DD10023BB60114B18
:1029A0001B6B104A43F0020313630E4B1B6B03F0C7
:1029B0000203BB60BB680123FB6002233B61002371
:1029C0007B610023BB610223FB6107F10C03194605
:1029D000054800F067FF00BF2037BD4680BD00BF3F
:1029E00000040040003802400004024080B582B07C
:1029F00000AF7860391D64230122044802F01DFFF6
:102A00007B6818460837BD4680BD00BFA42D002056
:102A100080B500AF114B124A1A60104B4FF4E132EF
:102A20005A600E4B00229A600C4B0022DA600B4B6E
:102A300000221A61094B0C225A61084B00229A614C
:102A4000064B0022DA61054802F0AAFE0346002B7D
:102A500001D0FFF7E3FC00BF80BD00BFA42D002024
:102A60000010014080B58AB000AF786007F1140310
:102A700000221A605A609A60DA601A617B681B68EB
:102A80001D4A934234D100233B611C4B5B6C1B4AB3
:102A900043F010035364194B5B6C03F010033B616C
:102AA0003B690023FB60154B1B6B144A43F0010389
:102AB0001363124B1B6B03F00103FB60FB684FF4C5
:102AC000C0637B610223BB610023FB6103233B6284
:102AD00007237B6207F114031946094800F0E2FE60
:102AE00000220021252000F0AEFB252000F0C7FBCE
:102AF00000BF2837BD4680BD0010014000380240AD
:102B00000000024080B500AF00221021024801F011
:102B10007BF800BF80BD00BF0000024080B500AF61
:102B200001221021024801F06FF800BF80BD00BFF4
:102B30000000024080B500AF00224FF480710848C9
:102B400001F062F8022000F081FA01224FF4807156
:102B5000034801F059F80A2000F078FA00BF80BD60
:102B60000000024080B582B000AF78600B467B80E9
:102B70007A884FF0FF337968034801F097FE00BF71
:102B80000837BD4680BD00BF0C2D002080B582B047
:102B900000AF78600B467B807A884FF0FF3379680E
:102BA000034801F04FFD00BF0837BD4680BD00BFA0
:102BB0000C2D002080B582B000AFFB1D012118460E
:102BC000FFF7D0FFFB7918460837BD4680BD80B5BA
:102BD00082B000AF0346FB71FB1D01211846FFF7D1
:102BE000D5FF00BF0837BD4680BD000090B587B057
:102BF00000AF1749174804F0B9FC1749174804F00B
:102C0000D9FC1749174804F001FDFFF793FF00F0C6
:102C100059F80346FB75144AFB7D5372124AFB7D3B
:102C20005371124B3C1D0FCB84E80F003B1D19461E
:102C3000012004F017FD0346002B02D04FF0FF33B4
:102C400002E000F06DF8002318461C37BD4690BD29
:102C50001D2B0008052B0008CF2B0008B52B000802
:102C60008D2B0008652B000810000020B0B500086F
:102C700080B582B000AF0346FB71FB7903F001031E
:102C8000DBB21A4601210E4800F0BEFFFB795B1053
:102C9000DBB203F00103DBB21A460221084800F060
:102CA000B3FFFB799B10DBB203F00103DBB21A46E2
:102CB0000421034800F0A8FF00BF0837BD4680BDCF
:102CC0000020024080B582B000AF00237B7100235A
:102CD000BB710023FB7119E0FB791846FFF7C8FFB1
:102CE0000120FEF77BFF40210C4800F075FF0346F2
:102CF0007B717B7903F00102FB7902FA03F3DAB20C
:102D0000BB791344BB71FB790133FB71FB79052B54
:102D1000E2D9BB7918460837BD4680BD001802408D
:102D2000B0B586B004AF3949002004F07DFD3849C4
:102D3000012004F079FD3B461946082004F092FC7E
:102D40003B461946334805F0C7FD314B1B78184602
:102D50002F4B5B781C462E4B9B781D462C4BDB780B
:102D60001A462B4B1B791946294B5B79029301912B
:102D700000922B4622460146274805F0ADFD244B24
:102D80009B791946224BDB791A46214B1B7A184650
:102D90001F4B5B7A00930346204805F09DFD1C4BBA
:102DA0009B7B19461A4BDB7B1A46194B1B7C18463A
:102DB000174B5B7C00930346194805F08DFD144BBF
:102DC0009B7A1946124BDB7A1A46114B1B7B18462D
:102DD0000F4B5B7B00930346124805F07DFD0C4BC7
:102DE0009B7C19460A4BDB7C1A46094B1B7D184617
:102DF000074B5B7D009303460B4805F06DFD0B48C8
:102E000005F0DEFD00BF0837BD46B0BD1000002054
:102E1000E42D0020C0B50008D8B50008F4B50008BE
:102E200008B600081CB6000830B6000844B6000812
:102E300080B588B002AFB9607A601A460346FB736A
:102E40001346BB8100237B6100237B8201237B74BB
:102E500000233B74FB7B9B000133DB0003F54073D5
:102E6000184603F089FB0346002B3ED0222B00D0EE
:102E70004AE000233B7434E0FB7B184603F021FD5D
:102E800003467B827B8A002B23D07A8A7B6913449A
:102E9000B3F5805F04D37B699BB2C3F580537B821B
:102EA000BA687B69D1187A8AF87B07F10C03009322
:102EB0007B6804F00BF903461A467B6913447B6177
:102EC00001233B747B69B3F5805F0AD300237B74D5
:102ED00007E000237B743B7C002B02D1012000F033
:102EE000B5F87B7C002BC7D10EE0BA89F87B0023B4
:102EF000022103F031FE03467B61FB7B7A699A4233
:102F000001D07B6901E000BF7B6918461837BD46D8
:102F100080BD0000DFF834D0002103E00C4B5B588B
:102F2000435004310B480C4B42189A42F6D30B4ADB
:102F300002E0002342F8043B094B9A42F9D3FFF721
:102F400087FC05F041F8FFF7B9F97047000002204F
:102F50006CB90008000000202C0200202C02002088
:102F6000242E0020FEE7000080B500AF0E4B1B684A
:102F70000D4A43F4007313600B4B1B680A4A43F479
:102F800080631360084B1B68074A43F48073136027
:102F9000032000F04DF9002000F008F8FFF72EFBA9
:102FA0000023184680BD00BF003C024080B582B0BF
:102FB00000AF7860124B1A68124B1B7819464FF419
:102FC0007A73B3FBF1F3B2FBF3F3184600F065F943
:102FD0000346002B01D001230EE07B680F2B0AD89B
:102FE000002279684FF0FF3000F02DF9064A7B6827
:102FF0001360002300E0012318460837BD4680BD5A
:10300000040000202C0000202800002080B400AF25
:10301000064B1B781A46064B1B681344044A136080
:1030200000BFBD465DF8047B704700BF2C00002048
:10303000FC2D002080B400AF034B1B681846BD4632
:103040005DF8047B704700BFFC2D002080B584B084
:1030500000AF7860FFF7EEFFB8607B68FB60FB684D
:10306000B3F1FF3F05D0094B1B781A46FB681344A8
:10307000FB6000BFFFF7DEFF0246BB68D31AFA68A9
:103080009A42F7D800BF1037BD4680BD2C00002003
:1030900080B485B000AF78607B6803F00703FB6005
:1030A0000C4BDB68BB60BA684FF6FF031340BB6094
:1030B000FB681A02BB68134343F0BF6343F4003359
:1030C000BB60044ABB68D36000BF1437BD465DF8DF
:1030D000047B704700ED00E080B400AF044BDB6878
:1030E0001B0A03F007031846BD465DF8047B7047D2
:1030F00000ED00E080B483B000AF0346FB7197F9A8
:103100000730002B0BDBFB7903F01F02074997F90F
:1031100007305B09012000FA02F241F8232000BFCA
:103120000C37BD465DF8047B704700BF00E100E04E
:1031300080B483B000AF03463960FB7197F9073064
:10314000002B0ADB3B68DAB20C4997F90730120111
:10315000D2B20B4483F800230AE03B68DAB2084994
:10316000FB7903F00F03043B1201D2B20B441A7631
:1031700000BF0C37BD465DF8047B704700E100E0FE
:1031800000ED00E080B489B000AFF860B9607A600B
:10319000FB6803F00703FB61FB69C3F10703042B22
:1031A00028BF0423BB61FB690433062B02D9FB69EA
:1031B000033B00E000237B614FF0FF32BB6902FA62
:1031C00003F3DA43BB681A407B699A404FF0FF3142
:1031D0007B6901FA03F3D9437B680B40134318461C
:1031E0002437BD465DF8047B7047000080B582B08F
:1031F00000AF78607B68013BB3F1807F01D301238E
:103200000FE00A4A7B68013B53600F214FF0FF300B
:10321000FFF78EFF054B00229A60044B07221A60CD
:10322000002318460837BD4680BD00BF10E000E00F
:1032300080B582B000AF78607868FFF729FF00BFE3
:103240000837BD4680BD80B586B000AF0346B96083
:103250007A60FB7300237B61FFF73EFF78617A6839
:10326000B9687869FFF78EFF024697F90F3011466B
:103270001846FFF75DFF00BF1837BD4680BD80B51B
:1032800082B000AF0346FB7197F907301846FFF78D
:1032900031FF00BF0837BD4680BD80B582B000AFAA
:1032A00078607868FFF7A2FF034618460837BD46E6
:1032B00080BD80B483B000AF78607B6893F8353010
:1032C000DBB2022B04D07B6880225A6501230CE01C
:1032D0007B68052283F835207B681B681A687B6849
:1032E0001B6822F001021A60002318460C37BD4605
:1032F0005DF8047B7047000080B586B000AFF860D1
:10330000B960C7E900230123FB75234B1B7E012B0A
:1033100001D102233BE0204B01221A764CF25030BF
:1033200000F070F80346FB75FB7D002B2BD1FB688A
:10333000002B05D13B781946B86800F019F916E062
:10334000FB68012B05D13B881946B86800F0ECF802
:103350000DE0FB68022B05D13B681946B86800F008
:10336000C1F804E0D7E90023B86800F08BF84CF20C
:10337000503000F047F80346FB75084B1B69074ABD
:1033800023F001031361044B00221A76FB7D1846DB
:103390001837BD4680BD00BF002E0020003C024013
:1033A00080B483B000AF0023FB710B4B1B69002B73
:1033B0000BDA094B094A5A60074B094A5A60064B17
:1033C0001B69002B01DA0123FB71FB7918460C37CE
:1033D000BD465DF8047B7047003C02402301674511
:1033E000AB89EFCD80B400AF054B1B69044A43F0B5
:1033F0000043136100231846BD465DF8047B704707
:10340000003C024080B584B000AF78600023FB60D0
:103410001A4B0022DA61FFF70DFEF86010E07B68BE
:10342000B3F1FF3F0CD07B68002B07D0FFF702FE03
:103430000246FB68D31A7A689A4201D2032319E044
:103440000F4BDB6803F48033002BE8D10C4BDB68B7
:1034500003F00103002B02D0094B0122DA60084B74
:10346000DB6803F0F203002B03D000F0A3F8012384
:1034700000E0002318461037BD4680BD002E002016
:10348000003C024090B484B000AFF860C7E900236C
:10349000134B1B69124A23F440731361104B1B69D1
:1034A0000F4A43F4407313610D4B1B690C4A43F000
:1034B00001031361FB683A681A60BFF36F8FD7E9A5
:1034C00000124FF000034FF0000413000024FA68CC
:1034D0000432136000BF1037BD4690BC704700BF78
:1034E000003C024080B483B000AF786039600D4B7F
:1034F0001B690C4A23F4407313610A4B1B69094A88
:1035000043F400731361074B1B69064A43F0010340
:1035100013617B683A681A6000BF0C37BD465DF8DE
:10352000047B7047003C024080B483B000AF7860F9
:103530000B467B800D4B1B690C4A23F440731361CF
:103540000A4B1B69094A43F480731361074B1B69DB
:10355000064A43F0010313617B687A881A8000BF32
:103560000C37BD465DF8047B704700BF003C02404D
:1035700080B483B000AF78600B46FB700C4B1B69C6
:103580000B4A23F440731361094B094A1B69136109
:10359000074B1B69064A43F0010313617B68FA7805
:1035A0001A7000BF0C37BD465DF8047B704700BF42
:1035B000003C024080B400AF274BDB6803F01003EF
:1035C000002B08D0254BDB6943F01003234AD3615D
:1035D000214B1022DA60204BDB6803F02003002B24
:1035E00008D01E4BDB6943F008031C4AD3611A4B19
:1035F0002022DA60184BDB6803F04003002B08D070
:10360000164BDB6943F00403144AD361124B40228A
:10361000DA60114BDB6803F08003002B08D00F4BFE
:10362000DB6943F002030D4AD3610B4B8022DA6061
:10363000094BDB6803F00203002B08D0074BDB6962
:1036400043F02003054AD361034B0222DA6000BF36
:10365000BD465DF8047B7047003C0240002E002010
:1036600080B584B000AF786039600123FB7300231C
:10367000BB60314B1B7E012B01D1022358E02E4B46
:1036800001221A764CF25030FFF7BCFE0346FB7362
:10369000FB7B002B48D13B684FF0FF321A607B6800
:1036A0001B68012B15D17B681B69DAB27B685B68EC
:1036B0001946104600F044F84CF25030FFF7A2FED5
:1036C0000346FB731D4B1B691C4A23F00403136163
:1036D00028E07B689B68BB601CE07B681B69DBB2F1
:1036E0001946B86800F050F84CF25030FFF78AFEE7
:1036F0000346FB73114B1B69104A23F0FA03136155
:10370000FB7B002B03D03B68BA681A600AE0BB68F9
:103710000133BB607B68DA687B689B681344BA68D6
:103720009A42DAD300F078F8034B00221A76FB7B3A
:1037300018461037BD4680BD002E0020003C0240D8
:1037400080B483B000AF03463960FB710D4B1B6939
:103750000C4A23F4407313610A4B1B69094A43F076
:1037600004031361074B1A69FB791B021343054AD3
:1037700043F48033136100BF0C37BD465DF8047B12
:10378000704700BF003C024080B485B000AF786055
:103790000B46FB700023FB60FB78002B02D100235B
:1037A000FB6010E0FB78012B03D14FF48073FB60CA
:1037B00009E0FB78022B03D14FF40073FB6002E0B9
:1037C0004FF44073FB60134B1B69124A23F44073A0
:1037D0001361104B1A690F49FB6813430B610D4BC2
:1037E0001B690C4A23F0F80313610A4B1A697B68C2
:1037F000DB001343074A43F002031361054B1B69C7
:10380000044A43F48033136100BF1437BD465DF8AA
:10381000047B7047003C024080B400AF204B1B6823
:1038200003F40073002B17D01D4B1B681C4A23F4B4
:10383000007313601A4B1B68194A43F4006313604A
:10384000174B1B68164A23F400631360144B1B6864
:10385000134A43F400731360114B1B6803F4806335
:10386000002B17D00E4B1B680D4A23F480631360A6
:103870000B4B1B680A4A43F480531360084B1B68C8
:10388000074A23F480531360054B1B68044A43F432
:103890008063136000BFBD465DF8047B704700BFC6
:1038A000003C024080B489B000AF786039600023EA
:1038B0007B6100233B610023BB610023FB616BE163
:1038C0000122FB6902FA03F37B613B681B687A699A
:1038D00013403B613A697B699A4240F05A813B68E8
:1038E0005B68012B0BD03B685B68022B07D03B6801
:1038F0005B68112B03D03B685B68122B30D17B686F
:103900009B68BB61FB695B00032202FA03F3DB43A4
:10391000BA691340BB613B68DA68FB695B0002FA75
:1039200003F3BA691343BB617B68BA699A607B6829
:103930005B68BB610122FB6902FA03F3DB43BA69EE
:103940001340BB613B685B681B0903F00102FB6924
:1039500002FA03F3BA691343BB617B68BA695A6020
:103960007B68DB68BB61FB695B00032202FA03F33F
:10397000DB43BA691340BB613B689A68FB695B0033
:1039800002FA03F3BA691343BB617B68BA69DA6070
:103990003B685B68022B03D03B685B68122B23D12A
:1039A000FB69DA087B68083253F82230BB61FB6997
:1039B00003F007039B000F2202FA03F3DB43BA690B
:1039C0001340BB613B681A69FB6903F007039B0066
:1039D00002FA03F3BA691343BB61FB69DA087B6837
:1039E0000832B96943F822107B681B68BB61FB6928
:1039F0005B00032202FA03F3DB43BA691340BB61A5
:103A00003B685B6803F00302FB695B0002FA03F3A7
:103A1000BA691343BB617B68BA691A603B685B682B
:103A200003F08053002B00F0B4800023FB605F4B59
:103A30005B6C5E4A43F4804353645C4B5B6C03F401
:103A40008043FB60FB685A4AFB699B08023352F8CB
:103A50002330BB61FB6903F003039B000F2202FAD2
:103A600003F3DB43BA691340BB617B68514A93425D
:103A70002BD07B68504A934225D07B684F4A9342B3
:103A80001FD07B684E4A934219D07B684D4A9342BF
:103A900013D07B684C4A93420DD07B684B4A9342CB
:103AA00007D07B684A4A934201D107230EE00823DE
:103AB0000CE006230AE0052308E0042306E00323C4
:103AC00004E0022302E0012300E00023FA6902F08F
:103AD000030292009340BA691343BB613449FB6906
:103AE0009B080233BA6941F823203A4B1B68BB613B
:103AF0003B69DB43BA691340BB613B685B6803F415
:103B00008033002B03D0BA693B691343BB61314A50
:103B1000BB6913602F4B5B68BB613B69DB43BA69D0
:103B20001340BB613B685B6803F40033002B03D098
:103B3000BA693B691343BB61264ABB695360254B95
:103B40009B68BB613B69DB43BA691340BB613B685F
:103B50005B6803F48013002B03D0BA693B691343FD
:103B6000BB611C4ABB6993601A4BDB68BB613B6954
:103B7000DB43BA691340BB613B685B6803F4001325
:103B8000002B03D0BA693B691343BB61114ABB697F
:103B9000D360FB690133FB61FB690F2B7FF690AEAD
:103BA00000BF2437BD465DF8047B704700380240F3
:103BB00000380140000002400004024000080240BA
:103BC000000C0240001002400014024000180240A5
:103BD000001C0240003C014080B485B000AF78601A
:103BE0000B467B807B681A697B881340002B02D0D0
:103BF0000123FB7301E00023FB73FB7B18461437A2
:103C0000BD465DF8047B704780B483B000AF786038
:103C10000B467B8013467B707B78002B03D07A8821
:103C20007B689A6103E07B881A047B689A6100BF15
:103C30000C37BD465DF8047B704780B483B000AF9D
:103C400078600B467B807B685A697B881A407B884A
:103C50009A4204D17B881A047B689A6102E07A88D0
:103C60007B689A6100BF0C37BD465DF8047B7047E6
:103C700080B584B000AF78607B68002B01D1012350
:103C80002BE07B681B684CF6CC421A607B681B6893
:103C900045F255521A607B681B687A6852685A6010
:103CA0007B681B687A6892689A60FFF7C3F9F860CE
:103CB00008E0FFF7BFF90246FB68D31A302B01D9A1
:103CC00003230AE07B681B68DB68002BF1D17B686B
:103CD0001B684AF6AA221A60002318461037BD4610
:103CE00080BD80B483B000AF78607B681B684AF603
:103CF000AA221A60002318460C37BD465DF8047BE3
:103D00007047000080B586B000AF78607B68002BFC
:103D100001D101235BE27B681B6803F00103002BE8
:103D200075D0A34B9B6803F00C03042B0CD0A04B65
:103D30009B6803F00C03082B12D19D4B5B6803F4C6
:103D40008003B3F5800F0BD1994B1B6803F400334C
:103D5000002B5BD07B685B68002B57D1012336E2D8
:103D60007B685B68B3F5803F06D1914B1B68904A36
:103D700043F4803313601DE07B685B68B3F5A02FCC
:103D80000CD18B4B1B688A4A43F480231360884B09
:103D90001B68874A43F4803313600BE0844B1B6835
:103DA000834A23F480331360814B1B68804A23F4D9
:103DB000802313607B685B68002B13D0FFF73AF910
:103DC000386108E0FFF736F902463B69D31A642BE5
:103DD00001D90323FBE1764B1B6803F40033002B6E
:103DE000F0D014E0FFF726F9386108E0FFF722F978
:103DF00002463B69D31A642B01D90323E7E16C4BDC
:103E00001B6803F40033002BF0D100E000BF7B6897
:103E10001B6803F00203002B63D0654B9B6803F023
:103E20000C03002B0BD0624B9B6803F00C03082B98
:103E30001CD15F4B5B6803F48003002B16D15C4BF5
:103E40001B6803F00203002B05D07B68DB68012BA5
:103E500001D00123BBE1564B1B6823F0F8027B68BD
:103E60001B69DB00524913430B603AE07B68DB6857
:103E7000002B20D04F4B01221A60FFF7DBF838618E
:103E800008E0FFF7D7F802463B69D31A022B01D9A5
:103E900003239CE1464B1B6803F00203002BF0D088
:103EA000434B1B6823F0F8027B681B69DB00404929
:103EB00013430B6015E03F4B00221A60FFF7BAF87E
:103EC000386108E0FFF7B6F802463B69D31A022BC7
:103ED00001D903237BE1364B1B6803F00203002B5F
:103EE000F0D17B681B6803F00803002B30D07B689F
:103EF0005B69002B16D0304B01221A60FFF79AF84D
:103F0000386108E0FFF796F802463B69D31A022BA6
:103F100001D903235BE1264B5B6F03F00203002B07
:103F2000F0D015E0244B00221A60FFF783F83861C7
:103F300008E0FFF77FF802463B69D31A022B01D94C
:103F4000032344E11A4B5B6F03F00203002BF0D113
:103F50007B681B6803F00403002B00F0A0800023A3
:103F6000FB75134B1B6C03F08053002B0FD1002308
:103F7000BB600F4B1B6C0E4A43F0805313640C4B19
:103F80001B6C03F08053BB60BB680123FB750B4BBC
:103F90001B6803F48073002B21D1084B1B68074A70
:103FA00043F480731360FFF745F8386111E000BFF8
:103FB0000038024000004742800E47420070004037
:103FC000FFF738F802463B69D31A022B01D90323C5
:103FD000FDE0814B1B6803F48073002BF0D07B68FD
:103FE0009B68012B06D17D4B1B6F7C4A43F001037C
:103FF00013671CE07B689B68052B0CD1774B1B6F0C
:10400000764A43F004031367744B1B6F734A43F003
:10401000010313670BE0714B1B6F704A23F0010320
:1040200013676E4B1B6F6D4A23F0040313677B68A5
:104030009B68002B15D0FEF7FDFF38610AE0FEF704
:10404000F9FF02463B69D31A41F28832934201D903
:104050000323BCE0614B1B6F03F00203002BEED087
:1040600014E0FEF7E7FF38610AE0FEF7E3FF0246DF
:104070003B69D31A41F28832934201D90323A6E067
:10408000564B1B6F03F00203002BEED1FB7D012B7F
:1040900005D1524B1B6C514A23F0805313647B684B
:1040A0009B69002B00F092804C4B9B6803F00C0343
:1040B000082B5CD07B689B69022B41D1484B0022C6
:1040C0001A60FEF7B7FF386108E0FEF7B3FF02465B
:1040D0003B69D31A022B01D9032378E03F4B1B68BD
:1040E00003F00073002BF0D17B68DA697B681B6AF0
:1040F0001A437B685B6A9B011A437B689B6A5B0877
:10410000013B1B041A437B68DB6A1B0633491343DC
:104110004B60334B01221A60FEF78CFF386108E0D8
:10412000FEF788FF02463B69D31A022B01D903230D
:104130004DE02A4B1B6803F00073002BF0D045E0E4
:10414000274B00221A60FEF775FF386108E0FEF782
:1041500071FF02463B69D31A022B01D9032336E0D3
:104160001E4B1B6803F00073002BF0D12EE07B6820
:104170009B69012B01D1012329E0184B5B68FB608F
:10418000FB6803F480027B68DB699A421CD1FB6800
:1041900003F03F027B681B6A9A4215D1FA6847F622
:1041A000C07313407A68526A93420DD1FB6803F4DE
:1041B00040327B689B6A9A4206D1FB6803F07062CA
:1041C0007B68DB6A9A4201D0012300E00023184695
:1041D0001837BD4680BD00BF007000400038024067
:1041E0006000474280B584B000AF786039607B687A
:1041F000002B01D10123CCE0684B1B6803F00F03B7
:104200003A689A420CD9654B3A68D2B21A70634B3D
:104210001B6803F00F033A689A4201D00123B8E00B
:104220007B681B6803F00203002B20D07B681B68AF
:1042300003F00403002B05D0594B9B68584A43F404
:10424000E05393607B681B6803F00803002B05D0E4
:10425000534B9B68524A43F460439360504B9B68B6
:1042600023F0F0027B689B684D4913438B607B68A9
:104270001B6803F00103002B44D07B685B68012BB3
:1042800007D1474B1B6803F40033002B19D10123DE
:104290007FE07B685B68022B03D07B685B68032B45
:1042A00007D13F4B1B6803F00073002B09D101239A
:1042B0006FE03B4B1B6803F00203002B01D101238D
:1042C00067E0374B9B6823F003027B685B683449E7
:1042D00013438B60FEF7AEFEF8600AE0FEF7AAFE1D
:1042E0000246FB68D31A41F28832934201D9032374
:1042F0004FE02B4B9B6803F00C027B685B689B00D4
:104300009A42EBD1254B1B6803F00F033A689A429F
:104310000CD2224B3A68D2B21A70204B1B6803F0C1
:104320000F033A689A4201D0012332E07B681B6890
:1043300003F00403002B08D0194B9B6823F4E052D0
:104340007B68DB68164913438B607B681B6803F04E
:104350000803002B09D0124B9B6823F460427B6852
:104360001B69DB000E4913438B6000F021F8014606
:104370000B4B9B681B0903F00F030A4AD35C21FA1D
:1043800003F3094A1360094B1B681846FEF70EFE3B
:10439000002318461037BD4680BD00BF003C0240D8
:1043A0000038024068B60008040000202800002001
:1043B000F0B585B000AF00237B600023FB600023D5
:1043C0003B600023BB60504B9B6803F00C03042B45
:1043D00007D0082B08D0002B40F08D804B4BBB60E2
:1043E0008CE04B4BBB6089E0474B5B6803F03F03BD
:1043F0007B60454B5B6803F48003002B23D0424B6A
:104400005B689B094FF0000440F2FF114FF000027F
:1044100003EA010504EA02063D4A02FB06F1002216
:1044200002FB05F20A443A49A5FB0101531819465B
:104430007B684FF000041A462346FCF7C5FB034691
:104440000C46FB6049E0304B5B689B094FF0000471
:1044500040F2FF114FF0000203EA010504EA0206F0
:10446000294632464FF000034FF00004540144EA5D
:10447000D1644B0119462246491B62EB06024FF0FC
:1044800000034FF00004940144EA91648B015B1A2D
:1044900064EB02044FF000014FF00002E20042EA38
:1044A0005372D9000B4614465B1944EB06044FF0D7
:1044B00000014FF00002A20242EA935299020B4619
:1044C0001446184621467B684FF000041A462346DE
:1044D000FCF77AFB03460C46FB600B4B5B681B0C3E
:1044E00003F0030301335B003B60FA683B68B2FBF7
:1044F000F3F3BB6002E0054BBB6000BFBB6818462E
:104500001437BD46F0BD00BF003802400024F4005F
:1045100040787D0180B400AF034B1B681846BD4650
:104520005DF8047B704700BF0400002080B500AF39
:10453000FFF7F0FF0146054B9B689B0A03F007035A
:10454000034AD35C21FA03F3184680BD00380240C9
:1045500078B6000880B500AFFFF7DCFF0146054BD9
:104560009B685B0B03F00703034AD35C21FA03F358
:10457000184680BD0038024078B6000880B582B089
:1045800000AF78607B68002B01D1012356E07B6887
:1045900000229A627B6893F85130DBB2002B06D17F
:1045A0007B68002283F850207868FDF7A9FF7B68BC
:1045B000022283F851207B681B681A687B681B689D
:1045C00022F040021A607B685A687B689B681A4335
:1045D0007B68DB681A437B681B691A437B685B69ED
:1045E0001A437B689B6903F400731A437B68DB6999
:1045F0001A437B681B6A42EA03017B689A6A7B68FC
:104600001B680A431A607B689B691B0C03F004015A
:104610007B685A6A7B681B680A435A607B681B6820
:10462000DA697B681B6822F40062DA617B68002229
:104630005A657B68012283F8512000231846083709
:10464000BD4680BD80B588B000AFF860B9603B6002
:104650001346FB800023FB77FB6893F85030012B57
:1046600001D102231EE1FB68012283F85020FEF7EE
:10467000E1FCB861FB88FB82FB6893F85130DBB248
:10468000012B02D00223FB7703E1BB68002B02D091
:10469000FB88002B02D10123FB77FAE0FB680322A1
:1046A00083F85120FB6800225A65FB68BA681A63D8
:1046B000FB68FA889A86FB68FA88DA86FB6800222B
:1046C0009A63FB6800229A87FB680022DA87FB68FE
:1046D00000225A64FB6800221A64FB689B68B3F5E9
:1046E000004F07D1FB681B681A68FB681B6842F41F
:1046F00080421A60FB681B681B6803F04003402B74
:1047000007D0FB681B681A68FB681B6842F0400210
:104710001A60FB68DB68B3F5006F4BD1FB685B6820
:10472000002B02D0FB8A012B3ED1FB681B6B1A8841
:10473000FB681B68DA60FB681B6B9A1CFB681A63DA
:10474000FB68DB8E9BB2013B9AB2FB68DA862BE0FA
:10475000FB681B689B6803F00203022B12D1FB6805
:104760001B6B1A88FB681B68DA60FB681B6B9A1C62
:10477000FB681A63FB68DB8E9BB2013B9AB2FB6855
:10478000DA8611E0FEF756FC0246BB69D31A3A6896
:104790009A4203D83B68B3F1FF3F02D13B68002B3C
:1047A00002D10323FB7774E0FB68DB8E9BB2002B06
:1047B000CED14CE0FB685B68002B02D0FB8A012B5A
:1047C00040D1FB681A6BFB681B680C3312781A70B7
:1047D000FB681B6B5A1CFB681A63FB68DB8E9BB281
:1047E000013B9AB2FB68DA862CE0FB681B689B6889
:1047F00003F00203022B13D1FB681A6BFB681B68E2
:104800000C3312781A70FB681B6B5A1CFB681A6316
:10481000FB68DB8E9BB2013B9AB2FB68DA8611E043
:10482000FEF708FC0246BB69D31A3A689A4203D8DD
:104830003B68B3F1FF3F02D13B68002B02D1032359
:10484000FB7726E0FB68DB8E9BB2002BCDD1BA69EB
:104850003968F86800F0A4FB0346002B02D0FB681F
:1048600020225A65FB689B68002B0AD100233B611C
:10487000FB681B68DB683B61FB681B689B683B61EE
:104880003B69FB685B6D002B02D00123FB7700E0E6
:1048900000BFFB68012283F85120FB68002283F8E7
:1048A0005020FB7F18462037BD4680BD80B588B0BC
:1048B00002AFF860B9603B601346FB800023FB75D4
:1048C000FB685B68B3F5827F12D1FB689B68002BA5
:1048D0000ED1FB68042283F85120FA883B680093CC
:1048E0001346BA68B968F86800F0E9F80346E2E0F0
:1048F000FB6893F85030012B01D10223DBE0FB6809
:10490000012283F85020FEF795FB3861FB6893F88D
:104910005130DBB2012B02D00223FB75C2E0BB6831
:10492000002B02D0FB88002B02D10123FB75B9E0DC
:10493000FB68042283F85120FB6800225A65FB685B
:10494000BA689A63FB68FA889A87FB68FA88DA87FC
:10495000FB6800221A63FB6800229A86FB6800222B
:10496000DA86FB6800221A64FB6800225A64FB683E
:104970009B68B3F5004F07D1FB681B681A68FB689A
:104980001B6822F480421A60FB681B681B6803F0F6
:104990004003402B07D0FB681B681A68FB681B6844
:1049A00042F040021A60FB68DB68002B62D12EE007
:1049B000FB681B689B6803F00103012B15D1FB68A2
:1049C0001B6803F10C02FB689B6B1278D2B21A7061
:1049D000FB689B6B5A1CFB689A63FB68DB8F9BB27E
:1049E000013B9AB2FB68DA8711E0FEF723FB02462F
:1049F0003B69D31A3A689A4203D83B68B3F1FF3F48
:104A000002D13B68002B02D10323FB754AE0FB680F
:104A1000DB8F9BB2002BCBD131E0FB681B689B681E
:104A200003F00103012B13D1FB681B68DA68FB68F4
:104A30009B6B92B21A80FB689B6B9A1CFB689A6313
:104A4000FB68DB8F9BB2013B9AB2FB68DA8711E00F
:104A5000FEF7F0FA02463B69D31A3A689A4203D845
:104A60003B68B3F1FF3F02D13B68002B02D1032327
:104A7000FB7517E0FB68DB8F9BB2002BCDD13A6949
:104A80003968F86800F027FA0346002B02D0FB686B
:104A900020225A65FB685B6D002B02D00123FB7559
:104AA00000E000BFFB68012283F85120FB68002270
:104AB00083F85020FB7D18461837BD4680BD80B571
:104AC0008CB000AFF860B9607A607B800123FB6234
:104AD000002387F82B30FB6893F85030012B01D16D
:104AE00002238AE1FB68012283F85020FEF7A2FA34
:104AF0007862FB6893F8513087F82330FB685B6875
:104B0000FB617B887B8397F82330012B0FD0FB69F7
:104B1000B3F5827F07D1FB689B68002B03D197F820
:104B20002330042B03D0022387F82B305BE1BB68D2
:104B3000002B05D07B68002B02D07B88002B03D193
:104B4000012387F82B304EE1FB6893F85130DBB23C
:104B5000042B03D0FB68052283F85120FB68002258
:104B60005A65FB687A689A63FB687A88DA87FB681B
:104B70007A889A87FB68BA681A63FB687A88DA864B
:104B8000FB687A889A86FB6800221A64FB68002218
:104B90005A64FB681B681B6803F04003402B07D076
:104BA000FB681B681A68FB681B6842F040021A60C9
:104BB000FB68DB68B3F5006F78D1FB685B68002B9E
:104BC00002D07B8B012B66D1FB681B6B1A88FB68BC
:104BD0001B68DA60FB681B6B9A1CFB681A63FB6836
:104BE000DB8E9BB2013B9AB2FB68DA8653E0FB682E
:104BF0001B689B6803F00203022B1BD1FB68DB8E52
:104C00009BB2002B16D0FB6A012B13D1FB681B6BE8
:104C10001A88FB681B68DA60FB681B6B9A1CFB68D0
:104C20001A63FB68DB8E9BB2013B9AB2FB68DA86A3
:104C30000023FB62FB681B689B6803F00103012BE8
:104C400019D1FB68DB8F9BB2002B14D0FB681B686B
:104C5000DA68FB689B6B92B21A80FB689B6B9A1CAC
:104C6000FB689A63FB68DB8F9BB2013B9AB2FB68DF
:104C7000DA870123FB62FEF7DDF902467B6AD31A6D
:104C8000BA6B9A4207D8BB6BB3F1FF3F03D0032343
:104C900087F82B30A7E0FB68DB8E9BB2002BA6D1F8
:104CA000FB68DB8F9BB2002BA1D17CE0FB685B68CB
:104CB000002B02D07B8B012B6BD1FB681A6BFB683E
:104CC0001B680C3312781A70FB681B6B5A1CFB684C
:104CD0001A63FB68DB8E9BB2013B9AB2FB68DA86F3
:104CE00057E0FB681B689B6803F00203022B1CD192
:104CF000FB68DB8E9BB2002B17D0FB6A012B14D113
:104D0000FB681A6BFB681B680C3312781A70FB681F
:104D10001B6B5A1CFB681A63FB68DB8E9BB2013B62
:104D20009AB2FB68DA860023FB62FB681B689B680B
:104D300003F00103012B19D1FB68DB8F9BB2002B21
:104D400014D0FB681B68DA68FB689B6BD2B21A70E0
:104D5000FB689B6B5A1CFB689A63FB68DB8F9BB2FA
:104D6000013B9AB2FB68DA870123FB62FEF762F926
:104D700002467B6AD31ABA6B9A4203D8BB6BB3F173
:104D8000FF3F02D1BB6B002B03D1032387F82B30ED
:104D900029E0FB68DB8E9BB2002BA2D1FB68DB8F86
:104DA0009BB2002B9DD17A6AB96BF86800F0F8F8D5
:104DB0000346002B06D0012387F82B30FB68202206
:104DC0005A6510E0FB689B68002B0BD100237B61C8
:104DD000FB681B68DB687B61FB681B689B687B6109
:104DE0007B6900E000BFFB68012283F85120FB686B
:104DF000002283F8502097F82B3018463037BD46F4
:104E000080BD80B584B000AFF860B9603B601346E8
:104E1000FB714CE03B68B3F1FF3F48D0FEF70AF965
:104E20000246BB69D31A3A689A4202D93B68002B02
:104E30003DD1FB681B685A68FB681B6822F0E002E2
:104E40005A60FB685B68B3F5827F11D1FB689B6891
:104E5000B3F5004F04D0FB689B68B3F5806F07D1B2
:104E6000FB681B681A68FB681B6822F040021A6026
:104E7000FB689B6AB3F5005F0FD1FB681B681A687B
:104E8000FB681B6822F400521A60FB681B681A68F2
:104E9000FB681B6842F400521A60FB68012283F829
:104EA0005120FB68002283F8502003230FE0FB68A9
:104EB0001B689A68BB681340BA689A420CBF01230A
:104EC0000023DBB21A46FB799A42A3D1002318468D
:104ED0001037BD4680BD80B586B002AFF860B960BE
:104EE0007A60FB685B68B3F5827F11D1FB689B68D1
:104EF000B3F5004F04D0FB689B68B3F5806F07D112
:104F0000FB681B681A68FB681B6822F040021A6085
:104F1000FB685B68B3F5827F2AD1FB689B68B3F5B9
:104F2000806F12D07B680093BB6800228021F868F4
:104F3000FFF767FF0346002B2DD0FB685B6D43F046
:104F40002002FB685A65032326E07B680093BB6858
:104F500000220121F868FFF754FF0346002B1AD006
:104F6000FB685B6D43F02002FB685A65032313E086
:104F70007B680093BB6800220121F868FFF741FFBE
:104F80000346002B07D0FB685B6D43F02002FB68F3
:104F90005A65032300E0002318461037BD4680BD44
:104FA00080B588B002AFF860B9607A601B4B1B68AF
:104FB0001B4AA2FB03235B0D4FF47A7202FB03F33F
:104FC0007B61FB685B68B3F5827F12D17B680093DD
:104FD000BB6800228021F868FFF713FF0346002B0F
:104FE00016D0FB685B6D43F02002FB685A65032313
:104FF0000FE07B69002B0AD07B69013B7B61FB687A
:105000001B689B6803F08003802BF2D000E000BF98
:10501000002318461837BD4680BD00BF040000209D
:10502000819F5E1680B582B000AF78607B68002BF0
:1050300001D101231DE07B6893F83D30DBB2002BEA
:1050400006D17B68002283F83C207868FDF772FC6B
:105050007B68022283F83D207B681A687B680433F2
:105060001946104600F0D0F87B68012283F83D20F5
:10507000002318460837BD4680BD000080B584B0C7
:1050800000AFF860B9607A60FB6893F83C30012BA0
:1050900001D10223B4E0FB68012283F83C20FB68C5
:1050A000022283F83D207B680C2B00F29F8001A236
:1050B00052F823F0E9500008ED510008ED510008C6
:1050C000ED51000829510008ED510008ED5100088C
:1050D000ED5100086B510008ED510008ED5100083A
:1050E000ED510008AB510008FB681B68B968184611
:1050F00000F02AF9FB681B689A69FB681B6842F09C
:1051000008029A61FB681B689A69FB681B6822F0B9
:1051100004029A61FB681B689969BB681A69FB689D
:105120001B680A439A6162E0FB681B68B96818460D
:1051300000F07AF9FB681B689A69FB681B6842F407
:1051400000629A61FB681B689A69FB681B6822F41D
:1051500080629A61FB681B689969BB681B691A02C7
:10516000FB681B680A439A6141E0FB681B68B968E9
:10517000184600F0CFF9FB681B68DA69FB681B680A
:1051800042F00802DA61FB681B68DA69FB681B6899
:1051900022F00402DA61FB681B68D969BB681A69EE
:1051A000FB681B680A43DA6121E0FB681B68B96889
:1051B000184600F023FAFB681B68DA69FB681B6875
:1051C00042F40062DA61FB681B68DA69FB681B68FD
:1051D00022F48062DA61FB681B68D969BB681B69CD
:1051E0001A02FB681B680A43DA6100E000BFFB6833
:1051F000012283F83D20FB68002283F83C20002335
:1052000018461037BD4680BD80B485B000AF7860C9
:1052100039607B681B68FB607B68404A934213D00F
:105220007B68B3F1804F0FD07B683D4A93420BD02F
:105230007B683C4A934207D07B683B4A934203D049
:105240007B683A4A934208D1FB6823F07003FB6005
:105250003B685B68FA681343FB607B682F4A9342A4
:105260002BD07B68B3F1804F27D07B682C4A9342C8
:1052700023D07B682B4A93421FD07B682A4A9342F3
:105280001BD07B68294A934217D07B68284A9342F7
:1052900013D07B68274A93420FD07B68264A9342FB
:1052A0000BD07B68254A934207D07B68244A9342FF
:1052B00003D07B68234A934208D1FB6823F44073F0
:1052C000FB603B68DB68FA681343FB60FB6823F014
:1052D00080023B685B691343FB607B68FA681A6075
:1052E0003B689A687B68DA623B681A687B689A62F6
:1052F0007B680A4A934203D07B680C4A934203D1ED
:105300003B681A697B681A637B6801225A6100BF97
:105310001437BD465DF8047B704700BF00000140B4
:105320000004004000080040000C00400004014060
:105330000040014000440140004801400018004086
:10534000001C00400020004080B487B000AF7860AF
:1053500039607B681B6A23F001027B681A627B68F4
:105360001B6A7B617B685B683B617B689B69FB6058
:10537000FB6823F07003FB60FB6823F00303FB6012
:105380003B681B68FA681343FB607B6923F00203E8
:105390007B613B689B687A6913437B617B68204A29
:1053A000934203D07B681F4A93420CD17B6923F060
:1053B00008037B613B68DB687A6913437B617B6927
:1053C00023F004037B617B68154A934203D07B681A
:1053D000144A934211D13B6923F480733B613B69CA
:1053E00023F400733B613B685B693A6913433B619B
:1053F0003B689B693A6913433B617B683A695A6031
:105400007B68FA689A613B685A687B685A637B6874
:105410007A691A6200BF1C37BD465DF8047B70478D
:10542000000001400004014080B487B000AF786004
:1054300039607B681B6A23F010027B681A627B6804
:105440001B6A7B617B685B683B617B689B69FB6077
:10545000FB6823F4E043FB60FB6823F44073FB60CC
:105460003B681B681B02FA681343FB607B6923F0EF
:1054700020037B613B689B681B017A6913437B6156
:105480007B68224A934203D07B68214A93420DD124
:105490007B6923F080037B613B68DB681B017A69D1
:1054A00013437B617B6923F040037B617B68174A70
:1054B000934203D07B68164A934213D13B6923F48D
:1054C00080633B613B6923F400633B613B685B693C
:1054D0009B003A6913433B613B689B699B003A69B7
:1054E00013433B617B683A695A607B68FA689A614A
:1054F0003B685A687B689A637B687A691A6200BF66
:105500001C37BD465DF8047B704700BF00000140BA
:105510000004014080B487B000AF786039607B68D8
:105520001B6A23F480727B681A627B681B6A7B614A
:105530007B685B683B617B68DB69FB60FB6823F031
:105540007003FB60FB6823F00303FB603B681B6890
:10555000FA681343FB607B6923F400737B613B684B
:105560009B681B027A6913437B617B68214A9342E3
:1055700003D07B68204A93420DD17B6923F40063FA
:105580007B613B68DB681B027A6913437B617B6943
:1055900023F480637B617B68164A934203D07B6867
:1055A000154A934213D13B6923F480533B613B6915
:1055B00023F400533B613B685B691B013A69134369
:1055C0003B613B689B691B013A6913433B617B6804
:1055D0003A695A607B68FA68DA613B685A687B68A6
:1055E000DA637B687A691A6200BF1C37BD465DF8D2
:1055F000047B7047000001400004014080B487B084
:1056000000AF786039607B681B6A23F480527B6846
:105610001A627B681B6A3B617B685B687B617B68A5
:10562000DB69FB60FB6823F4E043FB60FB6823F469
:105630004073FB603B681B681B02FA681343FB6006
:105640003B6923F400533B613B689B681B033A6949
:1056500013433B617B68124A934203D07B68114A33
:10566000934209D17B6923F480437B613B685B698A
:105670009B017A6913437B617B687A695A607B6816
:10568000FA68DA613B685A687B681A647B683A6931
:105690001A6200BF1C37BD465DF8047B704700BF2F
:1056A000000001400004014080B485B000AF786084
:1056B00039607B6893F83C30012B01D102235AE01A
:1056C0007B68012283F83C207B68022283F83D201E
:1056D0007B681B685B68FB607B681B689B68BB60C2
:1056E000FB6823F07003FB603B681B68FA68134398
:1056F000FB607B681B68FA685A607B681B68214AFC
:10570000934222D07B681B68B3F1804F1DD07B6829
:105710001B681D4A934218D07B681B681B4A934242
:1057200013D07B681B681A4A93420ED07B681B68B3
:10573000184A934209D07B681B68174A934204D0E9
:105740007B681B68154A93420CD1BB6823F0800329
:10575000BB603B685B68BA681343BB607B681B68CF
:10576000BA689A607B68012283F83D207B6800223A
:1057700083F83C20002318461437BD465DF8047BAF
:10578000704700BF000001400004004000080040D6
:10579000000C00400004014000400140001800409F
:1057A00080B582B000AF78607B68002B01D1012307
:1057B0003FE07B6893F83930DBB2002B06D17B6881
:1057C000002283F838207868FDF74CF97B682422A2
:1057D00083F839207B681B68DA687B681B6822F4D1
:1057E0000052DA60786800F04BFB7B681B681A692E
:1057F0007B681B6822F490421A617B681B685A69B7
:105800007B681B6822F02A025A617B681B68DA6891
:105810007B681B6842F40052DA607B680022DA631E
:105820007B68202283F839207B68202283F83A2085
:10583000002318460837BD4680BD80B588B002AF4A
:10584000F860B9603B601346FB8000237B61FB6816
:1058500093F83930DBB2202B40F08380BB68002BFB
:1058600002D0FB88002B01D101237BE0FB6893F879
:105870003830012B01D1022374E0FB68012283F848
:105880003820FB680022DA63FB68212283F8392084
:10589000FDF7D0FB7861FB68FA889A84FB68FA8888
:1058A000DA84FB68002283F8382042E0FB68DB8C56
:1058B0009BB2013B9AB2FB68DA84FB689B68B3F544
:1058C000805F22D13B6800937B6900228021F868C9
:1058D00000F06AF90346002B01D0032342E0BB68C5
:1058E0003B613B691B881A46FB681B68C2F30802D0
:1058F0005A60FB681B69002B03D1BB680233BB6095
:1059000017E0BB680133BB6013E03B6800937B6921
:1059100000228021F86800F047F90346002B01D0EF
:1059200003231FE0BB685A1CBA601A78FB681B6827
:105930005A60FB68DB8C9BB2002BB7D13B680093AD
:105940007B6900224021F86800F02EF90346002B05
:1059500001D0032306E0FB68202283F839200023CE
:1059600000E0022318461837BD4680BD80B588B0D8
:1059700000AF78607B681B681B68FB617B681B68F5
:10598000DB68BB617B681B685B697B6100233B61F3
:105990000023FB60FB6903F00F033B613B69002BB5
:1059A0000DD1FB6903F02003002B08D0BB6903F085
:1059B0002003002B03D0786800F0E0F9D1E03B69C8
:1059C000002B00F0B0807B6903F00103002B05D1B0
:1059D000BB6903F49073002B00F0A580FB6903F012
:1059E0000103002B0AD0BB6903F48073002B05D0A0
:1059F0007B68DB6B43F001027B68DA63FB6903F0D1
:105A00000403002B0AD07B6903F00103002B05D0AF
:105A10007B68DB6B43F002027B68DA63FB6903F0AF
:105A20000203002B0AD07B6903F00103002B05D091
:105A30007B68DB6B43F004027B68DA63FB6903F08D
:105A40000803002B0FD0BB6903F02003002B04D107
:105A50007B6903F00103002B05D07B68DB6B43F00F
:105A600008027B68DA637B68DB6B002B78D0FB690C
:105A700003F02003002B07D0BB6903F02003002BA9
:105A800002D0786800F07AF97B681B685B6903F0E4
:105A90004003402B0CBF01230023DBB2FB607B687B
:105AA000DB6B03F00803002B02D1FB68002B31D025
:105AB000786800F0C3F87B681B685B6903F04003FB
:105AC000402B23D17B681B685A697B681B6822F0D6
:105AD00040025A617B685B6B002B13D07B685B6B69
