:020000040802F0
:1000000000000220E5590208255002082B50020882
:1000100031500208375002083D500208000000002D
:100020000000000000000000000000004350020833
:1000300051500208000000005F5002086D50020895
:10004000355A0208355A0208355A0208355A02084C
:10005000355A0208355A0208355A0208355A02083C
:10006000355A0208355A0208355A0208355A02082C
:10007000355A0208355A0208355A0208355A02081C
:10008000355A0208355A0208355A0208355A02080C
:10009000355A0208355A0208355A0208355A0208FC
:1000A000355A0208355A0208355A0208355A0208EC
:1000B000355A0208355A0208355A0208355A0208DC
:1000C000355A0208355A0208355A0208355A0208CC
:1000D000355A020815510208355A0208355A0208E5
:1000E000355A0208355A0208355A0208355A0208AC
:1000F000355A0208355A0208355A0208355A02089C
:10010000355A0208355A0208355A0208355A02088B
:10011000355A0208355A0208355A0208355A02087B
:10012000355A0208355A0208355A0208355A02086B
:10013000355A0208355A0208355A0208355A02085B
:10014000355A0208355A0208355A0208355A02084B
:10015000355A0208355A0208355A0208355A02083B
:10016000355A0208355A0208355A0208355A02082B
:10017000355A0208355A0208355A020800000000B4
:08018000355A0208355A020845
:1001900010B5054C237833B9044B13B10448AFF3C1
:1001A00000800123237010BD2C02002000000000FD
:1001B00068E1020808B5034B1BB103490348AFF3DC
:1001C000008008BD000000003002002068E1020845
:1001D00010F8012B11F8013B012A28BF9A42F7D0F1
:1001E000D01A7047034613F8012B002AFBD1181AC6
:1001F000013870470000000000000000000000000F
:1002000001F0FF01102A2BDB10F0070F08D010F8C7
:10021000013B013A8B422DD010F0070F42B3F6D1CB
:10022000F0B441EA012141EA014122F007047FF0E4
:1002300000070023F0E80256083C85EA010586EA3B
:10024000010685FA47F5A3FA87F586FA47F6A5FA77
:1002500087F68EB9EED1F0BC01F0FF0102F0070283
:1002600032B110F8013B013A83EA010313B1F8D12E
:100270000020704701387047002D06BF354603380F
:10028000073815F0010F07D1013015F4807F02BF48
:10029000013015F4C03F0130F0BC0138704700BF99
:1002A00081F0004102E000BF83F0004330B54FEA27
:1002B00041044FEA430594EA050F08BF90EA020F94
:1002C0001FBF54EA000C55EA020C7FEA645C7FEA27
:1002D000655C00F0E2804FEA5454D4EB5555B8BF4A
:1002E0006D420CDD2C4480EA020281EA030382EABB
:1002F000000083EA010180EA020281EA0303362D4D
:1003000088BF30BD11F0004F4FEA01314FF4801C1F
:100310004CEA113102D0404261EB410113F0004F31
:100320004FEA03334CEA133302D0524263EB4303E8
:1003300094EA050F00F0A780A4F10104D5F1200E86
:100340000DDB02FA0EFC22FA05F2801841F10001E1
:1003500003FA0EF2801843FA05F359410EE0A5F1B5
:1003600020050EF1200E012A03FA0EFC28BF4CF0E6
:10037000020C43FA05F3C01851EBE37101F000459C
:1003800007D54FF0000EDCF1000C7EEB00006EEBA9
:100390000101B1F5801F1BD3B1F5001F0CD3490833
:1003A0005FEA30004FEA3C0C04F101044FEA44528A
:1003B00012F5800F80F09A80BCF1004F08BF5FEA11
:1003C000500C50F1000041EB045141EA050130BDF1
:1003D0005FEA4C0C404141EB010111F4801FA4F194
:1003E0000104E9D191F0000F04BF01460020B1FAE9
:1003F00081F308BF2033A3F10B03B3F120020CDA21
:100400000C3208DD02F1140CC2F10C0201FA0CF0FE
:1004100021FA02F10CE002F11402D8BFC2F1200C63
:1004200001FA02F120FA0CFCDCBF41EA0C01904019
:10043000E41AA2BF01EB0451294330BD6FEA040462
:100440001F3C1CDA0C340EDC04F11404C4F120024D
:1004500020FA04F001FA02F340EA030021FA04F35F
:1004600045EA030130BDC4F10C04C4F1200220FAB6
:1004700002F001FA04F340EA0300294630BD21FAF4
:1004800004F0294630BD94F0000F83F4801306BFBA
:1004900081F480110134013D4EE77FEA645C18BFAE
:1004A0007FEA655C29D094EA050F08BF90EA020F45
:1004B00005D054EA000C04BF1946104630BD91EA3D
:1004C000030F1EBF0021002030BD5FEA545C05D140
:1004D0004000494128BF41F0004130BD14F580047F
:1004E0003CBF01F5801130BD01F0004545F0FE41F3
:1004F00041F470014FF0000030BD7FEA645C1ABF28
:10050000194610467FEA655C1CBF0B46024650EA5E
:10051000013406BF52EA033591EA030F41F400218A
:1005200030BD00BF90F0000F04BF0021704730B510
:100530004FF4806404F132044FF000054FF00001E5
:1005400050E700BF90F0000F04BF0021704730B5A6
:100550004FF4806404F1320410F0004548BF40427B
:100560004FF000013EE700BF42004FEAE2014FEAD0
:1005700031014FEA02701FBF12F07F4393F07F4FAB
:1005800081F06051704732F07F4208BF704793F0AE
:100590007F4F04BF41F40021704730B54FF46074C1
:1005A00001F0004521F000411CE700BF50EA0102C4
:1005B00008BF704730B54FF000050AE050EA01026D
:1005C00008BF704730B511F0004502D5404261EBDD
:1005D00041014FF4806404F132045FEA915C3FF41E
:1005E000D8AE4FF003025FEADC0C18BF03325FEABB
:1005F000DC0C18BF033202EBDC02C2F1200300FA6C
:1006000003FC20FA02F001FA03FE40EA0E0021FA90
:1006100002F11444BDE600BF70B54FF0FF0C4CF47E
:10062000E06C1CEA11541DBF1CEA135594EA0C0F30
:1006300095EA0C0F00F0DEF82C4481EA030621EA6B
:100640004C5123EA4C5350EA013518BF52EA0335A6
:1006500041F4801143F4801338D0A0FB02CE4FF058
:100660000005E1FB02E506F00042E0FB03E54FF088
:100670000006E1FB03569CF0000F18BF4EF0010E80
:10068000A4F1FF04B6F5007F64F5407404D25FEA7C
:100690004E0E6D4146EB060642EAC62141EA55512F
:1006A0004FEAC52040EA5E504FEACE2EB4F1FD0C71
:1006B00088BFBCF5E06F1ED8BEF1004F08BF5FEAEF
:1006C000500E50F1000041EB045170BD06F00046A1
:1006D00046EA010140EA020081EA0301B4EB5C044E
:1006E000C2BFD4EB0C0541EA045170BD41F4801146
:1006F0004FF0000E013C00F3AB8014F1360FDEBF6B
:10070000002001F0004170BDC4F10004203C35DA46
:100710000C341BDC04F11404C4F1200500FA05F3C9
:1007200020FA04F001FA05F240EA020001F000426A
:1007300021F0004110EBD37021FA04F642EB0601E0
:100740005EEA430E08BF20EAD37070BDC4F10C040A
:10075000C4F1200500FA04F320FA05F001FA04F2CE
:1007600040EA020001F0004110EBD37041F10001BA
:100770005EEA430E08BF20EAD37070BDC4F12005C5
:1007800000FA05F24EEA020E20FA04F301FA05F22D
:1007900043EA020321FA04F001F0004121FA04F2D5
:1007A00020EA020000EBD3705EEA430E08BF20EAA5
:1007B000D37070BD94F0000F0FD101F000464000DF
:1007C00041EB010111F4801F08BF013CF7D041EA61
:1007D000060195F0000F18BF704703F00046520065
:1007E00043EB030313F4801F08BF013DF7D043EA36
:1007F0000603704794EA0C0F0CEA135518BF95EAEC
:100800000C0F0CD050EA410618BF52EA4306D1D172
:1008100081EA030101F000414FF0000070BD50EA91
:10082000410606BF1046194652EA430619D094EA1B
:100830000C0F02D150EA013613D195EA0C0F05D105
:1008400052EA03361CBF104619460AD181EA030159
:1008500001F0004141F0FE4141F470014FF0000011
:1008600070BD41F0FE4141F4780170BD70B54FF0AC
:10087000FF0C4CF4E06C1CEA11541DBF1CEA13552C
:1008800094EA0C0F95EA0C0F00F0A7F8A4EB05040E
:1008900081EA030E52EA03354FEA013100F0888005
:1008A0004FEA03334FF0805545EA131343EA1263CE
:1008B0004FEA022245EA111545EA10654FEA002683
:1008C0000EF000419D4208BF964244F1FD0404F53C
:1008D000407402D25B084FEA3202B61A65EB030598
:1008E0005B084FEA32024FF480104FF4002CB6EB55
:1008F000020E75EB030E22BFB61A754640EA0C00D5
:100900005B084FEA3202B6EB020E75EB030E22BF14
:10091000B61A754640EA5C005B084FEA3202B6EB55
:10092000020E75EB030E22BFB61A754640EA9C0014
:100930005B084FEA3202B6EB020E75EB030E22BFE4
:10094000B61A754640EADC0055EA060E18D04FEAA2
:10095000051545EA16754FEA06164FEAC30343EA42
:1009600052734FEAC2025FEA1C1CC0D111F4801F0F
:100970000BD141EA00014FF000004FF0004CB6E708
:1009800011F4801F04BF01430020B4F1FD0C88BFA7
:10099000BCF5E06F3FF6AFAEB5EB030C04BFB6EBB2
:1009A000020C5FEA500C50F1000041EB045170BDA5
:1009B0000EF0004E4EEA113114EB5C04C2BFD4EBD2
:1009C0000C0541EA045170BD41F480114FF0000E56
:1009D000013C90E645EA060E8DE60CEA135594EAD2
:1009E0000C0F08BF95EA0C0F3FF43BAF94EA0C0FD5
:1009F0000AD150EA01347FF434AF95EA0C0F7FF44A
:100A000025AF104619462CE795EA0C0F06D152EA9D
:100A100003353FF4FDAE1046194622E750EA410681
:100A200018BF52EA43067FF4C5AE50EA41047FF492
:100A30000DAF52EA43057FF4EBAE12E74FF0FF3CF7
:100A400006E000BF4FF0010C02E000BF4FF0010CC8
:100A50004DF804CD4FEA410C7FEA6C5C4FEA430C41
:100A600018BF7FEA6C5C1BD001B050EA410C0CBF90
:100A700052EA430C91EA030F02BF90EA020F0020F2
:100A8000704710F1000F91EA030F58BF994208BF59
:100A900090422CBFD8176FEAE37040F00100704716
:100AA0004FEA410C7FEA6C5C02D150EA013C07D16D
:100AB0004FEA430C7FEA6C5CD6D152EA033CD3D0B8
:100AC0005DF8040B704700BF8446104662468C46B2
:100AD0001946634600E000BF01B5FFF7B7FF0028E5
:100AE00048BF10F1000F01BD4DF808EDFFF7F4FF0E
:100AF0000CBF012000205DF808FB00BF4DF808ED99
:100B0000FFF7EAFF34BF012000205DF808FB00BFBB
:100B10004DF808EDFFF7E0FF94BF012000205DF8DD
:100B200008FB00BF4DF808EDFFF7CEFF94BF012092
:100B300000205DF808FB00BF4DF808EDFFF7C4FF8B
:100B400034BF012000205DF808FB00BF4FEA410CD4
:100B50007FEA6C5C02D150EA013C0AD14FEA430CB7
:100B60007FEA6C5C02D152EA033C02D14FF00000F4
:100B700070474FF0010070474FEA410212F5001232
:100B800015D211D56FF47873B3EB625212D94FEAD4
:100B9000C12343F0004343EA505311F0004F23FABE
:100BA00002F018BF404270474FF00000704750EA13
:100BB000013005D111F0004008BF6FF000407047D0
:100BC0004FF00000704700BF4A0011D212F500122A
:100BD00011D20DD56FF47873B3EB62520ED44FEA95
:100BE000C12343F0004343EA505323FA02F0704715
:100BF0004FF00000704750EA013002D14FF0FF3053
:100C000070474FF00000704753B94AB9002908BF38
:100C100000281CBF4FF0FF314FF0FF3000F072B9D9
:100C2000ADF1080C6DE904CE00F006F8DDF804E043
:100C3000DDE9022304B070472DE9F047089E044621
:100C40008846002B4BD18A42154667D9B2FA82F208
:100C50004AB1C2F1200701FA02F320FA07F79540E2
:100C600047EA030894404FEA154E230CB8FBFEF701
:100C70001FFA85FC0EFB178843EA084307FB0CF1BB
:100C8000994209D9EB1807F1FF3080F01B81994296
:100C900040F21881023F2B445B1AA4B2B3FBFEF072
:100CA0000EFB103344EA034400FB0CFCA44509D9B5
:100CB0002C1900F1FF3380F00781A44540F2048134
:100CC00002382C4440EA0740A4EB0C0400271EB174
:100CD000D4400023C6E900433946BDE8F0878B4283
:100CE00009D9002E00F0EB800027C6E90001384644
:100CF0003946BDE8F087B3FA83F7002F47D18B421E
:100D000002D3824200F2FA80841A61EB03030120CD
:100D10009846002EE0D0C6E90048DDE702B9FFDEC4
:100D2000B2FA82F2002A40F08F80491B4FEA154E3A
:100D30001FFA85F80127B1FBFEFC230C0EFB1C11EA
:100D400043EA014308FB0CF1994207D9EB180CF177
:100D5000FF3002D2994200F2CD808446591AA3B2E4
:100D6000B1FBFEF00EFB101443EA044408FB00F84C
:100D7000A04507D92C1900F1FF3302D2A04500F29B
:100D8000B6801846A4EB080440EA0C409FE7C7F180
:100D9000200CBB4022FA0CFE4EEA030E01FA07F4C7
:100DA00020FA0CF521FA0CF34FEA1E482543B3FB59
:100DB000F8F92C0C08FB19331FFA8EFA44EA0343A6
:100DC00009FB0AF49C4202FA07F200FA07F10BD978
:100DD0001EEB030309F1FF3080F087809C4240F254
:100DE0008480A9F1020973441B1BADB2B3FBF8F078
:100DF00008FB103345EA034400FB0AFAA24508D970
:100E00001EEB040400F1FF336BD2A24569D902380E
:100E1000744440EA0940A0FB0289A4EB0A044C4553
:100E2000C2464B4654D351D0002E69D0B1EB0A05CF
:100E300064EB030404FA0CFCFD40FC404CEA05059D
:100E4000C6E90054002747E7C2F1200320FA03F760
:100E5000954001FA02F021FA03F34FEA154E3843A8
:100E6000010CB3FBFEF71FFA85F80EFB173341EABE
:100E7000034107FB08F38B4204FA02F407D969180F
:100E800007F1FF3C2FD28B422DD9023F2944CB1AC8
:100E900081B2B3FBFEF00EFB103341EA034100FBCD
:100EA00008F38B4207D9691800F1FF3C17D28B4237
:100EB00015D902382944C91A40EA07473BE73746A3
:100EC000304609E70746E7E61846FBE64145ABD260
:100ED000B8EB020A69EB0E0201381346A4E760463C
:100EE000E9E7184695E76746D1E781467CE702388F
:100EF0002C4447E7ACF1020C2B442FE7384608E7B7
:100F00003746E9E6704700BF80B584B000AF0023E4
:100F1000BB607B4B1B68012B40F0E780794B1B6863
:100F2000332B28D0332B07DC112B14D0222B19D0D4
:100F3000002B00F0D680DEE0552B00F0B480552B5E
:100F400002DC442B1ED0D6E0662B00F0C280772B4B
:100F500000F0C380CFE06C4B00221A60694B222264
:100F60001A60C8E0684B1B68002B40F0C180654BDD
:100F700033221A60BCE0634B44221A60624B0022A9
:100F80001A71B8E003F05CF80346002B00F0B28061
:100F90005D4B1B79022B40F2AD805B4B00221A7136
:100FA00001210A2003F072F803F0F4F9574BD3F84B
:100FB0002031012B09D1554B0022C3F820214FF4D9
:100FC00080620021524809F09EFE0023FB71514BC4
:100FD00000221A600023BB605BE00023FB6052E04C
:100FE0004D49BB68DA00FB68134451F82330002BED
:100FF00046D04949BB68DA00FB68134451F8232006
:101000004048BB68D900FB680B441B010344043310
:101010001A603C49BB68DA00FB6813441B010B44AF
:101020000833BA681A603749BB68DA00FB681344B2
:101030001B010B440C33FA681A603849BB68DA00AC
:10104000FB68134451F823202E48BB68D900FB6885
:101050000B441B01034410331A60BB68002B03F0E0
:101060000103B8BF5B42DA00FB681344274A3833F8
:10107000012142F823100123FB71264B01221A6043
:10108000FB680133FB60FB68072BA9DDBB680133FC
:10109000BB60BB68072BA0DDFB79012B2AD1194B64
:1010A00055221A6026E01B4B1B68012B08D1012238
:1010B0000121002003F052FB124B44221A601AE077
:1010C00000220021042003F049FB0E4B66221A6027
:1010D00011E00C4B77221A600DE00A4B00221A60D7
:1010E00009E003F08BF800BF05E003F087F802E0A9
:1010F00000BF00E000BF002318461037BD4680BD8A
:10110000800600207C0200208C0600200434002091
:1011100080020020AC380020980600202822002001
:1011200080B584B000AF0346FB7107F10C031A468B
:101130000F4910480AF0E8FAFB680F4A13600E4B9B
:101140001B68012B07D10D4B11221A600C4B41F289
:1011500088321A6002E0094B00221A60FB790021F4
:10116000184600F095FB002318461037BD4680BD99
:1011700080E1020831090020800600207C02002066
:101180005C370020F0B5CDB004AF0246FB1D1A70ED
:101190000023C7F8143107F1080318464FF4807391
:1011A0001A46002109F0AFFD002387F81331002310
:1011B00087F80B310023A7F810310023A7F80E3170
:1011C0000023A7F80C3107F108034FF480720021C7
:1011D000184609F098FD0023C7F81C3121E00023D0
:1011E000C7F8183114E08749D7F81C31DA00D7F86E
:1011F000183113441B010B4404331B68002B02D02D
:10120000042387F81331D7F818310133C7F81831A0
:10121000D7F81831072BE6DDD7F81C310133C7F8B2
:101220001C31D7F81C31072BD9DD0023C7F81C313E
:1012300047E0754AD7F81C31183352F8233087F845
:101240000B3197F80B31002B0ED097F80B3103F0D0
:101250000102D7F81C3102FA03F31AB2B7F91031C0
:1012600013431BB2A7F81031684AD7F81C3152F863
:101270002320D7F81C3102FA03F31AB2B7F90E3162
:1012800013431BB2A7F80E315F4AD7F81C3152F84E
:10129000233003F00103002B0CBF01230023DBB23A
:1012A0001A46D7F81C3102FA03F31AB2B7F90C3117
:1012B00013431BB2A7F80C31D7F81C310133C7F820
:1012C0001C31D7F81C310F2BB3DD97F81351504B5D
:1012D0001B68B7F80E21B7F80C11B7F8100107F129
:1012E000080403900291019200932B460022494981
:1012F00020460AF0E9F907F108031846FEF772FFE5
:101300000346C7F814310023C7F81C315FE00023FF
:10131000C7F8183152E03B49D7F81C31DA00D7F84A
:10132000183113441B010B4404331B68002B40D0BD
:1013300007F10802D7F81431D4183249D7F81C3114
:10134000DA00D7F8183113441B010B4404331D682D
:101350002C49D7F81C31DA00D7F8183113441B0197
:101360000B4408331E682749D7F81C31DA00D7F838
:10137000183113441B010B440C331B682148D7F868
:101380001C21D100D7F818210A441201024410325E
:1013900012680192009333462A461F4920460AF0FC
:1013A00093F907F108031846FEF71CFF0346C7F838
:1013B0001431D7F818310133C7F81831D7F818317C
:1013C000072BA8DDD7F81C310133C7F81C31D7F83B
:1013D0001C31072B9BDD07F10802FB1D1B78114612
:1013E000184600F06BF9C7F814010C4800F024FA15
:1013F000054B0122C3F820210023184607F59277F8
:10140000BD46F0BD7C020020043400209C35002045
:101410008006002088E10208A4E102088C1900205F
:1014200080B588B002AF0346FB7100233B740023F4
:101430007B740023BB7400233B7300237B73002366
:10144000BB730023FB822E4B1B78002B08D000209F
:1014500003F07CFD2A4B00221A700A2001F060FE86
:10146000FB799B08DBB25BB203F001035BB243F094
:1014700006035BB2DBB23B74FB799B01DBB27B748E
:101480000023BB7400224FF480511E4805F024F95C
:1014900007F10C039A1C07F1100164230093012348
:1014A000194806F074F807F10C0207F11003591CF3
:1014B000642300930123144806F069F807F10C0334
:1014C0005A1C07F11003991C6423009301230E4852
:1014D00006F05DF801224FF480510A4805F0FCF84F
:1014E0003B7B1B029BB203F47063FB827B7B9AB253
:1014F000FB8A1343FB82FB8A18461837BD4680BD22
:101500000000002000040240B838002080B489B0F8
:1015100000AF786039607B681B68FB8100237B61CA
:101520000123FB6112E0FA89FB699B0079680B4497
:101530001B689A4207DAFB699B007A6813441B68B0
:10154000FB81FB697B61FB690133FB61FA693B68E5
:101550009A42E8DB7B681B68FB810023BB610123A7
:10156000FB6112E0FA89FB699B0079680B441B68F8
:101570009A4207DDFB699B007A6813441B68FB8174
:10158000FB69BB61FB690133FB61FA693B689A4205
:10159000E8DB00233B610023BB600023FB6115E017
:1015A000FA69BB699A420ED0FA697B699A420AD0FD
:1015B000FB699B007A6813441B68BA681344BB60DC
:1015C0003B6901333B61FB690133FB61FA693B68AD
:1015D0009A42E5DBBA683B6992FBF3F3FB81FB8936
:1015E00018462437BD465DF8047B704790B5A9B016
:1015F00000AFF86087ED000BB9600023C7F89830A2
:1016000007F1100380220021184609F07CFB4FF0FF
:101610000002294BD7E90001FFF728F903460C46E1
:10162000C7E92434FB68DBB21846FFF7F9FE03462E
:10163000C7F898300023C7F89C3016E0FB68DBB28F
:101640001846FFF7EDFE03461A46D7F89C309B007C
:1016500007F1A0010B4443F8902C642001F042FDF7
:10166000D7F89C300133C7F89C30D7F89C20BB6872
:101670009A42E3DBBB68012B07DD07F11003B96871
:101680001846FFF743FFC7F89800D7F89800FEF711
:1016900059FFD7E92423FEF7BFFF03460C4618463F
:1016A0002146FFF769FA0346C7F89830D7F8983013
:1016B0001846A437BD4690BD0000B04080B58AB042
:1016C00006AF03463960FB713868FEF78BFD0346B1
:1016D000FB60FB793A680492FA6803920293002354
:1016E0000193A1230093A22302221149114809F07A
:1016F000EBFF1048FEF776FD0346FB60FB68013BFD
:1017000019460D4800F01EF803461A460B4B1A7096
:10171000FB68084A9818094B1B781A4603230849A6
:1017200009F0D2FF002318461037BD4680BD00BF28
:10173000B8E102088C1900208D1900202823002010
:10174000D4E1020880B485B000AF78603960104BF6
:1017500000221A600023FB600CE0FB687A681344E7
:101760001B781A460A4B1B681344094A1360FB682E
:101770000133FB60FA683B689A42EEDB044B1B685E
:10178000DBB218461437BD465DF8047B704700BFD6
:101790009406002080B584B000AF78603960234B98
:1017A00000221A603B680C333B600023FB600EE0B4
:1017B000FB6801337A6813441B787B727A7A1B4B7F
:1017C0001B681344194A1360FB680133FB603B68D4
:1017D000FA689A42ECD3164B00221A60FB685A1C36
:1017E000FA6001337A681344114A1249184609F025
:1017F0008BFFFB6802337A6813441B78FB720B4B38
:101800001B68BB72BA7A0A4B1B689A4207D1FB7AF3
:10181000032B01D1002304E04FF0FF3301E04FF030
:10182000FF3318461037BD4680BD00BF9406002028
:101830001C080020DCE1020880B586B002AF7860A9
:101840000023FB607868FEF7CDFC0346BB60BB68F5
:101850000133DA0F13445B10FB600A4B1878FB6806
:101860009BB25B009AB2084B1B880093074B7968C8
:1018700008F066F9012004F051F900BF1037BD46A9
:1018800080BD00BF4C0200200C000020080000209A
:1018900080B582B000AF03460A46FB711346BB71A8
:1018A000BB791A460849094809F00EFFFB79074938
:1018B0001846FFF703FF0648FFF7BEFF0023184650
:1018C0000837BD4680BD00BFE4E102082C2300209C
:1018D0008C19002080B584B000AF0346FB71FB7902
:1018E000F32B05D0FB79F42B02D04F4B00221A705A
:1018F000FB79A82B00F08280A82B1DDC1E2B7FD04B
:101900001E2B0BDC122B7DD0122B02DC102B7BD07C
:101910006EE01A2B7AD01B2B7AD069E0A52B2ED043
:10192000A52B04DC1F2B75D0A02B23D060E0A62BA9
:1019300034D0A72B3CD05BE0C02B43D0C02B0DDCB8
:10194000AC2B21D0AC2B04DCA92B65D0AB2B2AD03F
:101950004EE0AF2B31D0BD2B1BD049E0F42B04DC83
:10196000F32B34DAC12B59D042E0FD2B35D0FE2BBE
:1019700039D03DE0FB79184601F040F84FE0FB79A3
:10198000184601F06DF84AE0FB79184603F07CF840
:1019900045E0FB79184602F063FE40E0FB7918460B
:1019A00001F068F93BE0FB791846FFF7EBFB36E006
:1019B000FB79184603F088F831E0FB791846FFF709
:1019C000AFFB2CE0FB79184600F00DFD27E0FB791A
:1019D000184601F0CBF9F86021E0FB79184601F0D8
:1019E000F9F9F8601BE0FB79184601F069FA16E096
:1019F000FB7904211846FFF74BFF10E000BF0EE013
:101A000000BF0CE000BF0AE000BF08E000BF06E036
:101A100000BF04E000BF02E000BF00E000BFFB68C1
:101A200018461037BD4680BD2009002080B58CB017
:101A300002AF786000237B6200233B627B68002B4F
:101A400001D1FF2395E04D4B1B78FB77FB7F022BE9
:101A500001D0FF238DE007F1100107F1140207F117
:101A60000C0300930B464649464809F04DFE7B693E
:101A7000DAB2454B1A703B69DAB2444B1A70FB6814
:101A8000DAB2434B1A7007F114031A46414942482F
:101A900009F03AFE7B69BB773B4B1B78A12B07D142
:101AA0003A4B1B78A22B0AD0384B1B78A32B06D0BD
:101AB000BB7F03211846FFF7EBFE002359E007F137
:101AC00008031A463549364809F01EFEBB68194618
:101AD0002A48FFF75FFEB861BB69002B06D0BB7FC9
:101AE00005211846FFF7D4FEFF2342E0274B1B7861
:101AF000A22B04D1BB7F1846FFF7ECFE04E0BB7FAE
:101B000003211846FFF7C4FE3B6A5A1C3A62022BB7
:101B10002BD8BB681A467B6A134410337B627A6AFF
:101B20007B689A4223D241F2680200211D4809F0E5
:101B3000EAF87B6A114A99187A687B6AD31A1A46BE
:101B4000184809F0D5F841F2680200210B4809F065
:101B5000DAF87A687B6AD31A1A461249074809F0FC
:101B6000C7F8642003F0DAFF6DE700BF00E000BFB4
:101B7000FF2318462837BD4680BD00BF240900203A
:101B8000F4E1020825090020980700202522002002
:101B900024220020DCE102082B09002004E20208D4
:101BA0002D0900202C23002080B582B000AF034611
:101BB000FB80FB88DBB203F00103DBB21A46012194
:101BC0005A4804F089FDFB885B10DBB203F0010387
:101BD000DBB21A460221554804F07EFDFB889B10BB
:101BE000DBB203F00103DBB21A4604214F4804F0D4
:101BF00073FDFB88DB10DBB203F00103DBB21A4696
:101C000008214A4804F068FDFB881B11DBB203F091
:101C10000103DBB21A461021444804F05DFDFB8845
:101C20005B11DBB203F00103DBB21A4620213F480F
:101C300004F052FDFB889B11DBB203F00103DBB221
:101C40001A464021394804F047FDFB88DB11DBB21E
:101C500003F00103DBB21A468021344804F03CFD56
:101C6000FB881B12DBB203F00103DBB21A464FF410
:101C700080712E4804F030FDFB885B12DBB203F06C
:101C80000103DBB21A464FF40071284804F024FD2A
:101C9000FB889B12DBB203F00103DBB21A464FF460
:101CA0008061224804F018FDFB88DB12DBB203F0F0
:101CB0000103DBB21A464FF400611C4804F00CFD2E
:101CC000FB881B13DBB203F00103DBB21A464FF4AF
:101CD0008051164804F000FDFB885B13DBB203F073
:101CE0000103DBB21A464FF40051104804F0F4FC33
:101CF000FB889B13DBB203F00103DBB21A464FF4FF
:101D000080410A4804F0E8FCB7F90630DB131BB247
:101D1000DBB203F00103DBB21A464FF40041034883
:101D200004F0DAFC00BF0837BD4680BD0008024061
:101D300080B582B000AF0346FB80FB88DBB203F0C6
:101D40000103DBB21A4601215A4804F0C5FCFB88A6
:101D50005B10DBB203F00103DBB21A4602215548E7
:101D600004F0BAFCFB889B10DBB203F00103DBB28A
:101D70001A4604214F4804F0AFFCFB88DB10DBB2AD
:101D800003F00103DBB21A4608214A4804F0A4FC20
:101D9000FB881B11DBB203F00103DBB21A461021F2
:101DA000444804F099FCFB885B11DBB203F00103AB
:101DB000DBB21A4620213F4804F08EFCFB889B11C1
:101DC000DBB203F00103DBB21A464021394804F0CC
:101DD00083FCFB88DB11DBB203F00103DBB21A46A4
:101DE0008021344804F078FCFB881B12DBB203F03E
:101DF0000103DBB21A464FF480712E4804F06CFCEC
:101E0000FB885B12DBB203F00103DBB21A464FF42E
:101E10000071284804F060FCFB889B12DBB203F0E1
:101E20000103DBB21A464FF48061224804F054FCEF
:101E3000FB88DB12DBB203F00103DBB21A464FF47E
:101E400000611C4804F048FCFB881B13DBB203F064
:101E50000103DBB21A464FF48051164804F03CFCF3
:101E6000FB885B13DBB203F00103DBB21A464FF4CD
:101E70000051104804F030FCFB889B13DBB203F0E8
:101E80000103DBB21A464FF480410A4804F024FCF7
:101E9000B7F90630DB131BB2DBB203F00103DBB290
:101EA0001A464FF40041034804F016FC00BF0837FF
:101EB000BD4680BD0010024080B582B000AF034631
:101EC000FB80FB88DBB203F00103DBB21A46012181
:101ED0005A4804F001FCFB885B10DBB203F00103FD
:101EE000DBB21A460221554804F0F6FBFB889B1032
:101EF000DBB203F00103DBB21A4604214F4804F0C1
:101F0000EBFBFB88DB10DBB203F00103DBB21A460C
:101F100008214A4804F0E0FBFB881B11DBB203F008
:101F20000103DBB21A461021444804F0D5FBFB88BC
:101F30005B11DBB203F00103DBB21A4620213F48FC
:101F400004F0CAFBFB889B11DBB203F00103DBB298
:101F50001A464021394804F0BFFBFB88DB11DBB295
:101F600003F00103DBB21A468021344804F0B4FBCD
:101F7000FB881B12DBB203F00103DBB21A464FF4FD
:101F800080712E4804F0A8FBFB885B12DBB203F0E3
:101F90000103DBB21A464FF40071284804F09CFBA1
:101FA000FB889B12DBB203F00103DBB21A464FF44D
:101FB0008061224804F090FBFB88DB12DBB203F067
:101FC0000103DBB21A464FF400611C4804F084FBA5
:101FD000FB881B13DBB203F00103DBB21A464FF49C
:101FE0008051164804F078FBFB885B13DBB203F0EA
:101FF0000103DBB21A464FF40051104804F06CFBA9
:10200000FB889B13DBB203F00103DBB21A464FF4EB
:1020100080410A4804F060FBB7F90630DB131BB2BD
:10202000DBB203F00103DBB21A464FF40041034870
:1020300004F052FB00BF0837BD4680BD000C0240D3
:1020400080B582B000AF0346FB71FB7903F001035A
:10205000DBB21A460421294804F03EFBFB795B10F1
:10206000DBB203F00103DBB21A460821234804F077
:1020700033FBFB799B10DBB203F00103DBB21A46A2
:1020800010211E4804F028FBFB79DB10DBB203F0C3
:102090000103DBB21A462021184804F01DFBFB792E
:1020A0001B11DBB203F00103DBB21A4640211348D7
:1020B00004F012FBFB795B11DBB203F00103DBB22E
:1020C0001A4680210D4804F007FBFB799B11DBB217
:1020D00003F00103DBB21A464FF48071074804F0A5
:1020E000FBFAFB79DB09DBB21A464FF400710348B7
:1020F00004F0F2FA00BF0837BD4680BD001C024064
:1021000080B582B000AF0346FB80FB88DBB203F0F2
:102110000103DBB21A4601215A4804F0DDFAFB88BC
:102120005B10DBB203F00103DBB21A460221554813
:1021300004F0D2FAFB889B10DBB203F00103DBB2A0
:102140001A4604214F4804F0C7FAFB88DB10DBB2C3
:1021500003F00103DBB21A4608214A4804F0BCFA36
:10216000FB881B11DBB203F00103DBB21A4610211E
:10217000444804F0B1FAFB885B11DBB203F00103C1
:10218000DBB21A4620213F4804F0A6FAFB889B11D7
:10219000DBB203F00103DBB21A464021394804F0F8
:1021A0009BFAFB88DB11DBB203F00103DBB21A46BA
:1021B0008021344804F090FAFB881B12DBB203F054
:1021C0000103DBB21A464FF480712E4804F084FA02
:1021D000FB885B12DBB203F00103DBB21A464FF45B
:1021E0000071284804F078FAFB889B12DBB203F0F8
:1021F0000103DBB21A464FF48061224804F06CFA06
:10220000FB88DB12DBB203F00103DBB21A464FF4AA
:1022100000611C4804F060FAFB881B13DBB203F07A
:102220000103DBB21A464FF48051164804F054FA09
:10223000FB885B13DBB203F00103DBB21A464FF4F9
:102240000051104804F048FAFB889B13DBB203F0FE
:102250000103DBB21A464FF480410A4804F03CFA0D
:10226000B7F90630DB131BB2DBB203F00103DBB2BC
:102270001A464FF40041034804F02EFA00BF083715
:10228000BD4680BD0014024080B582B000AF034659
:10229000FB8000224FF48041194804F01DFAFB88AE
:1022A000DBB21846FFF7CCFE00224FF480511448F1
:1022B00004F012FA052000F015FF01224FF48051BE
:1022C0000F4804F009FA0A2000F00CFFFB881B0AF3
:1022D0009BB2DBB21846FFF7B3FE00224FF4005169
:1022E000074804F0F9F9052000F0FCFE01224FF444
:1022F0000051034804F0F0F900BF0837BD4680BD27
:10230000001C024080B582B000AF0346FB80002273
:102310004FF40041194804F0DFF9FB88DBB218469E
:10232000FFF78EFE00224FF48061144804F0D4F9C8
:10233000052000F0D7FE01224FF480610F4804F021
:10234000CBF90A2000F0CEFEFB881B0A9BB2DBB261
:102350001846FFF775FE00224FF40061074804F0AD
:10236000BBF9052000F0BEFE01224FF400610348D6
:1023700004F0B2F900BF0837BD4680BD001C024022
:1023800080B485B000AF786039600023BB60002363
:10239000FB601DE0FB687A6813441B781F2B06D98D
:1023A000FB687A6813441B785BB2002B0DDABB68BC
:1023B0000133BB603B68DA0F13445B101A46BB68FD
:1023C000934202DD4FF0FF3307E0FB680133FB600F
:1023D000FA683B689A42DDDB002318461437BD4695
:1023E0005DF8047B704780B582B000AF0346FB7197
:1023F000FB7900211846FFF74BFA00BF0837BD46AE
:1024000080BD000080B584B000AF03463960FB7129
:10241000FB79A02B02D11B4BFB6000BF3B68043350
:102420001A461949194808F063FCF9683B680433F7
:10243000164A4FF4006001F0B7F80346BB60BB6872
:10244000002B01DA082319E041F2680200210F484D
:1024500008F059FCF8683B6804331A460B4901F050
:1024600039F93B6804331A460849074809F0BBF9B3
:102470000346002B01D0092300E0BB681846103743
:10248000BD4680BD00000E082D0900202C23002031
:1024900080B59CB018AF0023FB6004228F499048A0
:1024A00001F018F93B1D1A468E498C4809F02CF9A9
:1024B0007B68B3F5006F02DB4FF400637B6041F291
:1024C00068020021854808F01EFC7B681A46834993
:1024D000854801F0FFF80423FB60FB684833FB608C
:1024E000FB687E4A9818814B1793814B1693814B5A
:1024F0001593814B1493814B1393814B1293814B12
:102500001193814B1093814B0F93814B0E93814B11
:102510000D93814B0C93814B0B93814B0A93814B11
:102520000993814B0893814B0793814B0693814B11
:102530000593814B0493814B0393814B0293814B11
:102540000193814B0093814B814A824909F0DCF869
:10255000FB683033FB60FB68604A98187E4B089339
:102560007E4B07937E4B06937E4B05937E4B0493E5
:102570007E4B03937E4B02937E4B01937E4B0093E5
:102580007E4B7F4A7F4909F0BFF8FB682133FB602F
:10259000FB68524A98187C4B0D937C4B0C937C4BF8
:1025A0000B937C4B0A937C4B09937C4B08937C4B9D
:1025B00007937C4B06937C4B05937C4B04937C4B9D
:1025C00003937C4B02937C4B01937C4B00937C4B9D
:1025D0007C4A7D4909F098F8FB683833FB60FB685A
:1025E0003E4A9818794B1293794B1193794B10937B
:1025F000794B0F93794B0E93794B0D93794B0C9349
:10260000794B0B93794B0A93794B0993794B089348
:10261000794B0793794B0693794B0593794B049348
:10262000794B0393794B0293794B0193794B009348
:10263000794B7A4A7A4909F067F8FB683E33FB60C8
:10264000FB68264A9818774B1293774B1193774B78
:102650001093774B0F93774B0E93774B0D93774BEC
:102660000C93774B0B93774B0A93774B0993774BEC
:102670000893774B0793774B0693774B0593774BEC
:102680000493774B0393774B0293774B0193774BEC
:102690000093774B774A624909F036F800224FF4ED
:1026A0008071754804F018F800224FF400717248E8
:1026B00004F012F801224FF480616F4804F00CF826
:1026C0000020FFF771FA0020FFF732FB2C4B1B684C
:1026D00007EE903AF8EEE77AD0E000BF2C23002016
:1026E00000000E080CE2020804000E088C350020E1
:1026F0008835002084350020803500207C3500207E
:102700007835002074350020703500206C350020AD
:102710006835002064350020603500205C350020DD
:102720005835002054350020503500204C3500200D
:102730004835002044350020403500203C3500203D
:102740003835002034350020303500202C3500206D
:102750002835002014E20208BC330020B8330020E2
:10276000B4330020B0330020AC330020A833002065
:10277000A4330020A03300209C3300209833002095
:102780009433002080E20208FC330020F83300205C
:10279000F4330020F0330020EC330020E833002035
:1027A000E4330020E0330020DC330020D833002065
:1027B000D4330020D0330020CC330020C833002095
:1027C000C4330020C0330020B0E20208EC36002001
:1027D000E8360020E4360020E0360020DC36002019
:1027E000D8360020D4360020D0360020CC36002049
:1027F000C8360020C4360020C0360020BC36002079
:10280000B8360020B4360020B0360020AC360020A8
:10281000A8360020A4360020A03600209C360020D8
:10282000F4E20208403700203C370020383700200F
:1028300034370020303700202C3700202837002084
:1028400024370020203700201C37002018370020B4
:1028500014370020103700200C37002008370020E4
:102860000437002000370020FC360020F836002016
:10287000F4360020F036002000040240F2EE046A34
:1028800087EEA67A524B1B6907EE903AF8EEE76A9C
:102890009FED506AC6EE867A77EE277AC7ED027A08
:1028A00097ED020A002001F045FC494B9B6807EEBA
:1028B000903AF8EEE77AF2EE046A87EEA67A444B95
:1028C0009B6907EE903AF8EEE76A9FED426AC6EE22
:1028D000867A77EE277AC7ED027A97ED020A012011
:1028E00001F028FC142000F01BFC3B4B00225A8016
:1028F000394B5B881846FFF7C7FC354B1B6A002B2A
:1029000018D1334B5B6A002B03D1314B4FF4FA7271
:102910005A622F4B996A2E4B5B6A5B001A46012064
:1029200002F012FA0A2000F0FBFB0121012002F064
:10293000E5F919E0264BDB6807EE903AB8EEE77A46
:10294000F2EE046AC7EE267A9FED247A77EE877A54
:10295000C7ED027A97ED020A022001F0EBFB97ED3A
:10296000020A032001F0E6FB4FF4806200211C48BC
:1029700008F0C9F94FF4807200211A4808F0C3F931
:10298000194B00221A604FF492720021174808F088
:10299000BAF9174B00221A6001224FF480711548D2
:1029A00003F09AFE01224FF40071124803F094FEE6
:1029B00000224FF480610F4803F08EFE4FF48072C6
:1029C00000210D4808F09FF900BF1037BD4680BDBB
:1029D000943300200000C8420034002000000000B2
:1029E0008002002028220020AC380020043400207F
:1029F00080060020000402402008002080B584B03A
:102A000000AF0346FB710023BB600023FB6007F1AE
:102A100008031A460F49104808F076FEBA68FB7999
:102A200011461846FFF7EEFCF860FB79A02B05D1A4
:102A30000A4B1B68002B01D1FFF72AFDFB68DAB2B5
:102A4000FB7911461846FEF723FF00BF1037BD463D
:102A500080BD00BF0CE202082D0900208006002086
:102A600080B59AB000AF0346FB7100233B6607F1C7
:102A7000080340220021184608F045F92A4B9B6DB7
:102A8000012B1FD100237B6619E007F14803796E03
:102A9000184600F069FABA6D7B6E9B0007F1680179
:102AA0000B4443F8602C7B6E0833FA6D9B0007F1F2
:102AB00068010B4443F8602C7B6E01337B667B6EB0
:102AC000072BE2DD00221949194808F0FDFD1848DE
:102AD000FDF788FB03463B6600237B6615E03B6EF3
:102AE000134A98187B6E9B0007F16802134453F851
:102AF000603C1A460D4908F0E7FD0D48FDF772FBF2
:102B000003463B667B6E01337B667B6E0F2BE6DDF7
:102B1000FB7907491846FEF7D1FD0648FEF78CFE03
:102B200000BF6837BD4680BD283500204CE3020851
:102B30002C2300208C19002080B586B000AF78606F
:102B400000233B6141F268020021214808F0DBF8D4
:102B500000237B6112E03B691D4A98187B681A1DAF
:102B60007A601B681A461B4908F0AEFD1848FDF74D
:102B700039FB03463B617B6901337B617B690F2B2A
:102B8000E9DD1348FDF72EFB03463B6100237B6123
:102B90000EE03B690E4A10494FF4006000F004FD5E
:102BA0000346FB60FB68002B06D07B6901337B6129
:102BB0007B69032BEDDD00E000BFFB68002B01DA31
:102BC000082300E0002318461837BD4680BD00BF2B
:102BD0002C2300204CE3020800000C0880B582B0D2
:102BE00000AF41F2680200211E4808F08CF8102264
:102BF0001C491D4800F06EFD10211A48FFF7C0FB6C
:102C00000346B3F1FF3F0FD100237B6007E0174A73
:102C10007B68002142F823107B6801337B607B686E
:102C20000F2BF4DD002319E000233B6000237B60C1
:102C300010E03B680B4A98187B689B000B4A1344D2
:102C40001A460B4908F060FD3B6801333B607B6826
:102C500001337B607B680F2BEBDD002318460837C0
:102C6000BD4680BD2C23002000000C089C350020B0
:102C70004CE3020880B594B000AF0346FB7107F146
:102C8000080340220021184608F03DF80D23BB64DC
:102C90000023FB6411E0BB6C1A4A981807F1080284
:102CA000FB6C9B0013441A46174908F02DFDBB6CC2
:102CB0000133BB64FB6C0133FB64FB6C0F2BEADD5F
:102CC00007F108031846FFF737FF0023FB640DE008
:102CD000FB6C9B0007F15002134453F8482C0B493E
:102CE000FB6C41F82320FB6C0133FB64FB6C0F2B66
:102CF000EEDDFB7900211846FEF7CAFD00BF503714
:102D0000BD4680BD240900204CE302089C3500200C
:102D100080B400AF034B044ADA6000BFBD465DF8E3
:102D2000047B704700ED00E00400FA0580B582B036
:102D300000AF0123FB710C4800F0CAFB0346FB7196
:102D4000FB79002B0AD0084800F0C2FB0346FB7158
:102D5000FB79002B02D04FF0FF3300E00023184630
:102D60000837BD4680BD00BF00000A0880B582B0AC
:102D700000AF0346FB71164B1B780133DAB2144BDC
:102D80001A70134B1B78022B07D8FB7900211846C9
:102D9000FEF77EFD4FF0FF3316E003F069F80C4BB1
:102DA00000221A70FFF7C2FF0346002B07DAFB79F7
:102DB0000A211846FEF76CFD4FF0FF3304E003F0E4
:102DC00079F8FFF7A5FFFEE718460837BD4680BD36
:102DD0002009002080B582B000AF0346FB71FB796B
:102DE00000211846FEF754FD012000F099F9FFF785
:102DF0008FFFFEE7B0B594B002AF78602D4B07F1BE
:102E000014041D460FCD0FC40FCD0FC495E80F005D
:102E100084E80F00284A07F1080307CA83E807007F
:102E200007F108030933184607F033FF034687F814
:102E300046300023BB7307F108030433184607F03C
:102E400028FF034687F845300023FB72002387F8EC
:102E5000473027E097F847309B0007F148021344BA
:102E600053F8342C07F1080311461846FDF7B0F962
:102E70000346002B11D197F84730013387F84430CF
:102E800097F8462097F8441097F8453000930B4682
:102E90000A49786808F018FC08E097F847300133D1
:102EA00087F8473097F847300B2BD3D94837BD46C2
:102EB000B0BD00BF98E30208C8E3020854E302086B
:102EC00080B586B000AF0346FB7107F10C031846CE
:102ED000FFF790FF07F10C02084B0949094808F079
:102EE000F3FBFB7907491846FEF7E8FB0648FEF7B7
:102EF000A3FC00BF1837BD4680BD00BFD4E3020865
:102F0000E0E302082C2300208C19002080B582B059
:102F100000AF0346FB71FB7903F00103DBB21A46F5
:102F20004FF400710F4803F0D7FBFB795B10DBB265
:102F300003F00103DBB21A464FF48061094803F045
:102F4000CBFBFB799B10DBB203F00103DBB21A462B
:102F50004FF40061034803F0BFFB00BF0837BD46D4
:102F600080BD00BF00180240B0B588B000AF7860E7
:102F700039603B68DBB21846FFF7C8FF012000F05C
:102F8000CFF80121164803F08FFB0346BB600221F6
:102F9000134803F089FB0346FB600421104803F04B
:102FA00083FB03463B6108210D4803F07DFB03468C
:102FB0007B61BA683B691340BB61FA687B69134067
:102FC000FB617B681D4607F108040FCC0FC594E830
:102FD000030085E8030078682037BD46B0BD00BF18
:102FE0000018024080B584B000AF03460A46FB716A
:102FF0001346BB800023FB811F4B1B78012B08D09D
:10300000012001F0A3FF1C4B01221A700A2000F0DE
:1030100087F800224FF40061184803F05DFB391D6A
:1030200064230122164804F075F801224FF4006170
:10303000124803F051FB00224FF400610F4803F0E7
:103040004BFBFB79102202FA03F39BB2A3F500536A
:103050009BB2FB8107F10E0164230122084804F0B2
:1030600059F801224FF40061044803F035FB0023B6
:1030700018461037BD4680BD000000200004024005
:10308000B838002080B582B000AF4FF6FF73FB80E8
:10309000114B1B78012B08D0012001F057FF0E4B7C
:1030A00001221A700A2000F03BF800224FF4006160
:1030B0000A4803F011FBB91D64230122084804F0FB
:1030C00029F801224FF40061044803F005FB00BF1A
:1030D0000837BD4680BD00BF00000020000402404C
:1030E000B838002080B584B000AF78600FE00B489E
:1030F00003F05FFB0023FB6003E000BFFB680133CC
:10310000FB60FB68022BF8DD7B68013B7B607B6822
:10311000002BECD100BF1037BD4680BD60370020CA
:1031200080B582B000AF7860074A7B6813600748BB
:1031300003F03FFB044B1B68002B00D0F7E700BFF8
:1031400000BF0837BD4680BD5037002060370020E3
:1031500080B58EB000AF07F1240300221A605A60D8
:103160009A60DA601A6100233B62B44B1B6BB34A6E
:1031700043F010031363B14B1B6B03F010033B626E
:103180003B6A0023FB61AD4B1B6BAC4A43F004036D
:103190001363AA4B1B6B03F00403FB61FB69002361
:1031A000BB61A64B1B6BA54A43F020031363A34BE3
:1031B0001B6B03F02003BB61BB6900237B619F4B4A
:1031C0001B6B9E4A43F0800313639C4B1B6B03F005
:1031D00080037B617B6900233B61984B1B6B974AA3
:1031E00043F001031363954B1B6B03F001033B6139
:1031F0003B690023FB60914B1B6B904A43F0020339
:1032000013638E4B1B6B03F00203FB60FB68002310
:10321000BB608A4B1B6B894A43F040031363874BA7
:103220001B6B03F04003BB60BB6800237B60834BD8
:103230001B6B824A43F008031363804B1B6B03F044
:1032400008037B607B6800233B607C4B1B6B7B4AE5
:1032500043F480731363794B1B6B03F480733B60FF
:103260003B6800224FF6FF71754803F035FA0022E3
:103270004FF6FF71734803F02FFA00224FF6FF71EB
:10328000714803F029FA00224FF47F716F4803F070
:1032900023FA012241F610116D4803F01DFA0122B4
:1032A0004FF4E0516B4803F017FA01224FF47C41D0
:1032B000664803F011FA00224FF6FF71664803F0EA
:1032C0000BFA00220721654803F006FA00224FF4AA
:1032D000FC41634803F000FA00224FF440715D485E
:1032E00003F0FAF94FF6FF737B620123BB620223FE
:1032F000FB6200233B6307F124031946504803F0A7
:1033000039F84FF6FF737B620123BB620223FB6235
:1033100000233B6307F1240319464A4803F02AF8C7
:103320004FF6FF737B620123BB620223FB62002323
:103330003B6307F124031946434803F01BF80F23AE
:103340007B620023BB620023FB6207F12403194662
:103350003F4803F00FF84FF47F737B620123BB6299
:103360000023FB6200233B6307F12403194637481F
:1033700003F000F810237B620123BB620023FB6291
:1033800000233B6307F124031946314802F0F2FFA2
:10339000E2237B620023BB620023FB6207F124036C
:1033A00019462C4802F0E6FF4F237B620023BB62E4
:1033B0000023FB6207F124031946294802F0DAFFD3
:1033C0004FF4E0537B620123BB620123FB620023C5
:1033D0003B6307F1240319461E4802F0CBFF4FF46C
:1033E0007C437B620123BB620123FB6200233B63BE
:1033F00007F124031946154802F0BCFF4FF6FF738E
:103400007B620123BB620023FB6200233B6307F165
:1034100024031946104802F0ADFF4FF4C8537B62F5
:103420000123BB620123FB6200233B6307F12403FA
:103430001946074802F09EFF072313E000380240B8
:10344000001002400008024000140240001C02402C
:103450000000024000040240000C02400020024034
:10346000001802407B620123BB620023FB62002341
:103470003B6307F124031946124802F07BFF4FF427
:10348000FC437B620123BB620023FB6200233B639E
:1034900007F1240319460C4802F06CFF4FF4407307
:1034A0007B620123BB620223FB6200233B6307F1C3
:1034B00024031946054802F05DFF00BF3837BD46BA
:1034C00080BD00BF002002400018024000040240FE
:1034D00080B58CB000AF78600023FB620023BB6234
:1034E0007B687B6200233B6202F0C2FC786A00F0DA
:1034F00015F9F862786A00F011F90246FB6AD31AEE
:103500000133BB620023FB600223FB61FB6A7B612A
:10351000BB6ABB61234BB322DA6007F1200207F1DB
:103520000C031146184602F003FE0346002B02D09E
:103530004FF0FF3332E01B4B1B681A4A23F48063C1
:103540001360184B1B68174A23F400731360154B64
:103550001B68144A43F480531360124B1B68114AD2
:1035600023F4805313600F4B1B680E4A43F400632F
:1035700013600C4B1B680B4A23F400631360094B68
:103580001B68084A43F400731360064B1B68054A26
:1035900043F48063136002F08DFC0023184630373B
:1035A000BD4680BD003C024090B58FB000AFF860D2
:1035B000B9607A603B6000233B630023FB62BB6819
:1035C000BB6200237B6202F053FCB86A00F044F94E
:1035D0000346012B54D1B86A00F0A0F83863B86AEA
:1035E00000F09CF802463B6BD31A0133FB620023C8
:1035F0003B6102233B623B6BBB61FB6AFB61344B6B
:10360000B322DA6007F1240207F1100311461846CD
:1036100002F08EFD0346002B02D04FF0FF3352E044
:103620002B4B1B682A4A23F480631360284B1B68CA
:10363000274A23F400731360254B1B68244A43F484
:1036400080531360224B1B68214A23F4805313607C
:103650001F4B1B681E4A43F4006313601C4B1B681E
:103660001B4A23F400631360194B1B68184A43F488
:1036700000731360164B1B68154A43F48063136094
:1036800000237B6318E07A6BBB6AD1187B6B7A6886
:1036900013441B684FF000041A462346022002F030
:1036A00093FB0346002B04D002F004FC4FF0FF33E1
:1036B00009E07B6B04337B637B6B3A689A42E2D808
:1036C00002F0F8FB002318463C37BD4690BD00BF12
:1036D000003C024080B487B000AFF860B9607A6007
:1036E00000237B6100233B6100237B610BE07A694F
:1036F000FB68134419467B69BA6813440A781A7048
:103700007B6901337B617B697A689A42EFD83B69B8
:1037100018461C37BD465DF8047B704780B485B001
:1037200000AF78600023FB607B68404A934206D874
:103730007B68B3F1006F02D30023FB606FE07B680E
:103740003B4A934206D87B68384A934202D9012308
:10375000FB6064E07B68374A934206D87B68344A52
:10376000934202D90223FB6059E07B68324A9342BC
:1037700006D87B682F4A934202D90323FB604EE0B0
:103780007B682E4A934206D87B682B4A934202D923
:103790000423FB6043E07B68294A934206D87B6898
:1037A000264A934202D90523FB6038E07B68254A0C
:1037B000934206D87B68224A934202D90623FB60D3
:1037C0002DE07B68204A934206D87B681D4A9342CD
:1037D00002D90723FB6022E07B681C4A934206D88B
:1037E0007B68194A934202D90823FB6017E07B6883
:1037F000174A934206D87B68144A934202D9092398
:10380000FB600CE07B68134A934206D87B68104A41
:10381000934202D90A23FB6001E00B23FB60FB68A3
:1038200018461437BD465DF8047B7047FF3F00081B
:10383000FF7F0008FFBF0008FFFF0008FFFF01082F
:10384000FFFF0308FFFF0508FFFF0708FFFF090848
:10385000FFFF0B08FFFF0D0880B485B000AF786054
:103860000023FB607B68B3F1006F2BD07B681A4AA2
:10387000934227D07B68194A934223D07B68184A29
:1038800093421FD07B68174A93421BD07B68164A2D
:10389000934217D07B68154A934213D07B68144A31
:1038A00093420FD07B68134A93420BD07B68124A35
:1038B000934207D07B68114A934203D07B68104A39
:1038C000934201D10123FB60FB6818461437BD46C3
:1038D0005DF8047B704700BF0040000800800008CE
:1038E00000C00008000001080000020800000408F1
:1038F000000006080000080800000A0800000C0884
:1039000000000E0880B500AF094B0A4A1A60084B48
:1039100005225A60064B40F6FF729A60044802F096
:103920000FFF0346002B01D000F058FB00BF80BD05
:10393000603700200030004080B500AF0B4802F037
:1039400038FF0B4B1B6803F40073002B06D00022DA
:103950004FF40061074802F0BFFE05E001224FF47A
:103960000061044802F0B8FE00BF80BD603700204F
:10397000443700200000024080B500AF00224FF421
:103980008071374802F0A8FE00224FF400713448DD
:1039900002F0A2FE01224FF48061314802F09CFE49
:1039A0000020FEF701F90020FEF7C2F90020FEF723
:1039B000A7FB042200212B4807F0A5F901224FF4B0
:1039C0008041294802F088FE01224FF40041264838
:1039D00002F082FE01224FF48061234802F07CFE57
:1039E00001224FF40061204802F076FE01224FF4DC
:1039F00080511D4802F070FE01224FF400511A4818
:103A000002F06AFE4FF492720021184807F07BF929
:103A100040220021164807F076F94022002115487F
:103A200007F071F980220021134807F06CF94FF478
:103A300080720021114807F066F920220021104809
:103A400007F061F9202200210E4807F05CF94FF4DD
:103A5000807200210C4807F056F900BF80BD00BFFE
:103A60000004024000340020001C02400434002006
:103A70008C370020CC3700200C3800209C350020EB
:103A80008C3800206C37002020080020B0B582B0B0
:103A900000AF00237B602C2220492148FFF71AFE4B
:103AA0002C211E48FEF76CFC78607B68002B2DDA19
:103AB0001C4807F001FE1C4A1C4B1046194668239F
:103AC0001A4607F015F91A4A1A4B14461D460FCD2F
:103AD0000FC40FCD0FC495E8070084E80700164A0D
:103AE000164B14461D460FCD0FC40FCD0FC40FCD7E
:103AF0000FC495E80F0084E80F00114A114B1046DF
:103B00001946A8231A4607F0F3F801E0FEF7C0FCB7
:103B1000FFF764F800BF0837BD46B0BD2C23002076
:103B200000000E0808E4020828350020F0E402082E
:103B30009433002058E50208C033002084E50208D1
:103B40009C360020C4E5020880B584B000AF03466F
:103B5000FB80FB88072B4BD801A252F823F000BF53
:103B6000813B02088F3B02089D3B0208AB3B0208E9
:103B7000B93B0208C73B0208D53B0208E33B0208F9
:103B800001211F4802F090FD0346FB6032E0022154
:103B90001B4802F089FD0346FB602BE00421184816
:103BA00002F082FD0346FB6024E00821144802F085
:103BB0007BFD0346FB601DE00221124802F074FD0C
:103BC0000346FB6016E020210E4802F06DFD03461F
:103BD000FB600FE040210B4802F066FD0346FB60EE
:103BE00008E08021074802F05FFD0346FB6001E02A
:103BF0000023FB60FB6818461037BD4680BD00BF40
:103C0000000002400004024080B584B000AF0023F1
:103C1000FB600A237B600023BB60394B1B68002BD1
:103C20006AD00023FB6050E0FB689BB21846FFF7A8
:103C30008BFF0346002B0ED1324AFB6852F823302B
:103C40005A1C3049FB6841F823202F4AFB680021A9
:103C500042F8231008E02C4AFB6852F823305A1C23
:103C60002949FB6841F82320264AFB6852F8233093
:103C70007A689A4226DA244AFB6852F823307A6836
:103C80009A421FDA1F4AFB68002142F823101E4A9D
:103C9000FB68002142F823100123BB601B4AFB682C
:103CA000103352F82330002B06D1184AFB6810332A
:103CB000012142F8231005E0144AFB68103300216B
:103CC00042F82310FB680133FB60FB68072BABDD78
:103CD000BB68002B11D000220121002000F03EFD26
:103CE000074B1B68012B08D1094B1B68442B04D0E0
:103CF000074B11221A6000E000BF1037BD4680BD9F
:103D0000800600208C3800206C370020043400200E
:103D10007C02002080B588B000AF0023BB613B4B24
:103D20001B68002B6DD03A4B9B6D012B6AD1002391
:103D3000FB6137E03B46F9691846FFF715F93A6829
:103D40003449FB6941F82320FB6908337A6831491B
:103D500041F82320BA682F49FB69103341F823202A
:103D6000FB690833FA682B49103341F823203B697B
:103D7000002B08D0284AFB6952F823305A1C2649E8
:103D8000FB6941F823207B69002B08D0FB690833CD
:103D9000214A52F8232001321F4941F82320FB69B0
:103DA0000133FB61FB69072BC4DD0023FB611CE0D1
:103DB000194AFB6952F823300A2B13DD164AFB69B6
:103DC000002142F82310154AFB69183352F82330BA
:103DD000002B07D10123BB61104AFB691833012175
:103DE00042F82310FB690133FB61FB690F2BDFDD18
:103DF000BB69002B06D000220121002000F0AEFCA0
:103E000000E000BF2037BD4680BD00BF8006002017
:103E1000283500200C3800208C3700200434002086
:103E200080B582B000AF01F007FE00F06BF8FFF73D
:103E30008FF9FFF767FD00F09DFF01F051FB00F0E7
:103E4000CFFF01F02BFAFFF71DF900F063FEFFF73B
:103E500093FD01222349244804F0ACFB3220FFF7F4
:103E60005FF9FFF713FE01F029FC00233B600123FB
:103E70007B601E4B00221A60FFF75EFD7B68002B03
:103E800006D01A4B1B68B3F57A7F01DB00237B60F9
:103E900041F268020021164806F035FF154B1878EC
:103EA000154B1B88154A124901F02AFD03463B6059
:103EB0003B68002B0FD04FF48051114802F025FCD5
:103EC0007B68002B03D13868FDF7B0FD03E00421C7
:103ED000FF20FDF7DDFCFDF717F8FFF795FEFFF774
:103EE00019FFC9E7EB390020A8390020443700202A
:103EF000240900204C0200200C00002008000020B3
:103F00000000024080B594B000AF07F120033022DA
:103F10000021184606F0F7FE07F10C0300221A6094
:103F20005A609A60DA601A610023BB60294B1B6CEF
:103F3000284A43F080531364264B1B6C03F08053D4
:103F4000BB60BB6800237B60234B1B68224A43F4A1
:103F500080431360204B1B6803F480437B607B68C5
:103F600009233B624FF480337B6201237B6302238E
:103F7000BB634FF48003FB6319233B644FF4A873C6
:103F80007B640223BB640423FB6407F1200318460F
:103F900002F020FC0346002B01D000F01FF80F2395
:103FA000FB6002233B6100237B614FF4A053BB61A4
:103FB0004FF48053FB6107F10C030521184602F012
:103FC00079FE0346002B01D000F008F800BF5037FF
:103FD000BD4680BD003802400070004080B400AF94
:103FE00072B6FEE780B582B000AF0346FB71FB7985
:103FF00003F00103DBB21A464FF480510F4802F080
:104000006BFBFB795B10DBB203F00103DBB21A46FA
:104010004FF40051094802F05FFBFB799B10DBB2C3
:1040200003F00103DBB21A464FF48041034802F06B
:1040300053FB00BF0837BD4680BD00BF00180240DB
:1040400080B483B000AF00237B6010E00D4A7B6832
:1040500052F82330002B07D10B4A7B6852F82330EB
:10406000002B01D1012306E07B6801337B607B6874
:104070000F2BEBDD002318460C37BD465DF8047BA3
:10408000704700BF043400209C35002090B585B0F7
:1040900000AF786039600023FB600023BB603B68A1
:1040A000002B04D1FFF7CCFF0346002B39D14FF48E
:1040B000807200211D4806F026FE0023BB602CE024
:1040C000BB68DBB21846FFF78DFF0520FFF728F825
:1040D0000023FB601BE0164AFB689B0013441B682F
:1040E0001846FCF741FA03460C46796844EC103B4D
:1040F000F868FDF77BFA034618460C49FB68DA00BE
:10410000BB68134441F82300FB680133FB60FB6884
:10411000072BE0DDBB680133BB60BB68072BCFDD3D
:1041200000E000BF1437BD4690BD00BF200800204E
:104130007CE6020880B584B000AF786087ED000AA5
:10414000D7ED007A9FED297A67EE877AC7ED007A7E
:10415000274A7B689B001344D3ED007A97ED007AE1
:10416000B4EEE77AF1EE10FA05DD214A7B689B0098
:1041700013441B683B60D7ED007AF5EEC07AF1EE90
:1041800010FA01D81B4B3B60194A7B689B00134413
:1041900093ED007ADFED186AC7EE267AC7ED037A51
:1041A000D7ED006A97ED037AC6EE877AFDEEE77ADF
:1041B00017EE903ABB60BB68013BBB60BB689B00DD
:1041C000BB607B68D8B27B6802339BB21B039BB297
:1041D0001AB2BB681BB213431BB29BB21946FEF75F
:1041E00001FF002318461037BD4680BD0000C842BD
:1041F0006CE60208000020410000804480B582B0D7
:1042000000AF00233B60FFF71BFF0346002B7DD070
:10421000404B1B79022B79D93E4B00221A710121A8
:104220000A20FFF733FF00F0B5F83B4BD3F82031FD
:10423000012B09D1384B0022C3F820214FF48062B2
:104240000021364806F05FFD00233B605BE0002361
:104250007B6052E032493B68DA007B68134451F8D6
:104260002330002B46D02E493B68DA007B6813448C
:1042700051F823202B483B68D9007B680B441B0175
:10428000034404331A6027493B68DA007B6813440F
:104290001B010B4408333A681A6022493B68DA0074
:1042A0007B6813441B010B440C337A681A601E4967
:1042B0003B68DA007B68134451F8232019483B68B7
:1042C000D9007B680B441B01034410331A603B6820
:1042D000002B03F00103B8BF5B42DA007B68134494
:1042E0000D4A3833012142F8231001220121002018
:1042F00000F034FA7B6801337B607B68072BA9DD13
:104300003B6801333B603B68072BA0DD00BF0837EB
:10431000BD4680BD8C0600200434002080020020B1
:10432000980600207C0200202822002080B485B05E
:1043300000AFF860B9607A603B60BA683B689A4247
:1043400001DD01231BE0FB68012B12D10F4B1B6821
:10435000012B09D10E4B1B68002B05D1BA687B6875
:104360009A420BDA02230AE0BB68002B06DA02232A
:1043700005E0BB68002B01DA022300E000231846A9
:104380001437BD465DF8047B704700BF80060020EF
:104390005C37002080B584B000AF0023BB600023F1
:1043A000FB6001E10023BB60F7E08349BB68DA00F2
:1043B000FB681344002241F82320BB68002B03F064
:1043C0000103B8BF5B42DA00FB6813447B4A52F832
:1043D0002330002B0CBF01230023DBB27B60BB68C2
:1043E000072B00F2D78001A252F823F00D440208F7
:1043F0000D4402086D4402086D440208CB440208D3
:10440000CB44020829450208294502086C49BB68CB
:10441000DA00FB68134451F823301946694B1A68D7
:10442000684B5B687868FFF781FF6349BB68DA0017
:10443000FB68134441F823005F49BB68DA00FB685E
:10444000134451F82330002B00F09D805C49BB6879
:10445000DA00FB68134451F8233018465A49BB6808
:10446000DA00FB68134441F823008CE05449BB6830
:10447000DA00FB68134451F823301946514B9A690E
:10448000504BDB697868FFF751FF4B49BB68DA0096
:10449000FB68134441F823004749BB68DA00FB6816
:1044A000134451F82330002B6FD04549BB68DA0024
:1044B000FB68134451F8233018464349BB68DA00BF
:1044C000FB68134441F823005FE03D49BB68DA0014
:1044D000FB68134451F8233019463A4B1A69394B9B
:1044E0005B697868FFF722FF3349BB68DA00FB6835
:1044F000134441F823003049BB68DA00FB681344D9
:1045000051F82330002B42D02D49BB68DA00FB68FC
:10451000134451F8233018462B49BB68DA00FB6876
:10452000134441F8230032E02549BB68DA00FB68F8
:10453000134451F823301946224B9A6A214BDB6A07
:104540007868FFF7F3FE1C49BB68DA00FB68134488
:1045500041F823001849BB68DA00FB68134451F89E
:104560002330002B15D01649BB68DA00FB681344D2
:1045700051F8233018461449BB68DA00FB6813442D
:1045800041F8230005E000BF04E000BF02E000BFE7
:1045900000E000BFBB680133BB60BB68072B7FF73F
:1045A00004AFFB680133FB60FB68072B7FF7FAAEB3
:1045B00000BF1037BD4680BD98060020043400209F
:1045C00020080020C03300202822002080B584B0BD
:1045D00000AF0023BB6000210A20FFF757FDFFF763
:1045E000D9FE41F268020021194806F08CFB002236
:1045F0001849174807F068F80023FB6020E0002303
:10460000BB6017E01449FB68DA00BB68134451F83B
:1046100023307B600E48FBF7E5FD03463B603B68BB
:104620000B4A13447A680D49184607F04DF8BB68E9
:104630000133BB60BB68072BE4DDFB680133FB6023
:10464000FB68072BDBDD00BF1037BD4680BD00BF18
:104650002C2300201CE402082008002024E4020887
:1046600080B582B000AF0346FB71FFF7AFFFFB7967
:1046700005491846FDF722F80448FDF7DDF800BFAC
:104680000837BD4680BD00BF2C2300208C190020B8
:1046900080B582B000AF03463A60FB710B46BB7138
:1046A000BB79013B0A2B50D801A252F823F000BF7E
:1046B000DD460208F14602080547020819470208CC
:1046C0002D470208414702084147020841470208B6
:1046D0004147020841470208414702081D4B5B88D9
:1046E0001846FDF761FA3B681846FEF719FD2DE004
:1046F000184B9B881846FDF7DFFB3B681846FEF712
:104700000FFD23E0134BDB881846FDF711FB3B68D8
:104710001846FEF705FD19E00F4B1B881846FDF7FC
:10472000F1FD3B681846FEF7FBFC0FE0094B5B8987
:104730001846FDF7E5FC3B681846FEF7F1FC05E07E
:104740003B681846FEF7ECFC00E000BF00BF0837EE
:10475000BD4680BD903500200034002080B58AB071
:1047600000AFF860B9607A60BB68012B40F03E8111
:1047700040220021954806F0C6FA0023BB610FE0F5
:10478000934ABB6952F8233003F00103002B04D095
:104790008E4ABB69012142F82310BB690133BB611A
:1047A000BB690F2BECDD8B4B9B6D012B14D10023D0
:1047B000BB610EE0854ABB69183352F82330012BE8
:1047C00004D1824ABB69012142F82310BB6901333D
:1047D000BB61BB690F2BEDDD0023BB6116E07B4A9B
:1047E000BB69103352F82330012B0CD1BB695B003D
:1047F000764A012142F82310BB695B000133734AFA
:10480000012142F82310BB690133BB61BB69072B4F
:10481000E5DD0023BB610EE06C4ABB69383352F81A
:104820002330012B04D1694ABB69012142F82310CE
:10483000BB690133BB61BB690F2BEDDD664B002209
:104840001A800023BB611AE0634B1B881AB25F49D0
:10485000BB6951F8233003F00103002B0CBF012387
:104860000023DBB21946BB6901FA03F31BB2134301
:104870001BB29AB2584B1A80BB690133BB61BB694A
:104880000F2BE1DD544B1A88534B5A80524B1A8838
:10489000514B9A80504B1A884F4BDA804E4B1A88F6
:1048A0004D4B5A814C4B1A884C4B1A800023BB61EC
:1048B0003CE0464ABB6952F82330002B06D0BB6966
:1048C0000133424A52F82330002B1FD1444B1B6A5C
:1048D000002B0DD03E4ABB691033002142F8231053
:1048E000BB6901333A4A1033012142F823101AE020
:1048F000374ABB691033012142F82310BB690133E9
:10490000334A1033002142F823100CE0304ABB69CF
:104910001033002142F82310BB6901332C4A1033B5
:10492000002142F82310BB690233BB61BB690F2B26
:10493000BFDD294B00221A810023BB6115E0264B05
:104940001B891AB22249BB69103351F8233003F096
:104950000101BB6901FA03F31BB213431BB29AB204
:104960001D4B1A81BB690133BB61BB690F2BE6DDAF
:10497000194B1A89194B5A80184B5B881846FDF75A
:1049800083FC184B3B62184BFB6100237B6218E0F1
:10499000FB691B687B617B68012B01D100237B6174
:1049A0003B6A1B68DBB27A6919460020FFF770FE8C
:1049B0003B6A04333B62FB690433FB617B6A01336E
:1049C0007B627B6A0A2BE3DD49E000BF04340020F0
:1049D0009C35002028350020903500200034002030
:1049E000943300209C360020C8360020204B002243
:1049F0005A801F4B00229A801D4B0022DA801C4BEC
:104A000000225A811B4B00225A801A4B00221A8026
:104A1000184B5B881846FDF737FC174B3B62174B6A
:104A2000FB6100237B6211E03B6A1B68D9B2FB6922
:104A30001B681A460020FFF72BFE3B6A04333B62DB
:104A4000FB690433FB617B6A01337B627B6A0A2B5F
:104A5000EADD4FF492720021094806F054F9094B3F
:104A60004FF47A721A6000BF2837BD4680BD00BF80
:104A70009035002000340020F03600201C37002044
:104A8000043400205437002080B584B000AF0346C2
:104A9000FB7107F1080307F10C020949094806F008
:104AA00033FEBB68F96800221846FFF757FEFB7912
:104AB00000211846FCF7ECFE00BF1037BD4680BD54
:104AC0002CE402083109002080B584B000AF034611
:104AD000FB7107F10C031A460C490D4806F014FE51
:104AE000FB68012B04D14FF6FF70FDF721F902E0BE
:104AF0000020FDF71DF9FB7900211846FCF7C8FEE0
:104B0000002318461037BD4680BD00BF1CE40208D4
:104B10003109002080B500AF4FF4FA71012000F098
:104B20000BF85021012000F0A5F80021012000F031
:104B3000E5F80023184680BD80B485B000AF7860EA
:104B400039603B68142B0EDC3D4B1B683D4AA2FBD1
:104B500003235B0B013BFB6042F210723B6892FB4C
:104B6000F3F3BB604DE03B68142B11DD3B68C82BB1
:104B70000EDC334B1B685B09334AA2FB0323DB09C2
:104B8000013BFB60314A3B6892FBF3F3BB6038E0CA
:104B90003B68C82B11DD3B68B3F5FA6F0DDC284B81
:104BA0001B682B4AA2FB03239B0C013BFB60294A99
:104BB0003B6892FBF3F3BB6023E03B68B3F5FA6F0D
:104BC00012DD3B6844F6206293420DDC1C4B1B68EF
:104BD000214AA2FB03239B0D013BFB601F4A3B685C
:104BE00092FBF3F3BB600CE0154B1B681C4AA2FB65
:104BF00003235B0D013BFB601A4A3B6892FBF3F316
:104C0000BB607B68002B10D0012B12D1164B1B68A8
:104C1000FA689A62144B1B68BA68DA62124ABB6877
:104C2000D360124ABB68136003E0114ABB6813608B
:104C300000BF002318461437BD465DF8047B70475B
:104C4000040000205917B7D1C55A7C0AA08601007C
:104C500083DE1B4340420F006BCA5F6B8096980057
:104C6000819F5E1600366E0168390020B038002042
:104C7000B4380020B0B582B000AF78600B46FB704E
:104C80007B68002B2ED0012B2DD1194B1B6807EE12
:104C9000903AF8EE677A17EE900AFBF765FC044647
:104CA0000D46FB7807EE903AF8EE677A17EE900A19
:104CB000FBF75AFC4FF000020E4BFBF7D7FD024604
:104CC0000B4620462946FBF7A7FC03460C4619462F
:104CD0002246094B1C6808461146FBF775FF034640
:104CE000E36300E000BF002318460837BD46B0BDAF
:104CF000B0380020000059406839002080B582B0EB
:104D000000AF786039603B68012B09D17B68002BCC
:104D100010D0012B11D108210A4802F017FF0CE036
:104D20007B68002B08D0012B07D10821054802F031
:104D30004BFF02E000BF00E000BF00231846083729
:104D4000BD4680BD6839002080B584B000AFF860F2
:104D5000B9607A607968F868FFF7EEFEBB68DBB28D
:104D60001946F868FFF786FF002318461037BD463E
:104D700080BD000080B500AF174B184A1A60164B73
:104D80004FF482725A60144B00229A60124B002238
:104D9000DA60114B00221A610F4B00225A610E4B50
:104DA0004FF400729A610C4B0022DA610A4B002228
:104DB0001A62094B00225A62074B00229A62064B84
:104DC0000A22DA62044802F041F90346002B01D0BE
:104DD000FFF704F900BF80BD10390020003001400A
:104DE00080B500AF184B194A1A60174B4FF4827206
:104DF0005A60154B00229A60134B4FF40062DA6040
:104E0000114B00221A61104B00225A610E4B4FF4D5
:104E100000729A610C4B0822DA610B4B00221A6275
:104E2000094B00225A62084B00229A62064B0A2262
:104E3000DA62054802F00AF90346002B01D0FFF7B9
:104E4000CDF800BF80BD00BFB8380020003800405A
:104E500080B58CB000AF786007F11C0300221A60A7
:104E60005A609A60DA601A617B681B68324A934222
:104E70002CD10023BB61314B5B6C304A43F480532F
:104E800053642E4B5B6C03F48053BB61BB690023FE
:104E90007B612A4B1B6B294A43F001031363274BA9
:104EA0001B6B03F001037B617B69E023FB61022341
:104EB0003B6200237B620323BB620523FB6207F195
:104EC0001C0319461E4801F055FA31E07B681B6847
:104ED0001C4A93422CD100233B61184B1B6C174A90
:104EE00043F480431364154B1B6C03F480433B6114
:104EF0003B690023FB60114B1B6B104A43F002031C
:104F000013630E4B1B6B03F00203FB60FB684FF453
:104F10006043FB6102233B6200237B620323BB628D
:104F20000523FB6207F11C031946074801F022FA2A
:104F300000BF3037BD4680BD003001400038024020
:104F400000000240003800400004024080B582B0FA
:104F500000AF0346FB711D4B1D4A1A601B4B4FF4FB
:104F600082725A60194B00229A60FB79002B04D0A0
:104F7000164B4FF40062DA6002E0144B0022DA6054
:104F8000124B00221A61114B00225A610F4B4FF451
:104F900000729A610D4B0822DA610C4B00221A62F2
:104FA0000A4B00225A62094B00229A62074B0A22DE
:104FB000DA62064802F04AF80346002B01D0FFF7F8
:104FC0000DF800BF0837BD4680BD00BFB8380020CF
:104FD0000038004080B483B000AF00237B60104BEA
:104FE0005B6C0F4A43F4804353640D4B5B6C03F4DA
:104FF00080437B607B6800233B60094B1B6C084A45
:1050000043F080531364064B1B6C03F080533B60EA
:105010003B6800BF0C37BD465DF8047B704700BF9E
:105020000038024080B400AFFEE780B400AFFEE776
:1050300080B400AFFEE780B400AFFEE780B400AFFD
:10504000FEE780B400AF00BFBD465DF8047B70474B
:1050500080B400AF00BFBD465DF8047B704780B4EC
:1050600000AF00BFBD465DF8047B704780B500AF60
:10507000214B1B680133204A1360204B1B685A1CCC
:105080001E490A60B3F57A7F02DD1C4B00221A60CC
:105090001A4B1A681A4B83FB02135911D317CB1AF8
:1050A000642101FB03F3D31A002B05D1154B1B79A7
:1050B0000133DAB2134B1A71134B1B68002B04D067
:1050C000114B1B68013B104A1360104B1B68002BEF
:1050D00004D00E4B1B68013B0C4A13600C4B1B6841
:1050E000002B04D00A4B1B68013B094A136000F0F7
:1050F000F5FC00BF80BD00BF4437002058370020BA
:105100001F85EB518C060020503700205C370020B3
:105110005437002080B500AF024803F0A1FA00BF69
:1051200080BD00BFA839002080B586B000AFF86010
:10513000B9607A6000237B610AE0AFF3008001462A
:10514000BB685A1CBA60CAB21A707B6901337B61B2
:105150007A697B689A42F0DB7B6818461837BD464F
:1051600080BD80B586B000AFF860B9607A6000237A
:105170007B6109E0BB685A1CBA601B78184600F0D6
:1051800045F97B6901337B617A697B689A42F1DB7F
:105190007B6818461837BD4680BD80B483B000AF29
:1051A00078604FF0FF3318460C37BD465DF8047B3E
:1051B000704780B483B000AF786039603B684FF4CB
:1051C00000525A60002318460C37BD465DF8047B38
:1051D000704780B483B000AF7860012318460C3765
:1051E000BD465DF8047B704780B485B000AFF860C1
:1051F000B9607A60002318461437BD465DF8047B19
:105200007047000080B586B000AF7860144A154B37
:10521000D31A7B617B693B61134B1B68002B02D166
:10522000114B124A1A60104B1A687B6813443A6992
:105230009A4207D205F032FD02460C2313604FF06C
:10524000FF3309E0084B1B68FB60074B1A687B685B
:105250001344054A1360FB6818461837BD4680BDE5
:10526000000002200004000048020020383B00201B
:1052700080B400AF074BD3F88830064A43F470037C
:10528000C2F88830034B044A9A6000BFBD465DF8FF
:10529000047B704700ED00E00000020880B58AB092
:1052A00000AF07F1200300221A605A603B1D002264
:1052B0001A605A609A60DA601A615A619A61234BE7
:1052C000234A1A60214B4FF4C8625A601F4B0022D8
:1052D0009A601E4B42F21072DA601C4B00221A6177
:1052E0001A4B00229A61194802F004FC0346002B75
:1052F00001D0FEF773FE00233B6200237B6207F1BF
:1053000020031946114802F0F3FF0346002B01D099
:10531000FEF764FE60237B6041F28833BB600023AC
:10532000FB6000237B613B1D08221946074802F001
:10533000A3FC0346002B01D0FEF750FE034800F00B
:105340002BF800BF2837BD4680BD00BF683900205C
:105350000004004080B485B000AF78607B681B68B3
:105360000B4A93420DD10023FB600A4B1B6C094A88
:1053700043F002031364074B1B6C03F00203FB6052
:10538000FB6800BF1437BD465DF8047B704700BF63
:10539000000400400038024080B588B000AF78605B
:1053A00007F10C0300221A605A609A60DA601A61F1
:1053B0007B681B68124A93421DD10023BB60114BCE
:1053C0001B6B104A43F0020313630E4B1B6B03F07D
:1053D0000203BB60BB680123FB6002233B61002327
:1053E0007B610023BB610223FB6107F10C031946BB
:1053F000054800F0BFFF00BF2037BD4680BD00BF9D
:1054000000040040003802400004024080B582B031
:1054100000AF7860391D64230122044803F031F89D
:105420007B6818460837BD4680BD00BFA8390020FC
:1054300080B582B000AF78607B681B68244A9342D5
:1054400042D1244B9B781946224BDA78214B0B44EE
:105450005A71204BDB78022B0DD11E4B93F805318E
:10546000002B08D11B4B9A781A4B1A70194B01224A
:1054700083F8052114E0174B93F80531002B0FD06A
:10548000144BDB78032B0BD1124B9A78114B5A70CB
:10549000104B012283F806210E4B012283F80721CD
:1054A0000C4B9B78FF2B04D10A4B012283F8082177
:1054B00005E0084B9B780133DAB2064B9A70012263
:1054C0000549064803F076F800BF0837BD4680BDA1
:1054D00000100140E8390020EB390020A8390020F5
:1054E00080B500AF114B124A1A60104B4FF4E132F5
:1054F0005A600E4B00229A600C4B0022DA600B4B74
:1055000000221A61094B0C225A61084B00229A6151
:10551000064B0022DA61054802F066FF0346002BC5
:1055200001D0FEF75BFD00BF80BD00BFA8390020A1
:105530000010014080B58AB000AF786007F1140315
:1055400000221A605A609A60DA601A617B681B68F0
:105550001D4A934234D100233B611C4B5B6C1B4AB8
:1055600043F010035364194B5B6C03F010033B6171
:105570003B690023FB60154B1B6B144A43F001038E
:105580001363124B1B6B03F00103FB60FB684FF4CA
:10559000C0637B610223BB610023FB6103233B6289
:1055A00007237B6207F114031946094800F0E2FE65
:1055B00000220021252000F0AEFB252000F0C7FBD3
:1055C00000BF2837BD4680BD0010014000380240B2
:1055D0000000024080B500AF00221021024801F017
:1055E0007BF800BF80BD00BF0000024080B500AF67
:1055F00001221021024801F06FF800BF80BD00BFFA
:105600000000024080B500AF00224FF480710848CE
:1056100001F062F8022000F081FA01224FF480715B
:10562000034801F059F80A2000F078FA00BF80BD65
:105630000000024080B582B000AF78600B467B80EE
:105640007A884FF0FF337968034801F097FE00BF76
:105650000837BD4680BD00BF1039002080B582B03C
:1056600000AF78600B467B807A884FF0FF33796813
:10567000034801F04FFD00BF0837BD4680BD00BFA5
:105680001039002080B582B000AFFB1D0121184603
:10569000FFF7D0FFFB7918460837BD4680BD80B5BF
:1056A00082B000AF0346FB71FB1D01211846FFF7D6
:1056B000D5FF00BF0837BD4680BD000090B587B05C
:1056C00000AF1749174804F0C1FD1749174804F007
:1056D000E1FD1749174804F009FEFFF793FF00F0BA
:1056E00059F80346FB75144AFB7D5372124AFB7D41
:1056F0005371124B3C1D0FCB84E80F003B1D194624
:10570000012004F01FFE0346002B02D04FF0FF33B0
:1057100002E000F06DF8002318461C37BD4690BD2E
:10572000ED550208D55502089F5602088556020815
:105730005D560208355602081000002038E40208C1
:1057400080B582B000AF0346FB71FB7903F0010323
:10575000DBB21A4601210E4800F0BEFFFB795B1058
:10576000DBB203F00103DBB21A460221084800F065
:10577000B3FFFB799B10DBB203F00103DBB21A46E7
:105780000421034800F0A8FF00BF0837BD4680BDD4
:105790000020024080B582B000AF00237B7100235F
:1057A000BB710023FB7119E0FB791846FFF7C8FFB6
:1057B0000120FDF7B5FC40210C4800F075FF0346C1
:1057C0007B717B7903F00102FB7902FA03F3DAB211
:1057D000BB791344BB71FB790133FB71FB79052B5A
:1057E000E2D9BB7918460837BD4680BD0018024093
:1057F000B0B586B004AF3949002004F085FE3849C1
:10580000012004F081FE3B461946082004F09AFD71
:105810003B461946334805F0DBFE314B1B781846F2
:105820002F4B5B781C462E4B9B781D462C4BDB7810
:105830001A462B4B1B791946294B5B790293019130
:1058400000922B4622460146274805F0C1FE244B14
:105850009B791946224BDB791A46214B1B7A184655
:105860001F4B5B7A00930346204805F0B1FE1C4BAA
:105870009B7B19461A4BDB7B1A46194B1B7C18463F
:10588000174B5B7C00930346194805F0A1FE144BAF
:105890009B7A1946124BDB7A1A46114B1B7B184632
:1058A0000F4B5B7B00930346124805F091FE0C4BB7
:1058B0009B7C19460A4BDB7C1A46094B1B7D18461C
:1058C000074B5B7D009303460B4805F081FE0B48B8
:1058D00005F0F2FE00BF0837BD46B0BD1000002045
:1058E000F43A002048E4020860E402087CE402087C
:1058F00090E40208A4E40208B8E40208CCE4020838
:1059000080B588B002AFB9607A601A460346FB736F
:105910001346BB8100237B6100237B8201237B74C0
:1059200000233B74FB7B9B000133DB0003F54073DA
:10593000184603F091FC0346002B3ED0222B00D0EA
:105940004AE000233B7434E0FB7B184603F029FE59
:1059500003467B827B8A002B23D07A8A7B6913449F
:10596000B3F5806F04D37B699BB2C3F580637B8200
:10597000BA687B69D1187A8AF87B07F10C03009327
:105980007B6804F013FA03461A467B6913447B6173
:1059900001233B747B69B3F5806F0AD300237B74CA
:1059A00007E000237B743B7C002B02D1012000F038
:1059B000B5F87B7C002BC7D10EE0BA89F87B0023B9
:1059C000022103F039FF03467B61FB7B7A699A422F
:1059D00001D07B6901E000BF7B6918461837BD46DE
:1059E00080BD0000DFF834D0002103E00C4B5B5891
:1059F000435004310B480C4B42189A42F6D30B4AE1
:105A000002E0002342F8043B094B9A42F9D3FFF726
:105A10002FFC05F049F9FEF703FA70470000022059
:105A2000A4E90208000000202C0200202C02002023
:105A3000343B0020FEE7000080B500AF0E4B1B6832
:105A40000D4A43F4007313600B4B1B680A4A43F47E
:105A500080631360084B1B68074A43F4807313602C
:105A6000032000F04DF9002000F008F8FFF7B2FA2B
:105A70000023184680BD00BF003C024080B582B0C4
:105A800000AF7860124B1A68124B1B7819464FF41E
:105A90007A73B3FBF1F3B2FBF3F3184600F065F948
:105AA0000346002B01D001230EE07B680F2B0AD8A0
:105AB000002279684FF0FF3000F02DF9064A7B682C
:105AC0001360002300E0012318460837BD4680BD5F
:105AD000040000202C0000202800002080B400AF2B
